:100000000C9438000C9455000C9455000C94550039
:100010000C9455000C9455000C9455000C9455000C
:100020000C9455000C9455000C9455000C945500FC
:100030000C9455000C9455000C9455000C945500EC
:100040000C9455000C9455000C9455000C945500DC
:100050000C9455000C9455000C9455000C945500CC
:100060000C9455000C9455000C9455000C945500BC
:1000700011241FBECFEFD4E0DEBFCDBF11E0A0E062
:10008000B1E0E6E4F5E002C005900D92A630B107BC
:10009000D9F711E0A6E0B1E001C01D92A031B1078F
:1000A000E1F70E94C0000C94A1020C940000DF93C1
:1000B000CF930F92CDB7DEB700008BE290E0FC014A
:1000C00080818823D4F78CE290E0FC0180818983D1
:1000D0008981882F90E00F90CF91DF910895DF9371
:1000E000CF930F92CDB7DEB7898300008BE290E00B
:1000F000FC018081882F90E0807290700097B1F3AE
:100100008CE290E02981FC01208300008BE290E0EA
:10011000FC018081882F90E0807490700097B1F38B
:1001200080E090E00F90CF91DF910895DF93CF931F
:1001300000D0CDB7DEB79A83898380E490E029812F
:100140003A81232F3327FC01208389E290E0298123
:10015000FC0120838AE290E028E1FC01208380E416
:1001600090E026E8FC0120838FE690E027E530E070
:10017000B9010E94DD000F900F90CF91DF9108959B
:10018000DF93CF930F92CDB7DEB78FE190E00E945F
:1001900096008BE390E02FEFFC01208381E48983BC
:1001A00081E40E946F008BE390E02BE330E0F901E3
:1001B00020812095FC012083F3CF0F931F93CF93D1
:1001C000DF938C01EB01009711F42097C9F181E0D6
:1001D00090E06EE070E00E942801FC019C01009715
:1001E00089F180E88383209771F0D387C28781E803
:1001F00083838091060190910701009721F4F09389
:100200000701E093060101151105E1F01187008750
:100210008381826083838091080190910901009716
:1002200089F4F0930901E093080180910A0190910B
:100230000B01009739F4F0930B01E0930A0102C01F
:1002400020E030E0C901DF91CF911F910F91089517
:10025000EF92FF920F931F93CF93DF93689F8001DC
:10026000699F100D789F100D1124C8010E944C0148
:10027000E82EE7017E01F92EE701209731F08E2D5F
:1002800060E070E0A8010E947F027E01CE01CDB740
:10029000DEB7E6E00C949202CF93DF9382309105B3
:1002A00010F482E090E0E0910E01F0910F0140E047
:1002B00050E020E030E026C0608171816817790746
:1002C000E0F06817790781F4828193812115310567
:1002D00031F0D90113969C938E9312972BC0909373
:1002E0000F0180930E0126C04115510519F06417C6
:1002F000750718F4AB01E901DF019F017281638189
:10030000E72FF62F3097C1F64115510501F1481B33
:10031000590B4430510580F412968D919C9113979E
:10032000209719F09B838A8304C090930F018093D8
:100330000E01FD01329646C0FD01E40FF51F8193C9
:1003400091934250504011965C934E933BC0209144
:100350000C0130910D012115310541F4209102016C
:100360003091030130930D0120930C012091040181
:10037000309105012115310541F42DB73EB740916B
:10038000000150910101241B350BE0910C01F0910B
:100390000D01E217F307A0F42E1B3F0B28173907B6
:1003A00078F0AC014E5F5F4F2417350748F04E0FD1
:1003B0005F1F50930D0140930C018193919302C0F4
:1003C000E0E0F0E0CF01DF91CF910895CF93DF938C
:1003D000009709F491C0FC01329713821282609158
:1003E0000E0170910F016115710581F42081318139
:1003F000280F391F80910C0190910D0182179307EE
:1004000099F5F0930D01E0930C0176C0DB0180E0DB
:1004100090E002C0CD01D901AE17BF0748F4129693
:100420002D913C91139721153105A1F7CD0121C0E4
:10043000B383A283EF01499159919E01240F351F87
:10044000A217B30779F42D913C911197240F351F12
:100450002E5F3F4F3183208312962D913C9113974D
:1004600033832283009729F4F0930F01E0930E0168
:1004700043C0DC011396FC93EE9312974D915D916E
:10048000A40FB51FEA17FB0769F420813181240FFF
:10049000351F2E5F3F4FEC01398328832281338142
:1004A0003B832A83E0E0F0E002C0FB01BC01DB01FA
:1004B00012968D919C9113970097B9F79B012E5F2F
:1004C0003F4F8D919C911197820F931F40910C018A
:1004D00050910D014817590779F4309729F410927B
:1004E0000F0110920E0102C013821282225030407E
:1004F00030930D0120930C01DF91CF910895DC0121
:1005000001C06D9341505040E0F708952A88398822
:1005100048885F846E847D848C849B84AA84B9849B
:10052000C884DF80EE80FD800C811B81AA81B981A7
:10053000CE0FD11D0FB6F894DEBF0FBECDBFED01BB
:060540000895F894FFCFBE
:060546002000100100007E
:00000001FF
