:100000000C9426010C9479010C9493010C944301F7
:100010000C9443010C9443010C9443010C94430150
:100020000C9443010C9443010C9443010C94430140
:100030000C9443010C9443010C9443010C94430130
:100040000C9443010C9443010C9443010C94430120
:100050000C9443010C9443010C9443010C94430110
:100060000C9443010C9443010C9443010C94430100
:10007000000000000000005E0000000E000E0028DE
:100080007C287C2808547C542026100864002854BE
:1000900028400000000E0000003C42000000423CEE
:1000A0000000005438540010107C101000806020B4
:1000B0000010101010000060600000201008040004
:1000C000003C423C0000447E40004462524C00220E
:1000D0004A4A360018147E10002E4A4A32003C4A22
:1000E0004A300002621A0600344A4A34000C525266
:1000F0003C00006C6C0000806C2C00000010284458
:1001000000282828280000442810000004520C0071
:100110003C425A1C007C12127C007E4A4A34003C4D
:10012000424224007E42423C007E4A4A42007E0A0D
:100130000A02003C425274007E08087E0000427EA3
:1001400042002040403E007E182442007E40404055
:10015000007E0C0C7E007E0C307E003C42423C0057
:100160007E12120C003C6242BC007E12324C002413
:100170004A52240000027E02003E40403E001E60C3
:10018000601E007E30307E006618186600000E701B
:100190000E0062524A4600007E42420004081020CF
:1001A000000042427E000004020400404040400043
:1001B000000204000030482878007E4848300030B3
:1001C000484800003048487E003068581000107CD5
:1001D00012040050A8A898007E0808700000487A11
:1001E00040000040807A007E1028400000427E409F
:1001F0000078101870007808087000304848300007
:10020000F848483000304848F80078080810005096
:1002100058682800083E48400038404078000038C0
:100220004038007860607800483030480018A040BE
:100230003800486858480000083C420000007E0032
:100240000000423C080004020402000011241FBE0A
:10025000CFEFD4E0DEBFCDBF13E0A0E0B1E0ECEB28
:10026000F2E102C005900D92AC32B107D9F713E06C
:10027000ACE2B3E001C01D92AB33B107E1F70E94DD
:10028000AF010C945C090C940000813059F081306E
:1002900078F0823099F0E0910001F0910101833013
:1002A000B1F412C0E0910001F091010184E00DC0B1
:1002B000E0910001F091010185E007C0E0910001AB
:1002C000F091010186E001C087E0808308951082EB
:1002D00008950E94450180912D03882329F01092F2
:1002E0002D0380912E030895FFCF85B7806885BFC9
:1002F00008951F920F920FB60F9211248F93EF93D0
:10030000FF93E0910001F0910101808180932E0321
:1003100081E080932D03FF91EF918F910F900FBE9D
:100320000F901F9018951F920F920FB60F921124E5
:100330008F9381E080932C038F910F900FBE0F90CD
:100340001F9018958B98939A85B7886085BF8BB757
:1003500080688BBF8BB780648BBF789408958FE1E2
:1003600090E00E94DA0382E091E00E940B050E9477
:1003700075010E94A2010E94F6030E94CC010E9416
:1003800021030E940F0384E191E00E94D4028DE4D6
:1003900091E00E94FC02FFCF80E00E9469018093FF
:1003A0002F0381E00E9469018093300308951F9319
:1003B00080E00E946901182F81E00E946901982F56
:1003C000812F1F9108950E94D70170912F03282F2C
:1003D00030E0271B3109285E3F4F60913003492FE1
:1003E00050E02133310560F49A01261B3109285E63
:1003F0003F4F2133310528F16917D8F484E008957F
:100400009A01261B3109285E3F4F2133310520F424
:10041000781788F487E00895871720F4961768F016
:10042000691768F0781768F4961768F0691748F448
:100430000CC085E0089586E0089580E0089581E08D
:10044000089588E0089582E0089583E00895843057
:10045000A1F0853048F4813011F1813018F18230FB
:10046000C1F0833041F518C0863069F0863040F025
:10047000873061F08830F9F41AC08FED91E014C034
:1004800085EE91E011C08EEE91E00EC085EF91E017
:100490000BC08DEF91E008C08CE092E005C088E1D0
:1004A00092E002C083E292E00E940B05089581E38E
:1004B00092E00E940B050895E0913B02F0913C020E
:1004C00080830895E0913D02F0913E02808308957B
:1004D000E0913D02F0913E0287EA80830895E09129
:1004E0003D02F0913E0286EA80830895E0913D024C
:1004F000F0913E0291E29083962F990F990F960FFB
:10050000E0913D02F0913E029083E0913D02F09136
:100510003E029FE79083E0913D02F0913E0292E21D
:100520009083E0913D02F0913E028083E0913D0294
:10053000F0913E0287E080830895E0913D02F091C2
:100540003E0291E29083E0913D02F0913E02808371
:10055000E0913D02F0913E028FE78083E0913D0201
:10056000F0913E0282E28083E0913D02F0913E02F2
:100570006083E0913D02F0913E0287E08083089520
:1005800095E0899FC0011124FC01E053F0408B529B
:1005900090402491A0913B02B0913C022C93319663
:1005A000E817F907B1F708951F93CF93DF93EC0194
:1005B00010E003C00E94C0021F5FFE01E10FF11DA9
:1005C00080818823B9F7DF91CF911F91089595E03D
:1005D000899FC0011124FC01E053F0408B529040F0
:1005E00024912095A0913B02B0913C022C9331962E
:1005F000E817F907A9F708951F93CF93DF93EC014C
:1006000010E003C00E94E7021F5FFE01E10FF11D31
:1006100080818823B9F7DF91CF911F91089580E001
:1006200060E00E949D0280E893E0E0913B02F0913F
:100630003C0210820197C9F780E060E00E949D02B1
:100640000895E0913D02F0913E028EEA8083E091B0
:100650003D02F0913E0281EA8083E0913D02F091FB
:100660003E028AED8083E0913D02F0913E0282E1FC
:100670008083E0913D02F0913E0288EC8083E0911E
:100680003D02F0913E0288EA8083E0913D02F091C4
:100690003E028FE38083E0913D02F0913E0285EDC2
:1006A0008083E0913D02F0913E0280E88083E091FA
:1006B0003D02F0913E0281E88083E0913D02F0919D
:1006C0003E0280E58083E0913D02F0913E0289ED9B
:1006D0008083E0913D02F0913E0281E28083E091CF
:1006E0003D02F0913E0290E29083E0913D02F09154
:1006F0003E021082E0913D02F0913E029BED90831C
:10070000E0913D02F0913E0290E39083E0913D0242
:10071000F0913E029DEA9083E0913D02F0913E020D
:100720001082E0913D02F0913E028083E0913D0213
:10073000F0913E021082E0913D02F0913E028FE77F
:100740008083E0913D02F0913E0282E28083E0915D
:100750003D02F0913E021082E0913D02F0913E0296
:1007600087E08083E0913D02F0913E0280E4808347
:10077000E0913D02F0913E0284EA8083E0913D02E7
:10078000F0913E0286EA8083E0913D02F0913E02C4
:100790008FEA80830E940F0308955F9BFECF8CB188
:1007A00090E008955D9BFECF8CB95E9BFECF80E00C
:1007B00090E0089590BD89B988E18AB986E880BD46
:1007C00082ED93E06DEC73E00E94AB0408958FEF2F
:1007D0008ABB86B985E58BBB399A8FEF9FE201977B
:1007E000F1F700C0000039981BBA0895CF92DF924C
:1007F000EF92FF920F931F93CF93DF938FE392E0DB
:100800000E940B05EE24FF24C0E0D0E006E512E0D4
:100810009E012095FE01E050F84E208390819217B2
:1008200021F19081ADB7BEB718970FB6F894BEBF4F
:100830000FBEADBFEDB7FEB7319612961C930E9367
:100840001197D383C28394831582268317820E94D3
:10085000F6040894E11CF11C2DB73EB7285F3F4F0A
:100860000FB6F8943EBF0FBE2DBF219638E0C030C2
:10087000D30771F600E010E0C0E0D0E086E9C82EB2
:1008800082E0D82EDE01A0958A2FFE01E050F84EBE
:1008900090819A1731F190812DB73EB728503040A2
:1008A0000FB6F8943EBF0FBE2DBFEDB7FEB7319621
:1008B000ADB7BEB71296DC92CE921197D383C283A6
:1008C00094831582868317820E94F6040F5F1F4F60
:1008D0002DB73EB7285F3F4F0FB6F8943EBF0FBE0F
:1008E0002DBF219638E0C030D30761F600D000D08C
:1008F00000D0EDB7FEB7319685ED92E0ADB7BEB74B
:1009000012969C938E931197F382E282158304834F
:100910000E94F6042DB73EB72A5F3F4F0FB6F894FA
:100920003EBF0FBE2DBFDF91CF911F910F91FF9062
:10093000EF90DF90CF900895E82FF92F82E407C061
:100940008193AFEFBFE21197F1F700C00000E61707
:10095000F707B1F708950F931F93CF93DF938C019F
:10096000EB01009711F42097C9F181E090E06EE06F
:1009700070E00E942707FC019C01009789F180E844
:100980008383209771F0D387C28781E88383809126
:10099000310390913203009721F4F0933203E093F6
:1009A000310301151105E1F0118700878381826011
:1009B00083838091330390913403009789F4F093FB
:1009C0003403E0933303809135039091360300970D
:1009D00039F4F0933603E093350302C020E030E0B1
:1009E000C901DF91CF911F910F910895A0E0B0E070
:1009F000ECEFF4E00C943509FE01359661917191AC
:100A00008091330390913403AF010E9440052096FA
:100A1000E2E00C945109EF92FF920F931F93CF9352
:100A2000DF938C01E0913303F0913403838181FFE4
:100A30001FC0C0E0D0E00AC0DB011896ED91FC9128
:100A400019970995009711F0CFEFDFEFF801819129
:100A50008F016091330370913403882369F7DB01C0
:100A60001896ED91FC9119978AE00995009711F07D
:100A7000CFEFDFEFCE01CDB7DEB7E6E00C944D0946
:100A8000ACE0B0E0E6E4F5E00C9425096C011B0154
:100A90008A01FC0117821682838181FFD1C12E0158
:100AA0000894411C511CF6019381F10193FD85913D
:100AB00093FF81911F01882309F4BEC1853239F467
:100AC00093FD859193FF81911F01853229F490E078
:100AD000B6010E949B08E7CFEE24FF2420E02032DD
:100AE000B0F48B3269F08C3228F4803251F08332CA
:100AF00071F40BC08D3239F0803349F421602CC081
:100B00002260246029C0286027C0206125C027FDFD
:100B10002CC0382F30533A3098F426FF08C08E2D61
:100B2000880FE82EEE0CEE0CE80EE30E15C08F2DAC
:100B3000880FF82EFF0CFF0CF80EF30E20620CC08D
:100B40008E3221F426FD78C1206406C08C3611F463
:100B5000206802C0883649F4F10193FD859193FF26
:100B600081911F01882309F0BACF982F95549330B3
:100B700018F09052933028F40C5F1F4FFFE3F98375
:100B80000DC0833631F0833771F0833509F060C0D2
:100B900022C0F801808189830E5F1F4F420171E0FE
:100BA000A72EB12C16C062E0662E712C600E711E4D
:100BB000F8018080918026FF03C06E2D70E002C096
:100BC0006FEF7FEFC4012C870E9490085C018301C6
:100BD0002C852F7717C052E0652E712C600E711E88
:100BE000F8018080918026FF03C06E2D70E002C066
:100BF0006FEF7FEFC4012C870E947E085C012C857B
:100C00002068830123FD20C008C080E290E0B60187
:100C10002C870E949B08FA942C858F2D90E0A816B3
:100C2000B90698F311C0F40127FD859127FF819142
:100C30004F0190E0B6012C870E949B082C85F11093
:100C4000FA940894A108B108A114B10461F7F1C0A5
:100C5000843611F0893649F527FF08C0F801608114
:100C60007181828193810C5F1F4F09C0F8016081FF
:100C70007181882777FD8095982F0E5F1F4F4FE673
:100C8000B42EB22297FF09C090958095709561951A
:100C90007F4F8F4F9F4FF0E8BF2AA2012AE030E03C
:100CA0000E94C708782E741845C0853731F43FEE8E
:100CB000B32EB2222AE030E025C099EFB92EB2223D
:100CC0008F36C1F0803720F4883509F0B5C00DC0EB
:100CD000803721F0883709F0AFC002C020E1B22A86
:100CE000B4FE0BC084E0B82A08C0B4FE09C0E6E038
:100CF000BE2A06C028E030E005C020E130E002C096
:100D000020E132E0B7FE08C0F80160817181828184
:100D100093810C5F1F4F07C0F8016081718180E0F3
:100D200090E00E5F1F4FA2010E94C708782E741832
:100D3000FFE7BF22B6FE0BC02EEFB2227E1438F4BE
:100D4000B4FE07C0B2FC05C08FEEB82202C0A72CCB
:100D500001C0AE2C8B2D90E0B4FE0DC0FE01E70D5E
:100D6000F11D2081203319F4E9EEBE2209C0A394BD
:100D7000B2FE06C004C086789070009709F0A39474
:100D80008B2C9924B3FC14C0B0FE0FC0AF1428F410
:100D9000E72CEF0CEA18AF2C08C0E72C06C080E265
:100DA00090E0B6010E949B08A394AF14C0F304C066
:100DB000AF1410F4FA1801C0FF2484FE0FC080E3C2
:100DC00090E0B6010E949B0882FE1FC081FE03C016
:100DD00088E590E010C088E790E00DC0C4018678F7
:100DE0009070009791F081FC02C080E201C08BE21C
:100DF000B7FC8DE290E0B6010E949B0806C080E33C
:100E000090E0B6010E949B08EA947E14C0F37A94A5
:100E1000F201E70DF11D808190E0B6010E949B0870
:100E20007720A9F706C080E290E0B6010E949B08F7
:100E3000FA94FF20C1F737CEF6012681378102C030
:100E40002FEF3FEFC9012C96E2E10C944109EF929C
:100E5000FF920F931F93CF93DF93689F8001699F49
:100E6000100D789F100D1124C8010E944B07E82E29
:100E7000E7017E01F92EE701209731F08E2D60E029
:100E800070E0A8010E9489087E01CE01CDB7DEB7CF
:100E9000E6E00C944D09CF93DF938230910510F476
:100EA00082E090E0E0913903F0913A0340E050E0B5
:100EB00020E030E026C06081718168177907E0F09A
:100EC0006817790781F4828193812115310531F00A
:100ED000D90113969C938E9312972BC090933A034B
:100EE0008093390326C04115510519F06417750721
:100EF00018F4AB01E901DF019F0172816381E72FE3
:100F0000F62F3097C1F64115510501F1481B590BD9
:100F10004430510580F412968D919C91139720973F
:100F200019F09B838A8304C090933A03809339031A
:100F3000FD01329646C0FD01E40FF51F81939193A8
:100F40004250504011965C934E933BC02091370322
:100F5000309138032115310541F420912703309158
:100F600028033093380320933703209129033091CD
:100F70002A032115310541F42DB73EB740912503D1
:100F800050912603241B350BE0913703F091380371
:100F9000E217F307A0F42E1B3F0B2817390778F050
:100FA000AC014E5F5F4F2417350748F04E0F5F1FAF
:100FB00050933803409337038193919302C0E0E04C
:100FC000F0E0CF01DF91CF910895CF93DF930097A9
:100FD00009F491C0FC0132971382128260913903A7
:100FE00070913A036115710581F420813181280FD8
:100FF000391F80913703909138038217930799F531
:10100000F0933803E093370376C0DB0180E090E093
:1010100002C0CD01D901AE17BF0748F412962D9139
:101020003C91139721153105A1F7CD0121C0B38360
:10103000A283EF01499159919E01240F351FA217F8
:10104000B30779F42D913C911197240F351F2E5F32
:101050003F4F3183208312962D913C911397338318
:101060002283009729F4F0933A03E093390343C0B5
:10107000DC011396FC93EE9312974D915D91A40FB2
:10108000B51FEA17FB0769F420813181240F351F52
:101090002E5F3F4FEC0139832883228133813B83CC
:1010A0002A83E0E0F0E002C0FB01BC01DB01129604
:1010B0008D919C9113970097B9F79B012E5F3F4F3D
:1010C0008D919C911197820F931F409137035091FE
:1010D00038034817590779F4309729F410923A03E6
:1010E0001092390302C01382128222503040309392
:1010F000380320933703DF91CF910895FC010590C9
:10110000615070400110D8F7809590958E0F9F1F09
:101110000895DC0101C06D9341505040E0F70895FF
:10112000FC016150704001900110D8F780959095B6
:101130008E0F9F1F08950F931F93CF93DF938C0102
:10114000EB018B8181FF1BC082FF0DC02E813F818F
:101150008C819D812817390764F4E881F981019316
:10116000F983E88306C0E885F985802F0995009703
:1011700031F48E819F8101969F838E8302C00FEF91
:101180001FEFC801DF91CF911F910F910895FA01D0
:10119000AA27283051F1203181F1E8946F936E7FB6
:1011A0006E5F7F4F8F4F9F4FAF4FB1E03ED0B4E0A7
:1011B0003CD0670F781F891F9A1FA11D680F791FE8
:1011C0008A1F911DA11D6A0F711D811D911DA11DF9
:1011D00020D009F468943F912AE0269F1124301909
:1011E000305D3193DEF6CF010895462F4770405DA4
:1011F0004193B3E00FD0C9F7F6CF462F4F70405D53
:101200004A3318F0495D31FD4052419302D0A9F7AD
:10121000EACFB4E0A6959795879577956795BA95A7
:10122000C9F700976105710508959B01AC010A2E6D
:1012300006945795479537952795BA95C9F7620F44
:10124000731F841F951FA01D08952F923F924F92E8
:101250005F926F927F928F929F92AF92BF92CF9246
:10126000DF92EF92FF920F931F93CF93DF93CDB74F
:10127000DEB7CA1BDB0B0FB6F894DEBF0FBECDBFC7
:1012800009942A88398848885F846E847D848C8498
:101290009B84AA84B984C884DF80EE80FD800C81A1
:1012A0001B81AA81B981CE0FD11D0FB6F894DEBF84
:0C12B0000FBECDBFED010895F894FFCFF4
:1012BC00421453696D706C652052414D2054455356
:1012CC0054200D004C6F72656D20697073756D2024
:1012DC00646F6C6F722073697420616D65742C205F
:1012EC00636F6E7365637465747572206164697085
:1012FC00697363696E6720656C69742E0020517583
:10130C006973717565206D6F6C65737469652061A7
:10131C006363756D73616E20746F72746F7220618C
:10132C007420616363756D73616E2E20436C617301
:10133C007320617074656E742074616369746920C4
:10134C00736F63696F737175206164206C69746F5E
:10135C00726120746F727175656E74207065722085
:10136C00636F6E75626961206E6F737472612C208D
:10137C0070657220696E636570746F732068696D37
:10138C00656E61656F73206D657475732E200054E6
:10139C004F50200D00424F54544F4D200D004C45E2
:1013AC004654200D005249474854200D00524947DD
:1013BC0048545F424F54544F4D200D0052494748FA
:1013CC00545F544F50200D004C4546545F544F50C1
:1013DC00200D004C4546545F424F54544F4D200D48
:1013EC000053454E5452554D200D004212011053DE
:1013FC0074617274696E67205352414D2074657329
:10140C00742E2E2E0D005352414D206572726F7248
:10141C0020287772697465207068617365293A2099
:10142C006578745F72616D5B25645D203D202530AD
:10143C003258202873686F756C64206265202530E3
:10144C003258290D0A005352414D206572726F7249
:10145C00202872656164207068617365293A206583
:10146C0078745F72616D5B25645D203D20253032A0
:10147C0058202873686F756C6420626520253032A3
:10148C0058290D0A005352414D2074657374206322
:10149C006F6D706C65746564207769746820256461
:1014AC00206572726F727320696E20777269746531
:1014BC0020706861736520616E64202564206572FC
:1014CC00726F727320696E2072656164207068613E
:0C14DC0073650D0A0020003B03000000B7
:00000001FF
