:100000000C9426010C94CE020C94F1020C9406037D
:100010000C9443010C9443010C9443010C94430150
:100020000C9443010C9443010C9443010C94430140
:100030000C9443010C9443010C9443010C946B0306
:100040000C9443010C9443010C9443010C94430120
:100050000C9443010C9443010C9443010C94430110
:100060000C9443010C9443010C9443010C94430100
:10007000000000000000005E0000000E000E0028DE
:100080007C287C2808547C542026100864002854BE
:1000900028400000000E0000003C42000000423CEE
:1000A0000000005438540010107C101000806020B4
:1000B0000010101010000060600000201008040004
:1000C000003C423C0000447E40004462524C00220E
:1000D0004A4A360018147E10002E4A4A32003C4A22
:1000E0004A300002621A0600344A4A34000C525266
:1000F0003C00006C6C0000806C2C00000010284458
:1001000000282828280000442810000004520C0071
:100110003C425A1C007C12127C007E4A4A34003C4D
:10012000424224007E42423C007E4A4A42007E0A0D
:100130000A02003C425274007E08087E0000427EA3
:1001400042002040403E007E182442007E40404055
:10015000007E0C0C7E007E0C307E003C42423C0057
:100160007E12120C003C6242BC007E12324C002413
:100170004A52240000027E02003E40403E001E60C3
:10018000601E007E30307E006618186600000E701B
:100190000E0062524A4600007E42420004081020CF
:1001A000000042427E000004020400404040400043
:1001B000000204000030482878007E4848300030B3
:1001C000484800003048487E003068581000107CD5
:1001D00012040050A8A898007E0808700000487A11
:1001E00040000040807A007E1028400000427E409F
:1001F0000078101870007808087000304848300007
:10020000F848483000304848F80078080810005096
:1002100058682800083E48400038404078000038C0
:100220004038007860607800483030480018A040BE
:100230003800486858480000083C420000007E0032
:100240000000423C080004020402000011241FBE0A
:10025000CFEFD4E0DEBFCDBF14E0A0E0B1E0E6E038
:10026000F2E302C005900D92A430B107D9F714E073
:10027000A4E0B4E001C01D92A831B107E1F70E94EB
:100280008A040C9401190C940000DF93CF930F9211
:10029000CDB7DEB789838981882F90E081309105C1
:1002A00069F0823091051CF4009781F027C08230FC
:1002B0009105A1F083309105C9F020C08091000123
:1002C0009091010124E0FC0120831FC08091000176
:1002D0009091010125E0FC01208317C0809100016D
:1002E0009091010126E0FC0120830FC08091000164
:1002F0009091010127E0FC01208307C0809100015B
:1003000090910101FC01108200000F90CF91DF91CC
:100310000895DF93CF930F92CDB7DEB7898389819C
:100320000E9445010000809108048823E1F31092A7
:100330000804809109040F90CF91DF910895DF9315
:10034000CF9300D0CDB7DEB78A838A81882F90E023
:1003500082309105A9F08330910534F4009759F06B
:100360008130910551F015C08330910561F08430E2
:10037000910561F00EC019820CC080E2898309C02A
:1003800080E4898306C080E6898303C080E889838E
:1003900000008FE069810E94730980E660E60E9498
:1003A000730980E760E60E9473098CE260E00E94B6
:1003B00073098BE26CE10E9473090F900F90CF914B
:1003C000DF910895CF92DF92EF92FF920F931F93E8
:1003D000DF93CF93CDB7DEB72F970FB6F894DEBF7C
:1003E0000FBECDBF8C877E876D874F878AE090E0F8
:1003F0009A83898384E08B838D858C838E858D831E
:100400008F858E831F828C81682F70E08D81482FAD
:1004100050E08E81282F30E08DB79EB708970FB639
:10042000F8949EBF0FBE8DBF8DB79EB70196E2E0D8
:10043000F1E0DC01ED93FC93FC0173836283DC014A
:1004400015965C934E931497FC01378326830E9484
:10045000D2148DB79EB708960FB6F8949EBF0FBE04
:100460008DBF8C85C980DA80EB80FC800D811E8178
:100470002F81388549855A856B850E946C0B8C8548
:100480000E94B2092F960FB6F894DEBF0FBECDBF03
:10049000CF91DF911F910F91FF90EF90DF90CF9060
:1004A0000895DF93CF9300D0CDB7DEB78A8319824A
:1004B00034C0898160E00E94360799818A8198174B
:1004C000A9F447E251E08981282F30E0C901880F63
:1004D000991F820F931F880F991F880F991F880FEC
:1004E000991F840F951F0E949F0714C047E251E097
:1004F0008981282F30E0C901880F991F820F931F2F
:10050000880F991F880F991F880F991F840F951FB7
:100510000E94760789818F5F89838981833048F2C1
:100520000F900F90CF91DF910895DF93CF93CDB7C8
:10053000DEB785E590E025E530E0F901208120680F
:10054000FC012083CF91DF910895DF93CF93CDB746
:10055000DEB78EE490E02EE430E0F90120812260E5
:10056000FC01208389E590E029E530E0F901208154
:100570002068FC012083CF91DF910895DF93CF9312
:10058000CDB7DEB78EE490E02EE430E0F9012081B3
:100590002D7FFC012083CF91DF9108951F920F9250
:1005A0000FB60F9211248F939F93EF93FF93DF93D6
:1005B000CF93CDB7DEB78091000190910101FC018E
:1005C00080818093090481E080930804CF91DF91BA
:1005D000FF91EF919F918F910F900FBE0F901F9001
:1005E00018951F920F920FB60F9211248F93DF93DD
:1005F000CF93CDB7DEB781E080930704CF91DF9131
:100600008F910F900FBE0F901F9018951F920F9211
:100610000FB60F9211242F933F934F935F936F93D5
:100620007F938F939F93AF93BF93EF93FF93DF934A
:10063000CF930F92CDB7DEB78CE20E943009898349
:100640008981282F30E000D000D08DB79EB7019669
:1006500047EB51E0FC0151834083FC01338322834B
:100660000E94D2140F900F900F900F908CE260E0D8
:100670000E9473098CE20E94300989838981282FA6
:1006800030E000D000D08DB79EB701964CED51E020
:10069000FC0151834083FC01338322830E94D214E6
:1006A0000F900F900F900F9081E080930A040F90AD
:1006B000CF91DF91FF91EF91BF91AF919F918F917A
:1006C0007F916F915F914F913F912F910F900FBE4E
:1006D0000F901F9018951F920F920FB60F92112432
:1006E0008F939F93DF93CF93CDB7DEB780910404B0
:1006F00090910504019690930504809304048091E1
:100700000404909105048530910518F081E08093F0
:100710000B04CF91DF919F918F910F900FBE0F909F
:100720001F901895DF93CF93CDB7DEB781E390E0AC
:1007300021E330E0F9012081277FFC01208382E35F
:1007400090E022E330E0F90120812860FC01208361
:1007500085E590E025E530E0F90120812860FC0185
:10076000208386E590E026E530E0F90120812E7FA8
:10077000FC0120838BE590E02BE530E0F90120813E
:100780002068FC0120838BE590E02BE530E0F90147
:1007900020812064FC0120838BE590E02BE530E094
:1007A000F90120812062FC0120837894CF91DF91B0
:1007B00008950F931F93DF93CF93CDB7DEB72E9796
:1007C0000FB6F894DEBF0FBECDBF80E060E00E94A0
:1007D000360780E092E00E94760781E060E00E94A8
:1007E00036078CE092E00E94760782E060E00E948B
:1007F00036078BE192E00E94760780E090E4ACE956
:10080000B5E489839A83AB83BC8369817A818B81C8
:100810009C812AE939E949E954E40E94BD10DC01D0
:10082000CB018D839E83AF83B88711E06D817E817C
:100830008F81988520E030E040E85FE30E94171246
:1008400088230CF010E0112329F081E090E09A87D2
:10085000898746C011E06D817E818F81988520E077
:100860003FEF4FE757E40E94B71118160CF010E065
:10087000112361F169817A818B819C8120E030E0D4
:1008800040E251E40E94BD10DC01CB01BC01CD016E
:100890000E94E90EDC01CB019A87898712C08AE7A2
:1008A00090E09C878B878B859C858C01C801019784
:1008B000F1F78C011C870B8789859A8501979A87A8
:1008C000898789859A85009751F717C06D817E8148
:1008D0008F8198850E94E90EDC01CB019A87898778
:1008E00089859A859E878D878D859E858C01C80117
:1008F0000197F1F78C011E870D870E943B082E9609
:100900000FB6F894DEBF0FBECDBFCF91DF911F9120
:100910000F910895CF92DF92EF92FF920F931F9362
:10092000DF93CF93CDB7DEB7A4970FB6F894DEBFB1
:100930000FBECDBF8FE190E00E94270C8AE292E0CB
:100940000E94E7140E9495020E94A5020E94920351
:100950000E94480D0E9457050E94C2060E945E0830
:1009600080E00E949F0101C0000080910B04882359
:1009700009F443C08CE392E00E94E71410920B0448
:100980000E947C0589830E9468059B838A832A8153
:100990003B8182E0B90149810E94E2018981843072
:1009A00031F08981833019F08981813069F4809137
:1009B0000604882F90E0019723E030E0B9010E94FF
:1009C00029148093060415C08981853031F089810E
:1009D000823019F08981882361F480910604882F80
:1009E00090E0019623E030E0B9010E942914809341
:1009F0000604809106040E94510280910704882316
:100A000009F4B2CF1092070487E060E00E94360735
:100A10008DE492E00E94760780910604882F90E092
:100A20008130910571F182309105A1F10097A9F50E
:100A300087E060E00E94360786E692E00E94760733
:100A40008FE590E09B8F8A8F85E08C8F8FE48D8F70
:100A50008BE48E8F84E38F8F82E388A319A280E0DA
:100A6000CA8CDB8CEC8CFD8C0E8D1F8D28A139A1DE
:100A70004AA15BA16CA10E946C0B80E00E94B209AC
:100A800015C087E060E00E9436078BE692E00E9486
:100A900076070CC00E94D90309C087E060E00E947D
:100AA000360783E792E00E94760700005ECFDF936F
:100AB000CF93CDB7DEB780E00E94890180930C040C
:100AC00081E00E94890180930D04CF91DF91089508
:100AD000DF93CF9300D0CDB7DEB780E00E948901CD
:100AE000898381E00E9489018A8389819A810F909C
:100AF0000F90CF91DF910895DF93CF9300D0CDB7C2
:100B0000DEB70E9468059A8389838981282F30E0A7
:100B100080910C04882F90E0A901481B590BCA0151
:100B20005FEF883E95076CF18981282F30E0809136
:100B30000C04882F90E0A901481B590BCA01893188
:100B40009105FCF48A81282F30E080910D04882FD4
:100B500090E0A901481B590BCA015FEF883E950739
:100B600084F08A81282F30E080910D04882F90E056
:100B7000A901481B590BCA018931910514F488E079
:100B80007DC08981282F30E080910C04882F90E06F
:100B9000A901481B590BCA015FEF883E9507BCF0BD
:100BA0008981282F30E080910C04882F90E0A901E2
:100BB000481B590BCA01893191054CF49A818091E7
:100BC0000D04891710F484E059C085E057C08A816C
:100BD000282F30E080910D04882F90E0A901481B58
:100BE000590BCA015FEF883E9507BCF08A81282F18
:100BF00030E080910D04882F90E0A901481B590B2B
:100C0000CA01893191054CF4998180910C048917AE
:100C100010F487E033C086E031C0998180910C04E4
:100C2000981738F49A8180910D04981710F480E099
:100C300025C0998180910C04981738F49A8180918D
:100C40000D04891710F481E019C0998180910C047A
:100C5000891738F49A8180910D04981710F482E076
:100C60000DC0998180910C04891738F49A81809184
:100C70000D04891710F483E001C088E00F900F90F5
:100C8000CF91DF910895DF93CF930F92CDB7DEB769
:100C900089838981882F90E08430910501F1853026
:100CA000910584F481309105C1F1823091051CF4E5
:100CB0000097C1F141C08230910529F1833091053F
:100CC00039F13AC086309105A1F08630910564F083
:100CD0008730910599F08830910549F12DC08CE855
:100CE00092E00E94E71428C082E992E00E94E71493
:100CF00023C08BE992E00E94E7141EC082EA92E0D2
:100D00000E94E71419C08AEA92E00E94E71414C016
:100D100089EB92E00E94E7140FC085EC92E00E94FC
:100D2000E7140AC080ED92E00E94E71405C08EED42
:100D300092E00E94E71400000F90CF91DF91089598
:100D4000DF93CF930F92CDB7DEB789838091E8020E
:100D50009091E9022981FC0120830F90CF91DF91CE
:100D60000895DF93CF930F92CDB7DEB7898380913B
:100D7000EA029091EB022981FC0120830F90CF9130
:100D8000DF910895DF93CF93CDB7DEB78EEA0E944F
:100D9000B10681EA0E94B1068AED0E94B10682E1A5
:100DA0000E94B10688EC0E94B10688EA0E94B10652
:100DB0008FE30E94B10685ED0E94B10680E80E9493
:100DC000B10681E80E94B10680E50E94B10689ED76
:100DD0000E94B10681E20E94B10680E20E94B10643
:100DE00080E00E94B1068BED0E94B10680E30E9474
:100DF000B1068DEA0E94B10680E00E94B10681E250
:100E00000E94B10680E00E94B1068FE70E94B10601
:100E100082E20E94B10680E00E94B10687E00E9453
:100E2000B10680E40E94B10684EA0E94B10686EA17
:100E30000E94B1068FEA0E94B1060E943B08CF9142
:100E4000DF910895DF93CF93CDB7DEB787EA0E9495
:100E5000B106CF91DF910895DF93CF93CDB7DEB781
:100E600086EA0E94B106CF91DF910895DF93CF9378
:100E700000D0CDB7DEB789836A8381E20E94B106D4
:100E80008A81982F990F990F890F0E94B1068FE7D9
:100E90000E94B10682E20E94B10689810E94B106D9
:100EA00087E00E94B1060F900F90CF91DF910895D7
:100EB000DF93CF9300D0CDB7DEB789836A8381E219
:100EC0000E94B10689810E94B1068FE70E94B10697
:100ED00082E20E94B1068A810E94B10687E00E94E8
:100EE000B1060F900F90CF91DF910895DF93CF93CC
:100EF00000D00F92CDB7DEB79B838A8319820EC0D4
:100F00008981882F90E02A813B81820F931FFC0109
:100F100080810E94C80789818F5F89838981882F9A
:100F200090E02A813B81820F931FFC0180818823FE
:100F300039F70F900F900F90CF91DF910895DF93C5
:100F4000CF9300D00F92CDB7DEB79B838A831982EF
:100F50000EC08981882F90E02A813B81820F931FE8
:100F6000FC0180810E94010889818F5F89838981CA
:100F7000882F90E02A813B81820F931FFC018081A2
:100F8000882339F70F900F900F90CF91DF9108953C
:100F90001F93DF93CF9300D000D00F92CDB7DEB771
:100FA0008D83198222C020E730E08D81882F90E068
:100FB000AC01440F551F440F551F480F591F89811D
:100FC000882F90E0840F951F805A9040820F931FC6
:100FD0009B838A838A819B81FC0114911C838C8171
:100FE0000E94A00689818F5F898389818530D8F22C
:100FF0000F900F900F900F900F90CF91DF911F9156
:1010000008951F93DF93CF9300D000D00F92CDB7F8
:10101000DEB78D83198223C020E730E08D81882FD1
:1010200090E0AC01440F551F440F551F480F591F46
:101030008981882F90E0840F951F805A9040820FFD
:10104000931F9B838A838A819B81FC0114911C835B
:101050008C8180950E94A00689818F5F8983898118
:101060008530D0F20F900F900F900F900F90CF918E
:10107000DF911F910895DF93CF9300D0CDB7DEB7F6
:1010800080E060E00E9458071A82198208C080E060
:101090000E94A00689819A8101969A838983898119
:1010A0009A8124E08030920790F380E060E00E9413
:1010B00058070F900F90CF91DF910895DF93CF9352
:1010C000CDB7DEB787E390E020EBFC01208388E317
:1010D00090E028E330E0F90120812061FC012083C9
:1010E0008DE290E02DE230E0F90120812165FC01E4
:1010F0002083CF91DF9108950F931F93DF93CF93B8
:10110000CDB7DEB72E970FB6F894DEBF0FBECDBFBA
:1011100088E390E028E330E0F90120812F7EFC0194
:1011200020838FE290E020ECFC0120838EE290E0AF
:10113000FC0180818823D4F788E390E028E330E045
:10114000F90120812061FC01208380E090E0A0E291
:10115000B1E489839A83AB83BC8369817A818B8173
:101160009C812AE939E949E954E40E94BD10DC0177
:10117000CB018D839E83AF83B88711E06D817E8123
:101180008F81988520E030E040E85FE30E941712ED
:1011900088230CF010E0112329F081E090E09A8779
:1011A000898746C011E06D817E818F81988520E01E
:1011B0003FEF4FE757E40E94B71118160CF010E00C
:1011C000112361F169817A818B819C8120E030E07B
:1011D00040E251E40E94BD10DC01CB01BC01CD0115
:1011E0000E94E90EDC01CB019A87898712C08AE749
:1011F00090E09C878B878B859C858C01C80101972B
:10120000F1F78C011C870B8789859A8501979A874E
:10121000898789859A85009751F717C06D817E81EE
:101220008F8198850E94E90EDC01CB019A8789871E
:1012300089859A859E878D878D859E858C01F8018D
:101240003197F1F78F011E870D872E960FB6F89410
:10125000DEBF0FBECDBFCF91DF911F910F910895DB
:10126000DF93CF9300D0CDB7DEB78A8388E390E0D9
:1012700028E330E0F90120812F7EFC0120838FE2FA
:1012800090E023E0FC0120838EE290E0FC0180816D
:101290008823D4F78FE290E02A81FC0120838EE23C
:1012A00090E0FC0180818823D4F78FE290E0FC017C
:1012B00010828EE290E0FC0180818823D4F78FE2D7
:1012C00090E0FC018081898388E390E028E330E0AE
:1012D000F90120812061FC01208389810F900F900A
:1012E000CF91DF910895DF93CF9300D0CDB7DEB7D4
:1012F00089836A8388E390E028E330E0F901208164
:101300002F7EFC0120838FE290E022E0FC0120830D
:101310008EE290E0FC0180818823D4F78FE290E098
:101320002981FC0120838EE290E0FC0180818823EA
:10133000D4F78FE290E02A81FC0120838EE290E0D6
:10134000FC0180818823D4F788E390E028E330E033
:10135000F90120812061FC0120830F900F90CF9133
:10136000DF910895DF93CF930F92CDB7DEB78983D6
:1013700088E390E028E330E0F90120812F7EFC0132
:1013800020838981882F90E08130910559F0823047
:10139000910571F0009791F48FE290E021E8FC0153
:1013A00020830CC08FE290E022E8FC01208306C07D
:1013B0008FE290E024E8FC01208300008EE290E0C0
:1013C000FC0180818823D4F788E390E028E330E0B3
:1013D000F90120812061FC0120830F90CF91DF91E2
:1013E0000895DF93CF9300D00F92CDB7DEB78983F6
:1013F0006A834B8388E390E028E330E0F9012081A1
:101400002F7EFC0120838FE290E025E0FC01208309
:101410008EE290E0FC0180818823D4F78FE290E097
:101420002981FC0120838EE290E0FC0180818823E9
:10143000D4F78FE290E02A81FC0120838EE290E0D5
:10144000FC0180818823D4F78FE290E02B81FC019E
:1014500020838EE290E0FC0180818823D4F788E32A
:1014600090E028E330E0F90120812061FC01208335
:101470000F900F900F90CF91DF910895DF93CF934E
:101480000F92CDB7DEB788E390E028E330E0F901B2
:1014900020812F7EFC0120838FE290E020EAFC0176
:1014A00020838EE290E0FC0180818823D4F78FE2D4
:1014B00090E0FC0110828EE290E0FC0180818823A4
:1014C000D4F78FE290E0FC018081898388E390E08B
:1014D00028E330E0F90120812061FC01208389812B
:1014E0000F90CF91DF910895DF93CF93CDB7DEB703
:1014F0002D970FB6F894DEBF0FBECDBFAC016D8740
:1015000088E390E028E330E0F90120812F7EFC01A0
:1015100020838D85882331F48FE290E020E9FC015F
:10152000208305C08FE290E024E9FC0120838EE255
:1015300090E0FC0180818823D4F78FE290E0FC01E9
:1015400010828EE290E0FC0180818823D4F78FE244
:1015500090E0FC018081882F90E0880F991F880F10
:10156000991F880F991F9B838A838FE290E0FC016B
:1015700010828EE290E0FC0180818823D4F72A81DA
:101580003B818FE290E0FC01808182958695877097
:10159000882F90E09070822B932B9B838A838FE21D
:1015A00090E0FC0110828EE290E0FC0180818823B3
:1015B000D4F78FE290E0FC0110828EE290E0FC0113
:1015C00080818823D4F78FE290E0FC0110828EE2C4
:1015D00090E0FC0180818823D4F78FE290E0FC0149
:1015E00080818F708C8319821BC08FE290E0FC0198
:1015F00010828EE290E0FC0180818823D4F78981FB
:10160000882F90E02FE230E0F90160819E012B5F8E
:101610003F4F820F931FFC01608389818F5F898315
:101620009C818981891708F388E390E028E330E002
:10163000F90120812061FC012083CA019E012E5FF7
:101640003F4F6BE0F90100802F5F3F4FFC010082AC
:10165000019661506623B1F7CA012D960FB6F89432
:10166000DEBF0FBECDBFCF91DF910895DF93CF9343
:1016700000D0CDB7DEB78A838CE20E94300989831F
:101680008981282F30E000D000D08DB79EB7019619
:101690004CEE52E0FC0151834083FC0133832283F2
:1016A0000E94D2140F900F900F900F908A81882F74
:1016B00090E09C012E5F3F4F81E090E0022E02C03F
:1016C000880F991F0A94E2F7982F898189230F9038
:1016D0000F90CF91DF910895CF92DF92EF92FF921A
:1016E0000F931F93DF93CF93CDB7DEB72E970FB62F
:1016F000F894DEBF0FBECDBF8B83CC82DD82EE823D
:10170000FF82088719872A873B874C875D876E870A
:1017100088E390E028E330E0F90120812F7EFC018E
:1017200020838B81882329F48FE290E020E4FC0160
:1017300020838B81813031F48FE290E022E4FC0140
:10174000208305C08FE290E024E4FC0120838EE238
:1017500090E0FC0180818823D4F78C819D8196954F
:10176000879596958795969587958A838FE290E0E1
:101770002A81FC0120838EE290E0FC018081882395
:10178000D4F78C819D818295880F807E8A838FE239
:1017900090E02A81FC0120838EE290E0FC018081B0
:1017A0008823D4F78FE290E0FC0110828EE290E073
:1017B000FC0180818823D4F78FE290E0FC01108245
:1017C0008EE290E0FC0180818823D4F78FE290E0E4
:1017D0002E812F70FC0120838EE290E0FC0180813D
:1017E0008823D4F7198217C08FE290E02981222F35
:1017F00030E0AE01495F5F4F240F351FF9012081B2
:10180000FC0120838EE290E0FC0180818823D4F7E4
:1018100089818F5F89839E818981891728F388E375
:1018200090E028E330E0F90120812061FC01208371
:101830002E960FB6F894DEBF0FBECDBFCF91DF91CD
:101840001F910F91FF90EF90DF90CF900895DF935D
:10185000CF9300D0CDB7DEB79A83898380E490E040
:1018600029813A81232F3327FC01208389E290E0EC
:101870002981FC0120838AE290E028E1FC01208399
:1018800080E490E026E8FC01208389E69CE021E5E5
:101890003CE0B9010E9487140F900F90CF91DF9127
:1018A0000895DF93CF930F92CDB7DEB700008BE2A0
:1018B00090E0FC0180818823D4F78CE290E0FC0169
:1018C000808189838981882F90E00F90CF91DF916B
:1018D0000895DF93CF930F92CDB7DEB789830000D1
:1018E0008BE290E0FC018081882F90E08072907004
:1018F0000097B1F38CE290E02981FC012083000085
:101900008BE290E0FC018081882F90E080749070E1
:101910000097B1F380E090E00F90CF91DF910895B0
:101920000F931F93DF93CF93CDB7DEB72E970FB6EC
:10193000F894DEBF0FBECDBF8AE390E02FEFFC012D
:10194000208386E290E02FEFFC0120838BE390E080
:1019500025E5FC01208387E290E0FC0120812260E4
:10196000FC01208380E090E0A0E2B1E489839A83C7
:10197000AB83BC8369817A818B819C812AE939E9B7
:1019800049E954E40E94BD10DC01CB018D839E83A4
:10199000AF83B88711E06D817E818F81988520E0CB
:1019A00030E040E85FE30E94171288230CF010E05B
:1019B000112329F081E090E09A87898746C011E0E1
:1019C0006D817E818F81988520E03FEF4FE757E45E
:1019D0000E94B71118160CF010E0112361F1698113
:1019E0007A818B819C8120E030E040E251E40E94CA
:1019F000BD10DC01CB01BC01CD010E94E90EDC0170
:101A0000CB019A87898712C08AE790E09C878B87F1
:101A10008B859C858C01C8010197F1F78C011C878F
:101A20000B8789859A8501979A87898789859A8501
:101A3000009751F717C06D817E818F8198850E9434
:101A4000E90EDC01CB019A87898789859A859E8773
:101A50008D878D859E858C01F8013197F1F78F0177
:101A60001E870D8787E290E0FC0120812D7FFC011D
:101A700020838BE390E0FC0110822E960FB6F89441
:101A8000DEBF0FBECDBFCF91DF911F910F910895A3
:101A9000DF93CF93CDB7DEB729970FB6F894DEBFAB
:101AA0000FBECDBF80E098E198878F831C821B8298
:101AB0001E821D8280E193E00E94E7141A8219823F
:101AC00053C08981809589872F81388589819A8142
:101AD000820F931F2985FC0120832F8138858981FE
:101AE0009A81820F931FFC01908189859817B9F123
:101AF0002F81388589819A81820F931FFC01808113
:101B0000482F50E08985282F30E08DB79EB7089781
:101B10000FB6F8949EBF0FBE8DBF8DB79EB70196CE
:101B200067E273E0FC017183608369817A81FC0163
:101B300073836283FC0155834483FC0137832683CE
:101B40000E94D2148DB79EB708960FB6F8949EBF28
:101B50000FBE8DBF8B819C8101969C838B83898175
:101B60009A8101969A83898389819A81E8E08030FD
:101B70009E0708F4A6CF1A8219824AC089818095EF
:101B800089872F81388589819A81820F931FFC0173
:101B9000908189859817B9F12F81388589819A813B
:101BA000820F931FFC018081482F50E08985282FE8
:101BB00030E08DB79EB708970FB6F8949EBF0FBE62
:101BC0008DBF8DB79EB7019667E673E0FC01718308
:101BD000608369817A81FC0173836283FC01558390
:101BE0004483FC01378326830E94D2148DB79EB7AD
:101BF00008960FB6F8949EBF0FBE8DBF8D819E8153
:101C000001969E838D8389819A8101969A83898327
:101C100089819A81E8E080309E0708F4AFCF00D038
:101C200000D000D08DB79EB7019626EA33E0FC01C4
:101C3000318320832B813C81FC01338322832D81DE
:101C40003E81FC01358324830E94D2148DB79EB758
:101C500006960FB6F8949EBF0FBE8DBF29960FB69D
:101C6000F894DEBF0FBECDBFCF91DF9108950F93E3
:101C70001F93DF93CF93CDB7DEB764970FB6F89479
:101C8000DEBF0FBECDBF9A8B898B7C8B6B8B898916
:101C90009A899A8389838AC089819A8122E4FC0186
:101CA000208389819A8101969A83898380E090E0DC
:101CB000A0E2B1E48B839C83AD83BE836B817C8186
:101CC0008D819E812AE939E949E954E40E94BD10D9
:101CD000DC01CB018F839887A987BA8711E06F81D8
:101CE000788589859A8520E030E040E85FE30E94AE
:101CF000171288230CF010E0112329F081E090E006
:101D00009C878B8746C011E06F81788589859A858D
:101D100020E03FEF4FE757E40E94B71118160CF090
:101D200010E0112361F16B817C818D819E8120E027
:101D300030E040E251E40E94BD10DC01CB01BC0167
:101D4000CD010E94E90EDC01CB019C878B8712C07C
:101D50008AE790E09E878D878D859E858C01C801DE
:101D60000197F1F78C011E870D878B859C85019764
:101D70009C878B878B859C85009751F717C06F8157
:101D8000788589859A850E94E90EDC01CB019C87C4
:101D90008B878B859C85988B8F878F8598898C0105
:101DA000F8013197F1F78F01188B0F878B899C8988
:101DB00029813A812817390709F06ECF64960FB64A
:101DC000F894DEBF0FBECDBFCF91DF911F910F9171
:101DD0000895EF92FF920F931F937B018C0120E0F7
:101DE00030E040E05FE40E94E71187FD11C0C801C8
:101DF000B70120E030E040E05FE40E948C100E94D8
:101E000047129B01AC01205030404040504806C072
:101E1000C801B7010E9447129B01AC01B901CA0178
:101E20001F910F91FF90EF900895A0E0B0E0EBE1DB
:101E3000FFE00C945414FC01EA018081823008F424
:101E400038C1DB019C91923008F430C1843059F4E0
:101E5000943009F02EC1918111968C9111979817A9
:101E600009F021C126C1943009F420C19230B1F4A7
:101E7000823009F01EC1CA01AF0128E0DA010D90DD
:101E8000AD01DC010D92CD012150C1F7DB011196AE
:101E90008C9111979181892389830AC1823009F439
:101EA00005C1C280D380DB0112966D907C901397A0
:101EB00024813581468157811496ED90FD900D91D6
:101EC0001C911797C601861997095C0197FF04C0FA
:101ED000AA24BB24A81AB90AB0E2AB16B1040CF0CC
:101EE00061C0181619066CF5370148010A2C04C0A8
:101EF00096948794779467940A94D2F781E090E05F
:101F0000A0E0B0E00A2C04C0880F991FAA1FBB1FD5
:101F10000A94D2F70197A109B1098E219F21A0232C
:101F2000B123EE24FF248701E3940097A105B105B6
:101F300019F4EE24FF248701E628F7280829192937
:101F40003CC00097D1F1CA0CDB1C39014A010A2CB4
:101F500004C096948794779467940A94D2F781E0AA
:101F600090E0A0E0B0E00A2C04C0880F991FAA1FDF
:101F7000BB1F0A94D2F70197A109B10982239323C9
:101F8000A423B52321E030E040E050E00097A10514
:101F9000B10519F420E030E0A901262937294829A4
:101FA00059290BC06C147D0424F4EE24FF2487010E
:101FB00004C0630120E030E0A9018181FB0191812F
:101FC000891709F445C0882349F0D801C701821B4D
:101FD000930BA40BB50B9C01AD0104C02E193F0956
:101FE000400B510B57FD04C01982DB82CA820BC023
:101FF00081E08983DB82CA82509540953095219596
:102000003F4F4F4F5F4F2C833D834E835F830DC007
:10201000880F991FAA1FBB1F8C839D83AE83BF832C
:102020008A819B8101979B838A838C819D81AE816C
:10203000BF819C01AD0121503040404050402F3FB6
:10204000EFEF3E07EFEF4E07EFE35E0708F30BC03D
:102050008983DB82CA822E0D3F1D401F511F2C83B6
:102060003D834E835F8383E088832C813D814E8155
:102070005F8157FF1DC0DA01C90181709070A070A7
:10208000B0705695479537952795822B932BA42BA7
:10209000B52B8C839D83AE83BF838A819B81019600
:1020A0009B838A8305C0E6EFF3E003C0FB0101C018
:1020B000FE01CF01CDB7DEB7EEE00C947014A0E2C4
:1020C000B0E0E5E6F0E10C945C1469837A838B83DD
:1020D0009C832D833E834F83588789E0E82EF12C23
:1020E000EC0EFD1ECE010196B7010E9467138E0112
:1020F0000F5E1F4FCE010596B8010E946713C701FE
:10210000B801AE01475E5F4F0E94150F0E94991201
:10211000A096E6E00C947814A0E2B0E0E2E9F0E1E9
:102120000C945C1469837A838B839C832D833E8318
:102130004F8358878E01075F1F4FCE010196B8016C
:102140000E94671391E1E92EF12CEC0EFD1ECE01E9
:102150000596B7010E9467138A8991E089278A8BC7
:10216000C801B701AE01475E5F4F0E94150F0E9484
:102170009912A096E6E00C947814A0E2B0E0E3ECAB
:10218000F0E10C94501469837A838B839C832D83B4
:102190003E834F835887CE010196BE01675F7F4F14
:1021A0000E946713CE010596BE016F5E7F4F0E94AD
:1021B00067139985923078F089898230C0F0943025
:1021C00019F4823041F4CBC0843019F4923079F4A0
:1021D000C6C0923051F481E02A859A89291709F402
:1021E00080E08A87CE010996BCC0823051F481E03C
:1021F0002A859A89291709F480E08A8BCE014196B5
:10220000B0C06D847E848F849888ED88FE880F89A5
:10221000188DE0E2F0E080E090E0DC01AA24BB242D
:10222000650120E030E0A901B301617070706115B3
:102230007105D1F02E0D3F1D401F511F15012601C4
:10224000280E391E4A1E5B1E81E090E0A0E0B0E03F
:102250002E153F054007510718F080E090E0DC01A3
:10226000820D931DA41DB51DAA0CBB1CCC1CDD1C2E
:1022700017FF09C061E0262E312C412C512CA228D9
:10228000B328C428D528319749F0EE0CFF1C001F55
:10229000111F9694879477946794C6CF6B897C8935
:1022A000EB85FC856E0F7F1F6E5F7F4F7C8F6B8F82
:1022B00061E0EA857A89E71709F460E06A8F6B8D3F
:1022C0007C8D10C0FC01E170F070309729F05695BC
:1022D0004795379527955068B695A7959795879513
:1022E0006F5F7F4FB7FDEECF0CC0880F991FAA1FFD
:1022F000BB1F57FD8160220F331F441F551F6150C4
:1023000070408030E0E09E07E0E0AE07E0E4BE070A
:1023100060F36B8F7C8F6FE7E62EF12C012D112D72
:10232000E822F9220A231B2360E4E616F1040105E2
:10233000110561F487FD0AC02115310541055105DC
:1023400029F0805C9F4FAF4FBF4F80788D8F9E8F5D
:10235000AF8FB8A383E0898FCE01499602C086EF84
:1023600093E00E949912A096E2E10C946C14A8E10B
:10237000B0E0EDEBF1E10C945C1469837A838B831C
:102380009C832D833E834F8358878E01075F1F4FA9
:10239000CE010196B8010E94671381E1E82EF12C6D
:1023A000EC0EFD1ECE010596B7010E9467138985CC
:1023B000823040F08989823028F0C801B7010E943C
:1023C000D01301C08FEF6896E6E00C947814A8E172
:1023D000B0E0EDEEF1E10C945C1469837A838B83B9
:1023E0009C832D833E834F8358878E01075F1F4F49
:1023F000CE010196B8010E94671381E1E82EF12C0D
:10240000EC0EFD1ECE010596B7010E94671389856B
:10241000823040F08989823028F0C801B7010E94DB
:10242000D01301C08FEF6896E6E00C947814A8E111
:10243000B0E0EDE1F2E10C945C1469837A838B8364
:102440009C832D833E834F8358878E01075F1F4FE8
:10245000CE010196B8010E94671381E1E82EF12CAC
:10246000EC0EFD1ECE010596B7010E94671389850B
:10247000823040F08989823028F0C801B7010E947B
:10248000D01301C081E06896E6E00C947814ACE0CB
:10249000B0E0EDE4F2E10C94601469837A838B83FD
:1024A0009C83CE010196BE016B5F7F4F0E94671334
:1024B0008D81823081F1823070F1843021F48E81FF
:1024C000882369F10AC02F81388537FD24C06E81C9
:1024D0002F3131053CF0662311F120E030E040E07F
:1024E00050E821C08EE190E0821B930B29853A854C
:1024F0004B855C8504C056954795379527958A95F9
:10250000D2F7662381F050954095309521953F4F45
:102510004F4F5F4F08C020E030E0A90104C02FEF0B
:102520003FEF4FEF5FE7B901CA012C96E2E00C9450
:102530007C14EF92FF920F931F93CF93DF93FC01D4
:10254000248135814681578161818081823020F4E8
:102550004061EFEFF0E0A3C0843009F49BC082300B
:1025600009F492C0211531054105510509F48FC0C8
:102570000280F381E02D8FEFE238F8070CF05AC0AB
:10258000C2E8DFEFCE1BDF0BCA31D1056CF5790154
:102590008A010C2E04C016950795F794E7940A94C7
:1025A000D2F781E090E0A0E0B0E00C2E04C0880FEC
:1025B000991FAA1FBB1F0A94D2F70197A109B1095D
:1025C00082239323A423B52321E030E040E050E0B0
:1025D0000097A105B10519F420E030E0A9012E29EA
:1025E0003F29402B512B03C020E030E0A901DA0144
:1025F000C9018F779070A070B07080349105A105EB
:10260000B10539F427FF09C0205C3F4F4F4F5F4FA2
:1026100004C0215C3F4F4F4F5F4FE1E0F0E02030BE
:1026200080E0380780E0480780E4580728F5E0E0BC
:10263000F0E022C0E038F1056CF5E158FF4FDA0117
:10264000C9018F779070A070B07080349105A1059A
:10265000B10539F427FF09C0205C3F4F4F4F5F4F52
:1026600004C0215C3F4F4F4F5F4F57FF05C0569549
:10267000479537952795319687E056954795379535
:1026800027958A95D1F70BC0E0E0F0E005C0E0E0C7
:10269000F0E005C0EFEFF0E020E030E0A9018E2F80
:1026A000879588278795942F9F77679566276795E5
:1026B000E695E22EA92FA82BFE2FF62B622F732F63
:1026C0008A2F9F2FCDB7DEB7E6E00C947814DC019B
:1026D000FB012C9111963C91119712968C911297B7
:1026E000482F4F7750E0982F991F9927991F1396DD
:1026F0006C911397862F880F892B90E0661F6627B1
:10270000661F6183009739F5211531054105510593
:1027100011F482E029C082E89FEF9383828367E00F
:10272000220F331F441F551F6A95D1F783E0808322
:1027300009C0220F331F441F551F828193810197C7
:1027400093838283203080E0380780E0480780E46C
:10275000580778F320C08F3F910579F42115310592
:102760004105510519F484E08083089544FF03C0B6
:1027700081E0808310C010820EC08F5790409383F9
:10278000828383E0808387E0220F331F441F551F1D
:102790008A95D1F7506424833583468357830895FF
:1027A000FC01DB019081923008F449C08C918230A9
:1027B00008F445C0943051F461818430B1F511962C
:1027C0002C91119730E0261B310941C0843021F053
:1027D000923041F48230B1F111968C911197882397
:1027E000A1F12DC06181823001F111968C91119778
:1027F0006817D9F42281338112968D919C91139799
:102800008217930794F028173907BCF0248135818B
:102810004681578114968D919D910D90BC91A02D6C
:1028200082179307A407B50718F4662341F00DC07B
:10283000281739074A075B0728F4662331F021E09F
:1028400030E005C020E030E002C02FEF3FEFC901CB
:10285000089597FB092E07260AD077FD04D00CD0E7
:1028600006D000201AF4709561957F4F0895F6F711
:10287000909581959F4F0895AA1BBB1B51E107C0FE
:10288000AA1FBB1FA617B70710F0A61BB70B881F00
:10289000991F5A95A9F780959095BC01CD0108958F
:1028A0002F923F924F925F926F927F928F929F9260
:1028B000AF92BF92CF92DF92EF92FF920F931F934E
:1028C000CF93DF93CDB7DEB7CA1BDB0B0FB6F894FF
:1028D000DEBF0FBECDBF09942A88398848885F843F
:1028E0006E847D848C849B84AA84B984C884DF80B0
:1028F000EE80FD800C811B81AA81B981CE0FD11D94
:102900000FB6F894DEBF0FBECDBFED0108950F9353
:102910001F93CF93DF938C01EB01009711F4209765
:10292000C9F181E090E06EE070E00E940317FC01C5
:102930009C01009789F180E88383209771F0D38709
:10294000C28781E8838380910E0490910F040097E1
:1029500021F4F0930F04E0930E0401151105E1F04A
:102960001187008783818260838380911004909116
:102970001104009789F4F0931104E09310048091FE
:10298000120490911304009739F4F0931304E09328
:10299000120402C020E030E0C901DF91CF911F9105
:1029A0000F910895A0E0B0E0E8EDF4E10C9460141C
:1029B000FE013596619171918091100490911104FE
:1029C000AF010E941C152096E2E00C947C14EF925B
:1029D000FF920F931F93CF93DF938C01E09110042C
:1029E000F0911104838181FF1FC0C0E0D0E00AC0D4
:1029F000DB011896ED91FC9119970995009711F05C
:102A0000CFEFDFEFF80181918F0160911004709199
:102A10001104882369F7DB011896ED91FC91199751
:102A20008AE00995009711F0CFEFDFEFCE01CDB727
:102A3000DEB7E6E00C947814ACE0B0E0E2E2F5E159
:102A40000C9450146C011B018A01FC011782168240
:102A5000838181FFD1C12E010894411C511CF601D4
:102A60009381F10193FD859193FF81911F0188234B
:102A700009F4BEC1853239F493FD859193FF8191AC
:102A80001F01853229F490E0B6010E947718E7CF44
:102A9000EE24FF2420E02032B0F48B3269F08C3237
:102AA00028F4803251F0833271F40BC08D3239F04A
:102AB000803349F421602CC02260246029C0286042
:102AC00027C0206125C027FD2CC0382F30533A3055
:102AD00098F426FF08C08E2D880FE82EEE0CEE0C21
:102AE000E80EE30E15C08F2D880FF82EFF0CFF0C9B
:102AF000F80EF30E20620CC08E3221F426FD78C150
:102B0000206406C08C3611F4206802C0883649F46F
:102B1000F10193FD859193FF81911F01882309F0B5
:102B2000BACF982F9554933018F09052933028F4E0
:102B30000C5F1F4FFFE3F9830DC0833631F08337FD
:102B400071F0833509F060C022C0F801808189836B
:102B50000E5F1F4F420171E0A72EB12C16C062E03C
:102B6000662E712C600E711EF8018080918026FF08
:102B700003C06E2D70E002C06FEF7FEFC4012C87A1
:102B80000E946C185C0183012C852F7717C052E0DE
:102B9000652E712C600E711EF8018080918026FFD9
:102BA00003C06E2D70E002C06FEF7FEFC4012C8771
:102BB0000E945A185C012C852068830123FD20C0E7
:102BC00008C080E290E0B6012C870E947718FA9442
:102BD0002C858F2D90E0A816B90698F311C0F4014A
:102BE00027FD859127FF81914F0190E0B6012C8749
:102BF0000E9477182C85F110FA940894A108B10866
:102C0000A114B10461F7F1C0843611F0893649F599
:102C100027FF08C0F80160817181828193810C5F78
:102C20001F4F09C0F80160817181882777FD809569
:102C3000982F0E5F1F4F4FE6B42EB22297FF09C0A8
:102C400090958095709561957F4F8F4F9F4FF0E8DD
:102C5000BF2AA2012AE030E00E94A318782E74183F
:102C600045C0853731F43FEEB32EB2222AE030E082
:102C700025C099EFB92EB2228F36C1F0803720F4EB
:102C8000883509F0B5C00DC0803721F0883709F0CC
:102C9000AFC002C020E1B22AB4FE0BC084E0B82A63
:102CA00008C0B4FE09C0E6E0BE2A06C028E030E055
:102CB00005C020E130E002C020E132E0B7FE08C0EC
:102CC000F80160817181828193810C5F1F4F07C081
:102CD000F8016081718180E090E00E5F1F4FA201DA
:102CE0000E94A318782E7418FFE7BF22B6FE0BC00F
:102CF0002EEFB2227E1438F4B4FE07C0B2FC05C039
:102D00008FEEB82202C0A72C01C0AE2C8B2D90E014
:102D1000B4FE0DC0FE01E70DF11D2081203319F432
:102D2000E9EEBE2209C0A394B2FE06C004C08678B4
:102D30009070009709F0A3948B2C9924B3FC14C0D5
:102D4000B0FE0FC0AF1428F4E72CEF0CEA18AF2C3C
:102D500008C0E72C06C080E290E0B6010E94771818
:102D6000A394AF14C0F304C0AF1410F4FA1801C058
:102D7000FF2484FE0FC080E390E0B6010E94771824
:102D800082FE1FC081FE03C088E590E010C088E786
:102D900090E00DC0C40186789070009791F081FC9E
:102DA00002C080E201C08BE2B7FC8DE290E0B60188
:102DB0000E94771806C080E390E0B6010E94771861
:102DC000EA947E14C0F37A94F201E70DF11D80813C
:102DD00090E0B6010E9477187720A9F706C080E23C
:102DE00090E0B6010E947718FA94FF20C1F737CE21
:102DF000F6012681378102C02FEF3FEFC9012C96E3
:102E0000E2E10C946C14EF92FF920F931F93CF9317
:102E1000DF93689F8001699F100D789F100D11242A
:102E2000C8010E942717E82EE7017E01F92EE7016D
:102E3000209731F08E2D60E070E0A8010E946518A7
:102E40007E01CE01CDB7DEB7E6E00C947814CF93C7
:102E5000DF938230910510F482E090E0E091160457
:102E6000F091170440E050E020E030E026C060819F
:102E7000718168177907E0F06817790781F482811A
:102E800093812115310531F0D90113969C938E93CE
:102E900012972BC0909317048093160426C04115F7
:102EA000510519F06417750718F4AB01E901DF014A
:102EB0009F0172816381E72FF62F3097C1F641158C
:102EC000510501F1481B590B4430510580F412960D
:102ED0008D919C911397209719F09B838A8304C04E
:102EE0009093170480931604FD01329646C0FD01AD
:102EF000E40FF51F819391934250504011965C93DB
:102F00004E933BC0209114043091150421153105D6
:102F100041F4209100043091010430931504209372
:102F2000140420910204309103042115310541F469
:102F30002DB73EB74091FE035091FF03241B350B84
:102F4000E0911404F0911504E217F307A0F42E1B8E
:102F50003F0B2817390778F0AC014E5F5F4F2417FD
:102F6000350748F04E0F5F1F50931504409314042B
:102F70008193919302C0E0E0F0E0CF01DF91CF9127
:102F80000895CF93DF93009709F491C0FC01329725
:102F900013821282609116047091170461157105F5
:102FA00081F420813181280F391F80911404909180
:102FB00015048217930799F5F0931504E093140410
:102FC00076C0DB0180E090E002C0CD01D901AE17F0
:102FD000BF0748F412962D913C91139721153105A6
:102FE000A1F7CD0121C0B383A283EF01499159918B
:102FF0009E01240F351FA217B30779F42D913C9140
:103000001197240F351F2E5F3F4F31832083129677
:103010002D913C91139733832283009729F4F093E9
:103020001704E093160443C0DC011396FC93EE935F
:1030300012974D915D91A40FB51FEA17FB0769F434
:1030400020813181240F351F2E5F3F4FEC013983E2
:103050002883228133813B832A83E0E0F0E002C0B1
:10306000FB01BC01DB0112968D919C911397009797
:10307000B9F79B012E5F3F4F8D919C911197820F65
:10308000931F40911404509115044817590779F47F
:10309000309729F4109217041092160402C013827C
:1030A0001282225030403093150420931404DF9193
:1030B000CF910895FC010590615070400110D8F740
:1030C000809590958E0F9F1F0895DC0101C06D9330
:1030D00041505040E0F70895FC016150704001906C
:1030E0000110D8F7809590958E0F9F1F08950F932C
:1030F0001F93CF93DF938C01EB018B8181FF1BC06A
:1031000082FF0DC02E813F818C819D812817390758
:1031100064F4E881F9810193F983E88306C0E885C6
:10312000F985802F0995009731F48E819F81019652
:103130009F838E8302C00FEF1FEFC801DF91CF91F5
:103140001F910F910895FA01AA27283051F12031DB
:1031500081F1E8946F936E7F6E5F7F4F8F4F9F4F2B
:10316000AF4FB1E03ED0B4E03CD0670F781F891F6D
:103170009A1FA11D680F791F8A1F911DA11D6A0F3B
:10318000711D811D911DA11D20D009F468943F91EE
:103190002AE0269F11243019305D3193DEF6CF01ED
:1031A0000895462F4770405D4193B3E00FD0C9F7B3
:1031B000F6CF462F4F70405D4A3318F0495D31FD20
:1031C0004052419302D0A9F7EACFB4E0A695979573
:1031D000879577956795BA95C9F700976105710549
:1031E00008959B01AC010A2E069457954795379593
:1031F0002795BA95C9F7620F731F841F951FA01DED
:063200000895F894FFCFD1
:1032060000144A6F7920583A2025642C204A6F7999
:1032160020593A202564204A6F793A20506F733A34
:10322600202564200D0A00506C6179000000000022
:103236000000000000000000000000000000004F39
:103246007074696F6E7300000000000000000000DB
:103256000000000000000048656C700000000000DF
:103266000000000000000000000000000000000058
:103276000000000000000000000000000000000048
:103286000000000000000000000000000000000038
:103296000000000000000000000000000000000028
:1032A6000000000000000000000000000000000018
:1032B600000000000000004265666F726520436CE6
:1032C600656172696E673A20494E54467320696E8D
:1032D600204D43503A202558200D0A00416674655A
:1032E6007220436C656172696E673A20494E544696
:1032F6007320696E204D43503A202558200D0A0050
:103306004E6565642068656C70203F0054727920B4
:10331600676F6F676C65202E2E2E006F72206275A8
:1033260079206D6520626565720053696D706C6504
:103336002052414D2054455354200D00526561647E
:10334600696E6720636F6E74726F6C200020202098
:103356002020202020202020202020202020202067
:10336600202020202000504C4159004F5054494FF6
:103376004E5300537469636B20746F207468652024
:103386004F5054494F4E532021212100544F502075
:103396000D00424F54544F4D200D004C45465420CD
:1033A6000D005249474854200D0052494748545F82
:1033B600424F54544F4D200D0052494748545F54D4
:1033C6004F50200D004C4546545F544F50200D0081
:1033D6004C4546545F424F54544F4D200D005345C3
:1033E6004E5452554D200D0042120110467265652D
:1033F600646F6D20666F72207468652062756666FC
:10340600657220212121212120307825580D0A00BE
:103416005374617274696E67205352414D2074650E
:1034260073742E2E2E0D005352414D206572726F0D
:103436007220287772697465207068617365293A0D
:10344600206578745F72616D5B25645D203D202583
:10345600303258202873686F756C642062652025A9
:10346600303258290D0A005352414D206572726F51
:1034760072202872656164207068617365293A203C
:103486006578745F72616D5B25645D203D20253033
:103496003258202873686F756C6420626520253069
:1034A6003258290D0A005352414D20746573742019
:1034B600636F6D706C657465642077697468202528
:1034C60064206572726F727320696E2077726974F8
:1034D6006520706861736520616E642025642065CF
:1034E60072726F727320696E2072656164207068F3
:1034F6006173650D0A000000000000000000200056
:0435060018040000A5
:00000001FF
