:100000000C9446000C9465000C9465000C946500FB
:100010000C9465000C9453010C9465000C946500DD
:100020000C9465000C9465000C9465000C946500BC
:100030000C9465000C9465000C9465000C946500AC
:100040000C9465000C9465000C9465000C9465009C
:100050000C9465000C943E010C9465000C946500B2
:100060000C9465000C9465000C9465000C9465007C
:100070000C9465000C9465000C9465000C9465006C
:100080000C9465000C9465000C94650011241FBE4F
:10009000CFEFD0E1DEBFCDBF12E0A0E0B1E0ECE4F5
:1000A000F5E200E00BBF02C007900D92A836B10741
:1000B000D9F712E0A8E6B2E001C01D92A737B10758
:1000C000E1F70E94FE010C94A4120C940000DF934F
:1000D000CF93CDB7DEB787E290E027E230E0F901B9
:1000E0002081206CFC01208386E290E026E230E053
:1000F000F90120812868FC01208381E690E021E657
:1001000030E0F90120812E7FFC012083CF91DF9127
:100110000895DF93CF9300D0CDB7DEB786E290E0AD
:1001200026E230E0F90120812064FC0120830000F8
:10013000809168028823E1F31092680284E290E0E3
:10014000FC01808191819A83898389819A810F90B2
:100150000F90CF91DF910895DF93CF9300D000D01F
:10016000CDB7DEB78C831B821A8219820BC00E9426
:1001700089002A813B81820F931F9B838A83898117
:100180008F5F898399818C81981788F38C81282FC0
:1001900030E08A819B81B9010E94A30D9B013B83C2
:1001A0002A8380916902882391F48A819B818A3015
:1001B00091056CF480916A0290916B020196909384
:1001C0006B0280936A0281E0809369020BC0809188
:1001D0006902882339F08A819B818A30910514F065
:1001E000109269028A819B810F900F900F900F905F
:1001F000CF91DF910895DF93CF9300D0CDB7DEB7D5
:100200008A838A81882F90E082309105A9F083301B
:10021000910534F4009759F08130910551F015C0E3
:100220008330910561F08430910561F00EC0198230
:100230000CC080E2898309C080E4898306C080E61F
:10024000898303C080E8898300008FE069810E9470
:10025000C20480E660E60E94C20480E760E60E9475
:10026000C2048CE260E00E94C2048BE26FE10E9453
:10027000C2040F900F90CF91DF9108951F920F92BB
:100280000FB60F9211248F93DF93CF93CDB7DEB7C4
:1002900081E080936802CF91DF918F910F900FBE24
:1002A0000F901F9018951F920F920FB60F9200900B
:1002B0005B000F9211242F933F934F935F936F93A3
:1002C0007F938F939F93AF93BF93EF93FF93DF93AE
:1002D000CF930F92CDB7DEB78CE20E947F04898363
:1002E0008CE260E00E94C2048981882F90E08170D6
:1002F0009070882329F080916C02816080936C0259
:100300008981882F90E082709070009729F0809109
:100310006C02826080936C028981882F90E08470E7
:100320009070009729F080916C02846080936C0239
:100330008981882F90E088709070009729F08091D3
:100340006C02886080936C028981882F90E08071B4
:100350009070009729F080916C02806180936C020C
:100360000F90CF91DF91FF91EF91BF91AF919F914E
:100370008F917F916F915F914F913F912F910F904E
:1003800000925B000F900FBE0F901F901895DF93A7
:10039000CF93CDB7DEB782E290E022E230E0F90100
:1003A00020812F7EFC01208382E390E022E330E075
:1003B000F90120812061FC0120838AE590E02AE593
:1003C00030E0F90120812260FC0120838AE590E081
:1003D0002AE530E0F90120812E7FFC01208389E5A8
:1003E00090E029E530E0F90120812061FC012083C3
:1003F0000E9467007894CF91DF9108950F931F9327
:10040000DF93CF93CDB7DEB7C854D0400FB6F89482
:10041000DEBF0FBECDBF8BE190E00E9440070E947F
:10042000C7010E94AD0380E091E00E945E0E0E9431
:10043000CB0380E00E94FB008CE261E00E94C204DA
:10044000198280E090E0A0EAB0E48A839B83AC83C9
:10045000BD836A817B818C819D8120E030E04AE709
:1004600054E40E947D09DC01CB018E839F83A88721
:10047000B98711E06E817F818885998520E030E021
:1004800040E85FE30E94D70A88230CF010E01123B4
:1004900029F081E090E09B878A8746C011E06E8159
:1004A0007F818885998520E03FEF4FE757E40E94E0
:1004B000770A18160CF010E0112361F16A817B8134
:1004C0008C819D8120E030E040E251E40E947D0972
:1004D000DC01CB01BC01CD010E94A907DC01CB01ED
:1004E0009B878A8712C084E690E09D878C878C85E5
:1004F0009D858C01C8010197F1F78C011D870C8740
:100500008A859B8501979B878A878A859B8500972B
:1005100051F717C06E817F81888599850E94A90750
:10052000DC01CB019B878A878A859B859F878E8785
:100530008E859F858C01F8013197F1F78F011F8718
:100540000E870E942C0301C0000080916C02882F4E
:1005500090E0817090708823E9F080916C028E7F2A
:1005600080936C02CE01869660E00E94C305CE01A6
:10057000CC969E012A5D3F4F4BE0F90100802F5F32
:100580003F4FFC010082019641504423B1F781E0C6
:10059000898324C080916C02882F90E082709070D3
:1005A0000097E1F080916C028D7F80936C02CE0108
:1005B000C19661E00E94C305CE01CC969E012F5CDE
:1005C0003F4F4BE0F90100802F5F3F4FFC0100825D
:1005D000019641504423B1F781E0898389818823C2
:1005E00079F08CAD9DAD8A30910529F419828FADDB
:1005F0000E945C0305C019828FAD0E945C0300005D
:1006000085E00E94AC009C01CE01895B9F4FFC01FC
:1006100031832083CE01895B9F4FFC0180819181D2
:100620008A3091050CF090CF20916A0230916B02D4
:1006300000D000D08DB79EB7019649E451E0FC018F
:1006400051834083FC01338322830E944C0E0F9020
:100650000F900F900F9079CFDF93CF93CDB7DEB788
:1006600086E490E020EA38E2FC013183208388E4CC
:1006700090E020E033E0FC01318320838FE490E0C0
:100680002FE430E0F90120812262FC0120838EE416
:1006900090E02EE430E0F90120812A61FC01208302
:1006A00087E390E027E330E0F90120812066FC0138
:1006B0002083CF91DF910895DF93CF9300D00F92E5
:1006C000CDB7DEB78B838B81882F90E0AA2797FD6B
:1006D000A095BA2FBC01CD010E94070BDC01CB0114
:1006E000BC01CD012AE939E949E150E40E947D09C4
:1006F000DC01CB01BC01CD0120E030E846EE53E443
:100700000E941F09DC01CB01BC01CD010E94670BD7
:10071000DC01CB019A83898389819A8121E08D3C18
:10072000920724F48DEC91E09A83898389819A81E0
:10073000E4E084339E0724F083E394E09A83898382
:1007400088E490E029813A81FC01318320830F9075
:100750000F900F90CF91DF910895DF93CF93CDB796
:10076000DEB787E390E027E0FC01208388E390E098
:1007700028E330E0F90120812160FC0120838DE233
:1007800090E02DE230E0F90120812165FC01208319
:10079000CF91DF9108950F931F93DF93CF93CDB740
:1007A000DEB72E970FB6F894DEBF0FBECDBF88E33D
:1007B00090E028E330E0F90120812E7FFC012083C6
:1007C0008FE290E020ECFC0120838EE290E0FC01BF
:1007D00080818823D4F788E390E028E330E0F901B2
:1007E00020812160FC01208380E090E0A0E2B1E460
:1007F00089839A83AB83BC8369817A818B819C8155
:1008000020E030E04AE754E40E947D09DC01CB019E
:100810008D839E83AF83B88711E06D817E818F8148
:10082000988520E030E040E85FE30E94D70A882303
:100830000CF010E0112329F081E090E09A8789877D
:1008400046C011E06D817E818F81988520E03FEF69
:100850004FE757E40E94770A18160CF010E01123B6
:1008600061F169817A818B819C8120E030E040E2F6
:1008700051E40E947D09DC01CB01BC01CD010E9445
:10088000A907DC01CB019A87898712C084E690E032
:100890009C878B878B859C858C01C8010197F1F71C
:1008A0008C011C870B8789859A8501979A87898790
:1008B00089859A85009751F717C06D817E818F8158
:1008C00098850E94A907DC01CB019A8789878985D1
:1008D0009A859E878D878D859E858C01F80131973D
:1008E000F1F78F011E870D872E960FB6F894DEBFA5
:1008F0000FBECDBFCF91DF911F910F910895DF9370
:10090000CF9300D0CDB7DEB78A8388E390E028E3A9
:1009100030E0F90120812E7FFC0120838FE290E0FE
:1009200023E0FC0120838EE290E0FC01808188239B
:10093000D4F78FE290E02A81FC0120838EE290E0E0
:10094000FC0180818823D4F78FE290E0FC011082C3
:100950008EE290E0FC0180818823D4F78FE290E062
:10096000FC018081898388E390E028E330E0F9018D
:1009700020812160FC01208389810F900F90CF910D
:10098000DF910895DF93CF9300D0CDB7DEB7898391
:100990006A8388E390E028E330E0F90120812E7F2C
:1009A000FC0120838FE290E022E0FC0120838EE2B4
:1009B00090E0FC0180818823D4F78FE290E02981C8
:1009C000FC0120838EE290E0FC0180818823D4F733
:1009D0008FE290E02A81FC0120838EE290E0FC010E
:1009E00080818823D4F788E390E028E330E0F901A0
:1009F00020812160FC0120830F900F90CF91DF9127
:100A00000895DF93CF930F92CDB7DEB7898388E344
:100A100090E028E330E0F90120812E7FFC01208363
:100A20008981882F90E08130910559F082309105BD
:100A300071F0009791F48FE290E021E8FC012083AF
:100A40000CC08FE290E022E8FC01208306C08FE218
:100A500090E024E8FC01208300008EE290E0FC019D
:100A600080818823D4F788E390E028E330E0F9011F
:100A700020812160FC0120830F90CF91DF910895A8
:100A8000DF93CF9300D00F92CDB7DEB789836A830F
:100A90004B8388E390E028E330E0F90120812E7F4A
:100AA000FC0120838FE290E025E0FC0120838EE2B0
:100AB00090E0FC0180818823D4F78FE290E02981C7
:100AC000FC0120838EE290E0FC0180818823D4F732
:100AD0008FE290E02A81FC0120838EE290E0FC010D
:100AE00080818823D4F78FE290E02B81FC01208362
:100AF0008EE290E0FC0180818823D4F788E390E0C7
:100B000028E330E0F90120812160FC0120830F906F
:100B10000F900F90CF91DF910895DF93CF930F92B5
:100B2000CDB7DEB788E390E028E330E0F90120811B
:100B30002E7FFC0120838FE290E020EAFC012083DD
:100B40008EE290E0FC0180818823D4F78FE290E070
:100B5000FC0110828EE290E0FC0180818823D4F7B2
:100B60008FE290E0FC018081898388E390E028E3B4
:100B700030E0F90120812160FC01208389810F9000
:100B8000CF91DF910895DF93CF93CDB7DEB72D9747
:100B90000FB6F894DEBF0FBECDBFAC016D8788E302
:100BA00090E028E330E0F90120812E7FFC012083D2
:100BB0008D85882331F48FE290E020E9FC012083C9
:100BC00005C08FE290E024E9FC0120838EE290E0F2
:100BD000FC0180818823D4F78FE290E0FC01108231
:100BE0008EE290E0FC0180818823D4F78FE290E0D0
:100BF000FC018081882F90E0880F991F880F991F32
:100C0000880F991F9B838A838FE290E0FC011082FA
:100C10008EE290E0FC0180818823D4F72A813B8119
:100C20008FE290E0FC018081829586958770882F05
:100C300090E09070822B932B9B838A838FE290E0CD
:100C4000FC0110828EE290E0FC0180818823D4F7C1
:100C50008FE290E0FC0110828EE290E0FC01808146
:100C60008823D4F78FE290E0FC0110828EE290E0BE
:100C7000FC0180818823D4F78FE290E0FC01808121
:100C80008F708C8319821BC08FE290E0FC01108270
:100C90008EE290E0FC0180818823D4F78981882F3F
:100CA00090E02FE230E0F90160819E012B5F3F4F21
:100CB000820F931FFC01608389818F5F89839C81F0
:100CC0008981891708F388E390E028E330E0F9018F
:100CD00020812160FC012083CA019E012E5F3F4FCD
:100CE0006BE0F90100802F5F3F4FFC01008201960D
:100CF00061506623B1F7CA012D960FB6F894DEBF96
:100D00000FBECDBFCF91DF910895CF92DF92EF92CA
:100D1000FF920F931F93DF93CF93CDB7DEB72E973C
:100D20000FB6F894DEBF0FBECDBF8B83CC82DD82C1
:100D3000EE82FF82088719872A873B874C875D8769
:100D40006E8788E390E028E330E0F90120812E7F70
:100D5000FC0120838B81882329F48FE290E020E43A
:100D6000FC0120838B81813031F48FE290E022E41A
:100D7000FC01208305C08FE290E024E4FC01208385
:100D80008EE290E0FC0180818823D4F78C819D81E4
:100D90009695879596958795969587958A838FE200
:100DA00090E02A81FC0120838EE290E0FC018081AA
:100DB0008823D4F78C819D818295880F807E8A83D9
:100DC0008FE290E02A81FC0120838EE290E0FC011A
:100DD00080818823D4F78FE290E0FC0110828EE2BC
:100DE00090E0FC0180818823D4F78FE290E0FC0141
:100DF00010828EE290E0FC0180818823D4F78FE29C
:100E000090E02E812F70FC0120838EE290E0FC01A7
:100E100080818823D4F7198217C08FE290E029815E
:100E2000222F30E0AE01495F5F4F240F351FF901DB
:100E30002081FC0120838EE290E0FC0180818823E8
:100E4000D4F789818F5F89839E818981891728F3EF
:100E500088E390E028E330E0F90120812160FC0183
:100E600020832E960FB6F894DEBF0FBECDBFCF9174
:100E7000DF911F910F91FF90EF90DF90CF90089539
:100E8000DF93CF9300D0CDB7DEB79A83898388E90B
:100E900090E029813A81232F3327FC01208389E9BF
:100EA00090E02981FC0120838AE990E028E1FC019F
:100EB00020838DE990E026E8FC01208382E897E01A
:100EC0002AE637E0B9010E94010E0F900F90CF91F2
:100ED000DF910895DF93CF930F92CDB7DEB7000077
:100EE0008BE990E0FC0180818823D4F78CE990E0C5
:100EF000FC01808189838981882F90E00F90CF91B8
:100F0000DF910895DF93CF930F92CDB7DEB789833A
:100F100000008BE990E0FC018081882F90E08072D6
:100F200090700097B1F38CE990E02981FC01208357
:100F300000008BE990E0FC018081882F90E08074B4
:100F400090700097B1F380E090E00F90CF91DF9127
:100F50000895EF92FF920F931F937B018C0120E085
:100F600030E040E05FE40E94A70A87FD11C0C8019D
:100F7000B70120E030E040E05FE40E944C090E94AD
:100F8000670B9B01AC01205030404040504806C0E8
:100F9000C801B7010E94670B9B01AC01B901CA01EE
:100FA0001F910F91FF90EF900895A0E0B0E0EBED5E
:100FB000F7E00C94CE0DFC01EA018081823008F448
:100FC00038C1DB019C91923008F430C1843059F46F
:100FD000943009F02EC1918111968C911197981738
:100FE00009F021C126C1943009F420C19230B1F436
:100FF000823009F01EC1CA01AF0128E0DA010D906C
:10100000AD01DC010D92CD012150C1F7DB0111963C
:101010008C9111979181892389830AC1823009F4C7
:1010200005C1C280D380DB0112966D907C9013972E
:1010300024813581468157811496ED90FD900D9164
:101040001C911797C601861997095C0197FF04C088
:10105000AA24BB24A81AB90AB0E2AB16B1040CF05A
:1010600061C0181619066CF5370148010A2C04C036
:1010700096948794779467940A94D2F781E090E0ED
:10108000A0E0B0E00A2C04C0880F991FAA1FBB1F64
:101090000A94D2F70197A109B1098E219F21A023BB
:1010A000B123EE24FF248701E3940097A105B10545
:1010B00019F4EE24FF248701E628F72808291929C6
:1010C0003CC00097D1F1CA0CDB1C39014A010A2C43
:1010D00004C096948794779467940A94D2F781E039
:1010E00090E0A0E0B0E00A2C04C0880F991FAA1F6E
:1010F000BB1F0A94D2F70197A109B1098223932358
:10110000A423B52321E030E040E050E00097A105A2
:10111000B10519F420E030E0A90126293729482932
:1011200059290BC06C147D0424F4EE24FF2487019C
:1011300004C0630120E030E0A9018181FB019181BD
:10114000891709F445C0882349F0D801C701821BDB
:10115000930BA40BB50B9C01AD0104C02E193F09E4
:10116000400B510B57FD04C01982DB82CA820BC0B1
:1011700081E08983DB82CA82509540953095219524
:101180003F4F4F4F5F4F2C833D834E835F830DC096
:10119000880F991FAA1FBB1F8C839D83AE83BF83BB
:1011A0008A819B8101979B838A838C819D81AE81FB
:1011B000BF819C01AD0121503040404050402F3F45
:1011C000EFEF3E07EFEF4E07EFE35E0708F30BC0CC
:1011D0008983DB82CA822E0D3F1D401F511F2C8345
:1011E0003D834E835F8383E088832C813D814E81E4
:1011F0005F8157FF1DC0DA01C90181709070A07036
:10120000B0705695479537952795822B932BA42B35
:10121000B52B8C839D83AE83BF838A819B8101968E
:101220009B838A8305C0EAE5F1E003C0FB0101C0AE
:10123000FE01CF01CDB7DEB7EEE00C94EA0DA0E2DF
:10124000B0E0E5E2F9E00C94D60D69837A838B83F4
:101250009C832D833E834F83588789E0E82EF12CB1
:10126000EC0EFD1ECE010196B7010E94E10C8E012D
:101270000F5E1F4FCE010596B8010E94E10CC70119
:10128000B801AE01475E5F4F0E94D5070E94130C64
:10129000A096E6E00C94F20DA0E2B0E0E2E5F9E001
:1012A0000C94D60D69837A838B839C832D833E8334
:1012B0004F8358878E01075F1F4FCE010196B801FB
:1012C0000E94E10C91E1E92EF12CEC0EFD1ECE0105
:1012D0000596B7010E94E10C8A8991E089278A8BE3
:1012E000C801B701AE01475E5F4F0E94D5070E945B
:1012F000130CA096E6E00C94F20DA0E2B0E0E3E857
:10130000F9E00C94CA0D69837A838B839C832D83C7
:101310003E834F835887CE010196BE01675F7F4FA2
:101320000E94E10CCE010596BE016F5E7F4F0E94C8
:10133000E10C9985923078F089898230C0F0943040
:1013400019F4823041F4CBC0843019F4923079F42E
:10135000C6C0923051F481E02A859A89291709F490
:1013600080E08A87CE010996BCC0823051F481E0CA
:101370002A859A89291709F480E08A8BCE01419643
:10138000B0C06D847E848F849888ED88FE880F8934
:10139000188DE0E2F0E080E090E0DC01AA24BB24BC
:1013A000650120E030E0A901B30161707070611542
:1013B0007105D1F02E0D3F1D401F511F1501260153
:1013C000280E391E4A1E5B1E81E090E0A0E0B0E0CE
:1013D0002E153F054007510718F080E090E0DC0132
:1013E000820D931DA41DB51DAA0CBB1CCC1CDD1CBD
:1013F00017FF09C061E0262E312C412C512CA22868
:10140000B328C428D528319749F0EE0CFF1C001FE3
:10141000111F9694879477946794C6CF6B897C89C3
:10142000EB85FC856E0F7F1F6E5F7F4F7C8F6B8F10
:1014300061E0EA857A89E71709F460E06A8F6B8DCD
:101440007C8D10C0FC01E170F070309729F056954A
:101450004795379527955068B695A79597958795A1
:101460006F5F7F4FB7FDEECF0CC0880F991FAA1F8B
:10147000BB1F57FD8160220F331F441F551F615052
:1014800070408030E0E09E07E0E0AE07E0E4BE0799
:1014900060F36B8F7C8F6FE7E62EF12C012D112D01
:1014A000E822F9220A231B2360E4E616F104010571
:1014B000110561F487FD0AC021153105410551056B
:1014C00029F0805C9F4FAF4FBF4F80788D8F9E8FEC
:1014D000AF8FB8A383E0898FCE01499602C08AE519
:1014E00091E00E94130CA096E2E10C94E60DA8E1B5
:1014F000B0E0EDE7FAE00C94D60D69837A838B8334
:101500009C832D833E834F8358878E01075F1F4F37
:10151000CE010196B8010E94E10C81E1E82EF12C88
:10152000EC0EFD1ECE010596B7010E94E10C8985E7
:10153000823040F08989823028F0C801B7010E94CA
:101540004A0D01C08FEF6896E6E00C94F20DA8E119
:10155000B0E0EDEAFAE00C94D60D69837A838B83D0
:101560009C832D833E834F8358878E01075F1F4FD7
:10157000CE010196B8010E94E10C81E1E82EF12C28
:10158000EC0EFD1ECE010596B7010E94E10C898587
:10159000823040F08989823028F0C801B7010E946A
:1015A0004A0D01C08FEF6896E6E00C94F20DA8E1B9
:1015B000B0E0EDEDFAE00C94D60D69837A838B836D
:1015C0009C832D833E834F8358878E01075F1F4F77
:1015D000CE010196B8010E94E10C81E1E82EF12CC8
:1015E000EC0EFD1ECE010596B7010E94E10C898527
:1015F000823040F08989823028F0C801B7010E940A
:101600004A0D01C081E06896E6E00C94F20DA8E076
:10161000B0E0EDE0FBE00C94D60D7B018C0183E0A3
:101620008983D801C7018827B7FD83959927AA2701
:10163000BB27282F8A83E114F1040105110519F451
:1016400082E0898337C08EE190E09C838B832223E4
:1016500089F080E0E81680E0F80680E0080780E87E
:10166000180769F110950095F094E094E11CF11CC5
:10167000011D111DED82FE820F831887C801B7017D
:101680000E94B90B9C01215030401216130694F4AD
:10169000022E04C0EE0CFF1C001F111F0A94D2F78B
:1016A000ED82FE820F8318878EE190E0821B930B00
:1016B0009C838B83CE0101960E94130C04C060E0D2
:1016C00070E080E09FEC2896E6E00C94F20DACE030
:1016D000B0E0EDE6FBE00C94DA0D69837A838B834E
:1016E0009C83CE010196BE016B5F7F4F0E94E10C8F
:1016F0008D81823081F1823070F1843021F48E81CD
:10170000882369F10AC02F81388537FD24C06E8196
:101710002F3131053CF0662311F120E030E040E04C
:1017200050E821C08EE190E0821B930B29853A8519
:101730004B855C8504C056954795379527958A95C6
:10174000D2F7662381F050954095309521953F4F13
:101750004F4F5F4F08C020E030E0A90104C02FEFD9
:101760003FEF4FEF5FE7B901CA012C96E2E00C941E
:10177000F60DAF92BF92CF92DF92EF92FF920F934E
:101780001F937B018C0180E0E81680E0F80681E081
:10179000080780E0180758F4EFEFEE16F104010592
:1017A000110509F090F480E090E0DC0117C0F0E052
:1017B000EF16F0E0FF06F0E00F07F1E01F0750F42E
:1017C00080E190E0A0E0B0E009C088E090E0A0E017
:1017D000B0E004C088E190E0A0E0B0E020E230E0BA
:1017E00040E050E0281B390B4A0B5B0B57016801A6
:1017F00004C0D694C794B794A7948A95D2F7D6011B
:10180000C5018E599E4FFC018081281B3109410979
:101810005109C9011F910F91FF90EF90DF90CF9078
:10182000BF90AF900895EF92FF920F931F93CF93C5
:10183000DF93FC012481358146815781618180815C
:10184000823020F44061EFEFF0E0A3C0843009F46F
:101850009BC0823009F492C0211531054105510524
:1018600009F48FC00280F381E02D8FEFE238F80792
:101870000CF05AC0C2E8DFEFCE1BDF0BCA31D10536
:101880006CF579018A010C2E04C016950795F79422
:10189000E7940A94D2F781E090E0A0E0B0E00C2E4B
:1018A00004C0880F991FAA1FBB1F0A94D2F7019783
:1018B000A109B10982239323A423B52321E030E0B9
:1018C00040E050E00097A105B10519F420E030E0B8
:1018D000A9012E293F29402B512B03C020E030E0E5
:1018E000A901DA01C9018F779070A070B0708034BF
:1018F0009105A105B10539F427FF09C0205C3F4FD0
:101900004F4F5F4F04C0215C3F4F4F4F5F4FE1E0AF
:10191000F0E0203080E0380780E0480780E4580796
:1019200028F5E0E0F0E022C0E038F1056CF5E15880
:10193000FF4FDA01C9018F779070A070B0708034CA
:101940009105A105B10539F427FF09C0205C3F4F7F
:101950004F4F5F4F04C0215C3F4F4F4F5F4F57FFCA
:1019600005C05695479537952795319687E056954A
:101970004795379527958A95D1F70BC0E0E0F0E0C1
:1019800005C0E0E0F0E005C0EFEFF0E020E030E07F
:10199000A9018E2F879588278795942F9F77679524
:1019A00066276795E695E22EA92FA82BFE2FF62B2A
:1019B000622F732F8A2F9F2FCDB7DEB7E6E00C94EE
:1019C000F20DDC01FB012C9111963C9111971296BE
:1019D0008C911297482F4F7750E0982F991F992795
:1019E000991F13966C911397862F880F892B90E07F
:1019F000661F6627661F6183009739F5211531053B
:101A00004105510511F482E029C082E89FEF9383DC
:101A1000828367E0220F331F441F551F6A95D1F759
:101A200083E0808309C0220F331F441F551F82812A
:101A30009381019793838283203080E0380780E090
:101A4000480780E4580778F320C08F3F910579F468
:101A5000211531054105510519F484E0808308956D
:101A600044FF03C081E0808310C010820EC08F57F6
:101A700090409383828383E0808387E0220F331F2B
:101A8000441F551F8A95D1F75064248335834683BC
:101A900057830895FC01DB019081923008F449C01E
:101AA0008C91823008F445C0943051F461818430C7
:101AB000B1F511962C91119730E0261B310941C0E8
:101AC000843021F0923041F48230B1F111968C9142
:101AD00011978823A1F12DC06181823001F1119607
:101AE0008C9111976817D9F42281338112968D91C8
:101AF0009C9113978217930794F028173907BCF02D
:101B0000248135814681578114968D919D910D9048
:101B1000BC91A02D82179307A407B50718F466237C
:101B200041F00DC0281739074A075B0728F46623E0
:101B300031F021E030E005C020E030E002C02FEFBE
:101B40003FEFC901089597FB092E07260AD077FDBC
:101B500004D00CD006D000201AF4709561957F4F08
:101B60000895F6F7909581959F4F0895AA1BBB1B8A
:101B700051E107C0AA1FBB1FA617B70710F0A61B8D
:101B8000B70B881F991F5A95A9F780959095BC01AE
:101B9000CD0108952F923F924F925F926F927F9264
:101BA0008F929F92AF92BF92CF92DF92EF92FF926D
:101BB0000F931F93CF93DF93CDB7DEB7CA1BDB0B19
:101BC0000FB6F894DEBF0FBECDBF09942A883988BE
:101BD00048885F846E847D848C849B84AA84B984C5
:101BE000C884DF80EE80FD800C811B81AA81B981D1
:101BF000CE0FD11D0FB6F894DEBF0FBECDBFED01E5
:101C000008950F931F93CF93DF938C01EB010097FF
:101C100011F42097C9F181E090E06EE070E00E943D
:101C2000A510FC019C01009789F180E8838320972F
:101C300071F0D387C28781E8838380916D02909190
:101C40006E02009721F4F0936E02E0936D0201158D
:101C50001105E1F011870087838182608383809181
:101C60006F0290917002009789F4F0937002E093F4
:101C70006F028091710290917202009739F4F09393
:101C80007202E093710202C020E030E0C901DF91EE
:101C9000CF911F910F910895DF93CF93CDB7DEB70A
:101CA000FE0135966191719180916F029091700261
:101CB000AF010E94950ECF91DF910895EF92FF92B0
:101CC0000F931F93CF93DF938C01E0916F02F091FC
:101CD0007002838181FF1FC0C0E0D0E00AC0DB0139
:101CE0001896ED91FC9119970995009711F0CFEF97
:101CF000DFEFF80181918F0160916F0270917002A6
:101D0000882369F7DB011896ED91FC9119978AE019
:101D10000995009711F0CFEFDFEFCE01DF91CF9162
:101D20001F910F91FF90EF9008952F923F924F9245
:101D30005F926F927F928F929F92AF92BF92CF925B
:101D4000DF92EF92FF920F931F93DF93CF93CDB764
:101D5000DEB72C970FB6F894DEBF0FBECDBF6C0177
:101D60001B018A01FC0117821682838181FFD1C188
:101D70002E010894411C511CF6019381F10193FD41
:101D8000859193FF81911F01882309F4BEC185329B
:101D900039F493FD859193FF81911F01853229F4D8
:101DA00090E0B6010E941A12E7CFEE24FF2420E053
:101DB0002032B0F48B3269F08C3228F4803251F04A
:101DC000833271F40BC08D3239F0803349F42160D5
:101DD0002CC02260246029C0286027C0206125C053
:101DE00027FD2CC0382F30533A3098F426FF08C016
:101DF0008E2D880FE82EEE0CEE0CE80EE30E15C0CB
:101E00008F2D880FF82EFF0CFF0CF80EF30E2062BA
:101E10000CC08E3221F426FD78C1206406C08C36B9
:101E200011F4206802C0883649F4F10193FD8591D0
:101E300093FF81911F01882309F0BACF982F955401
:101E4000933018F09052933028F40C5F1F4FFFE34B
:101E5000F9830DC0833631F0833771F0833509F093
:101E600060C022C0F801808189830E5F1F4F42014C
:101E700071E0A72EB12C16C062E0662E712C600EA8
:101E8000711EF8018080918026FF03C06E2D70E0E6
:101E900002C06FEF7FEFC4012C870E940F125C011C
:101EA00083012C852F7717C052E0652E712C600EB0
:101EB000711EF8018080918026FF03C06E2D70E0B6
:101EC00002C06FEF7FEFC4012C870E94FD115C01FF
:101ED0002C852068830123FD20C008C080E290E0AB
:101EE000B6012C870E941A12FA942C858F2D90E04F
:101EF000A816B90698F311C0F40127FD859127FFB4
:101F000081914F0190E0B6012C870E941A122C8516
:101F1000F110FA940894A108B108A114B10461F772
:101F2000F1C0843611F0893649F527FF08C0F80161
:101F300060817181828193810C5F1F4F09C0F8011C
:101F400060817181882777FD8095982F0E5F1F4FE4
:101F50004FE6B42EB22297FF09C0909580957095F8
:101F600061957F4F8F4F9F4FF0E8BF2AA2012AE073
:101F700030E00E944612782E741845C0853731F43F
:101F80003FEEB32EB2222AE030E025C099EFB92E01
:101F9000B2228F36C1F0803720F4883509F0B5C001
:101FA0000DC0803721F0883709F0AFC002C020E1B2
:101FB000B22AB4FE0BC084E0B82A08C0B4FE09C03F
:101FC000E6E0BE2A06C028E030E005C020E130E0AF
:101FD00002C020E132E0B7FE08C0F80160817181E3
:101FE000828193810C5F1F4F07C0F801608171816E
:101FF00080E090E00E5F1F4FA2010E944612782EF3
:102000007418FFE7BF22B6FE0BC02EEFB2227E147B
:1020100038F4B4FE07C0B2FC05C08FEEB82202C08F
:10202000A72C01C0AE2C8B2D90E0B4FE0DC0FE019C
:10203000E70DF11D2081203319F4E9EEBE2209C01D
:10204000A394B2FE06C004C086789070009709F091
:10205000A3948B2C9924B3FC14C0B0FE0FC0AF1412
:1020600028F4E72CEF0CEA18AF2C08C0E72C06C0C8
:1020700080E290E0B6010E941A12A394AF14C0F35C
:1020800004C0AF1410F4FA1801C0FF2484FE0FC07E
:1020900080E390E0B6010E941A1282FE1FC081FE0A
:1020A00003C088E590E010C088E790E00DC0C4014F
:1020B00086789070009791F081FC02C080E201C0A8
:1020C0008BE2B7FC8DE290E0B6010E941A1206C0C6
:1020D00080E390E0B6010E941A12EA947E14C0F3E5
:1020E0007A94F201E70DF11D808190E0B6010E9423
:1020F0001A127720A9F706C080E290E0B6010E948C
:102100001A12FA94FF20C1F737CEF60126813781E3
:1021100002C02FEF3FEFC9012C960FB6F894DEBF37
:102120000FBECDBFCF91DF911F910F91FF90EF9028
:10213000DF90CF90BF90AF909F908F907F906F90E7
:102140005F904F903F902F900895EF92FF920F93E2
:102150001F93CF93DF93689F8001699F100D789F35
:10216000100D1124C8010E94CA10E82EE7017E015B
:10217000F92EE701209731F08E2D60E070E0A80184
:102180000E940812CE01DF91CF911F910F91FF9015
:10219000EF900895CF93DF938230910510F482E0A1
:1021A00090E0E0917502F091760240E050E020E08E
:1021B00030E026C06081718168177907E0F0681708
:1021C000790781F4828193812115310531F0D9019C
:1021D00013969C938E9312972BC0909376028093C4
:1021E000750226C04115510519F06417750718F4DA
:1021F000AB01E901DF019F0172816381E72FF62FB7
:102200003097C1F64115510501F1481B590B443077
:10221000510580F412968D919C911397209719F097
:102220009B838A8304C09093760280937502FD019C
:10223000329646C0FD01E40FF51F81939193425001
:10224000504011965C934E933BC0209173023091A5
:1022500074022115310541F4209164023091650228
:1022600030937402209373022091660230916702CA
:102270002115310541F42DB73EB7409162025091CE
:102280006302241B350BE0917302F0917402E21794
:10229000F307A0F42E1B3F0B2817390778F0AC0189
:1022A0004E5F5F4F2417350748F04E0F5F1F509366
:1022B0007402409373028193919302C0E0E0F0E0D6
:1022C000CF01DF91CF910895CF93DF93009709F469
:1022D00091C0FC0132971382128260917502709155
:1022E00076026115710581F420813181280F391F33
:1022F00080917302909174028217930799F5F0937D
:102300007402E093730276C0DB0180E090E002C0CB
:10231000CD01D901AE17BF0748F412962D913C911B
:10232000139721153105A1F7CD0121C0B383A283F5
:10233000EF01499159919E01240F351FA217B30750
:1023400079F42D913C911197240F351F2E5F3F4F4B
:102350003183208312962D913C91139733832283EE
:10236000009729F4F0937602E093750243C0DC01F4
:102370001396FC93EE9312974D915D91A40FB51FA8
:10238000EA17FB0769F420813181240F351F2E5F86
:102390003F4FEC0139832883228133813B832A8399
:1023A000E0E0F0E002C0FB01BC01DB0112968D9180
:1023B0009C9113970097B9F79B012E5F3F4F8D912A
:1023C0009C911197820F931F409173025091740258
:1023D0004817590779F4309729F410927602109231
:1023E000750202C013821282225030403093740270
:1023F00020937302DF91CF910895FC010590615005
:1024000070400110D8F7809590958E0F9F1F08950A
:10241000DC0101C06D9341505040E0F70895FC018C
:102420006150704001900110D8F7809590958E0F03
:102430009F1F08950F931F93CF93DF938C01EB01A0
:102440008B8181FF1BC082FF0DC02E813F818C815B
:102450009D812817390764F4E881F9810193F98394
:10246000E88306C0E885F985802F0995009731F447
:102470008E819F8101969F838E8302C00FEF1FEF95
:10248000C801DF91CF911F910F910895FA01AA27FA
:10249000283051F1203181F1E8946F936E7F6E5FA7
:1024A0007F4F8F4F9F4FAF4FB1E03ED0B4E03CD055
:1024B000670F781F891F9A1FA11D680F791F8A1F38
:1024C000911DA11D6A0F711D811D911DA11D20D09F
:1024D00009F468943F912AE0269F11243019305D59
:1024E0003193DEF6CF010895462F4770405D41934A
:1024F000B3E00FD0C9F7F6CF462F4F70405D4A3397
:1025000018F0495D31FD4052419302D0A9F7EACF5E
:10251000B4E0A6959795879577956795BA95C9F78D
:1025200000976105710508959B01AC010A2E069480
:102530005795479537952795BA95C9F7620F731F39
:0C254000841F951FA01D0895F894FFCF84
:10254C000D0A200D0A2048692C204920616D204E6F
:10255C004F4445203220616E642074686973206991
:10256C0073204E4F54206A61636B6173732C20622D
:10257C007574207765206172652067657474696E67
:10258C00672074686572650D00474F4141414141B8
:10259C004C733A202564200D0A0000000000000056
:1025AC0000000001020203030303040404040404F6
:1025BC0004040505050505050505050505050505C1
:1025CC0005050606060606060606060606060606A1
:1025DC00060606060606060606060606060606068F
:1025EC000606070707070707070707070707070771
:1025FC00070707070707070707070707070707075F
:10260C00070707070707070707070707070707074E
:10261C00070707070707070707070707070707073E
:10262C000707080808080808080808080808080820
:10263C00080808080808080808080808080808080E
:10264C0008080808080808080808080808080808FE
:10265C0008080808080808080808080808080808EE
:10266C0008080808080808080808080808080808DE
:10267C0008080808080808080808080808080808CE
:10268C0008080808080808080808080808080808BE
:10269C0008080808080808080808080808080808AE
:0826AC0008082000770200007D
:00000001FF
