:100000000C9446000C9465000C9465000C946500FB
:100010000C9465000C94DE010C9465000C94650052
:100020000C9465000C9465000C9465000C946500BC
:100030000C9465000C9465000C9465000C946500AC
:100040000C9465000C9465000C9465000C9465009C
:100050000C9465000C94C9010C9465000C94650027
:100060000C9465000C9465000C9465000C9465007C
:100070000C9465000C9465000C9465000C9465006C
:100080000C9465000C94680C0C94650011241FBE40
:10009000CFEFD0E1DEBFCDBF12E0A0E0B1E0E6E8F7
:1000A000F2E300E00BBF02C007900D92A239B10746
:1000B000D9F712E0A2E9B2E001C01D92A83AB10757
:1000C000E1F70E941B060C9441190C940000DF9389
:1000D000CF93CDB7DEB787E290E027E230E0F901B9
:1000E0002081206CFC01208386E290E026E230E053
:1000F000F90120812868FC01208381E690E021E657
:1001000030E0F90120812E7FFC012083CF91DF9127
:100110000895DF93CF9300D0CDB7DEB786E290E0AD
:1001200026E230E0F90120812064FC0120830000F8
:10013000809192028823E1F31092920284E290E08F
:10014000FC01808191819A83898389819A810F90B2
:100150000F90CF91DF9108950F931F93DF93CF936B
:10016000CDB7DEB762970FB6F894DEBF0FBECDBF36
:100170008A8B1B821A8219828BC00E9489002A8175
:100180003B81820F931F9B838A8380E090E0A0EAEB
:10019000B0E48C839D83AE83BF836C817D818E812F
:1001A0009F8120E030E04AE754E40E946C0FDC01BC
:1001B000CB0188879987AA87BB8711E068857985F5
:1001C0008A859B8520E030E040E85FE30E9474115F
:1001D00088230CF010E0112329F081E090E09D8746
:1001E0008C8746C011E0688579858A859B8520E0EB
:1001F0003FEF4FE757E40E94141118160CF010E07F
:10020000112361F16C817D818E819F8120E030E03E
:1002100040E251E40E946C0FDC01CB01BC01CD0136
:100220000E94980DDC01CB019D878C8712C084E66B
:1002300090E09F878E878E859F858C01C8010197EE
:10024000F1F78C011F870E878C859D8501979D870F
:100250008C878C859D85009751F717C068857985B7
:100260008A859B850E94980DDC01CB019D878C8738
:100270008C859D85998B888B888999898C01C8018B
:100280000197F1F78C01198B088B89818F5F898326
:1002900099818A89981708F470CF8A89282F30E0CD
:1002A0008A819B81B9010E9440149B013B832A8370
:1002B00080919302882391F48A819B818A309105F1
:1002C0006CF480919402909195020196909395021E
:1002D0008093940281E0809393020BC080919302FB
:1002E000882339F08A819B818A30910514F010921D
:1002F00093028A819B8162960FB6F894DEBF0FBE8F
:10030000CDBFCF91DF911F910F910895DF93CF93D0
:1003100000D0CDB7DEB78A838A81882F90E0823003
:100320009105A9F08330910534F4009759F081309C
:10033000910551F015C08330910561F0843091052D
:1003400061F00EC019820CC080E2898309C080E48C
:10035000898306C080E6898303C080E88983000022
:100360008FE069810E94220980E660E60E942209EE
:1003700080E760E60E9422098CE260E00E94220988
:100380008BE26FE10E9422090F900F90CF91DF91D5
:1003900008951F920F920FB60F9211248F93DF933F
:1003A000CF93CDB7DEB781E080939202CF91DF91FA
:1003B0008F910F900FBE0F901F9018951F920F9264
:1003C0000FB60F9200905B000F9211242F933F9372
:1003D0004F935F936F937F938F939F93AF93BF934D
:1003E000EF93FF93DF93CF930F92CDB7DEB78CE2FD
:1003F0000E94DF0889838CE260E00E9422098981E3
:10040000882F90E081709070882329F080919D0260
:10041000816080939D028981882F90E08270907026
:10042000009729F080919D02826080939D028981CE
:10043000882F90E084709070009729F080919D0241
:10044000846080939D028981882F90E088709070ED
:10045000009729F080919D02886080939D02898198
:10046000882F90E080719070009729F080919D0214
:10047000806180939D020F90CF91DF91FF91EF916A
:10048000BF91AF919F918F917F916F915F914F91AC
:100490003F912F910F9000925B000F900FBE0F9035
:1004A0001F901895DF93CF93CDB7DEB781E390E02F
:1004B00021E330E0F90120812360FC01208382E206
:1004C00090E022E230E0F90120812F7EFC012083C0
:1004D0008AE390E02AE330E0F9012081286FFC01F3
:1004E000208384E390E02FEFFC01208381E690E0FD
:1004F00021E630E0F90120812260FC01208382E3C3
:1005000090E022E330E0F90120812061FC012083AA
:100510008AE590E02AE530E0F90120812260FC01C3
:1005200020838AE590E02AE530E0F90120812E7FE2
:10053000FC01208389E590E029E530E0F901208184
:100540002061FC0120830E94670082E690E022E6A1
:1005500030E0F90120812260FC0120837894CF9162
:10056000DF910895DF93CF9300D000D0CDB7DEB7F1
:100570008C831A82198231C08C81282F30E08981C6
:10058000482F50E081E090E002C0880F991F4A9503
:10059000E2F7822393232981222F30E047E050E0C5
:1005A000BA01621B730B9B0102C0880F991F2A9529
:1005B000E2F78B838B81882F90E02981222F30E016
:1005C000022E02C0959587950A94E2F7982F8A81AA
:1005D000892B8A8389818F5F89838981883060F242
:1005E0008A810F900F900F900F90CF91DF91089517
:1005F0000F931F93DF93CF93CDB7DEB7C054D04096
:100600000FB6F894DEBF0FBECDBF8BE390E02BE3B7
:1006100030E0F90120812F77FC0120838BE390E00B
:100620002BE330E0F90120812F7DFC01208380E065
:1006300090E0A8EBB1E48B839C83AD83BE836B8198
:100640007C818D819E812BEA3AEA4AEA5FE30E942F
:100650006C0FDC01CB018F839887A987BA8711E0E3
:100660006F81788589859A8520E030E040E85FE3F6
:100670000E94741188230CF010E0112319F081E01E
:100680008B87A3C011E06F81788589859A8520E0EA
:1006900030E04FE753E40E94141118160CF010E0FC
:1006A000112309F489C06B817C818D819E8120E0BA
:1006B00030E04AE754E40E946610DC01CB018C87ED
:1006C0009D87AE87BF876C857D858E859F8520E061
:1006D00030E04AE754E40E946C0FDC01CB01888BC8
:1006E000998BAA8BBB8B11E0688979898A899B8950
:1006F00020E030E040E85FE30E94741188230CF0B2
:1007000010E0112329F081E090E09D8B8C8B46C096
:1007100011E0688979898A899B8920E03FEF4FE75A
:1007200057E40E94141118160CF010E0112361F127
:100730006C857D858E859F8520E030E040E251E428
:100740000E946C0FDC01CB01BC01CD010E94980D11
:10075000DC01CB019D8B8C8B12C084E690E09F8BDB
:100760008E8B8E899F898C01C8010197F1F78C01CE
:100770001F8B0E8B8C899D8901979D8B8C8B8C890F
:100780009D89009751F728C0688979898A899B8952
:100790000E94980DDC01CB019D8B8C8B8C899D89EF
:1007A000998F888F888D998D8C01F8013197F1F799
:1007B0008F01198F088F10C06F81788589859A8580
:1007C0000E94980DDC01CB018B878B858A8F8A8DE7
:1007D000182F1A95F1F71A8F82E690E0FC018081BC
:1007E0000E94B202882F90E0982F88279A838983ED
:1007F0008BE390E02BE330E0F90120812062FC01E3
:10080000208380E090E0A8EBB1E48B8F9C8FAD8FCC
:10081000BE8F6B8D7C8D8D8D9E8D2BEA3AEA4AEAD8
:100820005FE30E946C0FDC01CB018F8F98A3A9A31B
:10083000BAA311E06F8D78A189A19AA120E030E0E0
:1008400040E85FE30E94741188230CF010E011234C
:1008500019F081E08BA3A3C011E06F8D78A189A16D
:100860009AA120E030E04FE753E40E9414111816DB
:100870000CF010E0112309F489C06B8D7C8D8D8DF7
:100880009E8D20E030E04AE754E40E946610DC01CF
:10089000CB018CA39DA3AEA3BFA36CA17DA18EA110
:1008A0009FA120E030E04AE754E40E946C0FDC0195
:1008B000CB0188A799A7AAA7BBA711E068A579A52E
:1008C0008AA59BA520E030E040E85FE30E94741118
:1008D00088230CF010E0112329F081E090E09DA71F
:1008E0008CA746C011E068A579A58AA59BA520E044
:1008F0003FEF4FE757E40E94141118160CF010E078
:10090000112361F16CA17DA18EA19FA120E030E0B7
:1009100040E251E40E946C0FDC01CB01BC01CD012F
:100920000E94980DDC01CB019DA78CA712C084E624
:1009300090E09FA78EA78EA59FA58C01C801019767
:10094000F1F78C011FA70EA78CA59DA501979DA768
:100950008CA78CA59DA5009751F728C068A579A5FF
:100960008AA59BA50E94980DDC01CB019DA78CA7B1
:100970008CA59DA599AB88AB88A999A98C01F80194
:100980003197F1F78F0119AB08AB10C06F8D78A1CB
:1009900089A19AA10E94980DDC01CB018BA38BA1A8
:1009A0008AAB8AA9182F1A95F1F71AAB82E690E064
:1009B000FC0180810E94B202882F90E029813A8157
:1009C000822B932B9A8389838BE390E02BE330E097
:1009D000F90120812F7BFC01208380E090E0A0E8DA
:1009E000BFE38BAB9CABADABBEAB6BA97CA98DA9B8
:1009F0009EA920E030E04AE754E40E946C0FDC013D
:100A0000CB018FAB98AFA9AFBAAF11E06FA978ADAA
:100A100089AD9AAD20E030E040E85FE30E947411B8
:100A200088230CF010E0112329F081E090E09CAFC6
:100A30008BAF46C011E06FA978AD89AD9AAD20E0CB
:100A40003FEF4FE757E40E94141118160CF010E026
:100A5000112361F16BA97CA98DA99EA920E030E04A
:100A600040E251E40E946C0FDC01CB01BC01CD01DE
:100A70000E94980DDC01CB019CAF8BAF12C084E6C5
:100A800090E09EAF8DAF8DAD9EAD8C01C8010197FA
:100A9000F1F78C011EAF0DAF8BAD9CAD01979CAFF4
:100AA0008BAF8BAD9CAD009751F720C06FA978AD8F
:100AB00089AD9AAD0E94980DDC01CB019CAF8BAF44
:100AC0002BAD3CADCE01CF96FC0131832083CE010E
:100AD000CF96FC01808191818C01C8010197F1F7CB
:100AE0008C01CE01CF96FC01118300838BE390E053
:100AF0002BE330E0F90120812064FC0120838BE3AB
:100B000090E02BE330E0F90120812068FC01208394
:100B100089819A81C05CDF4F0FB6F894DEBF0FBEAB
:100B2000CDBFCF91DF911F910F910895DF93CF93A8
:100B300000D000D0CDB7DEB78C8380E589831A82E0
:100B40008C81882F90E020E830E0A901481B590BE8
:100B5000CA0199231CF4909581959F4F8F3191057F
:100B60000CF440C08BE390E02BE330E0F9012081EE
:100B70002061FC0120838C81882F90E020E830E008
:100B8000A901481B590BCA01880F991F99231CF40E
:100B9000909581959F4F84508B838C81813870F024
:100BA0008BE390E02BE330E0F9012081277FFC010B
:100BB000208380E091E00E94FB140DC08BE390E065
:100BC0002BE330E0F90120812860FC0120838AE0DA
:100BD00091E00E94FB14CE01019663E070E00E9458
:100BE000D00B09C08BE390E02BE330E0F9012081CA
:100BF0002F7EFC0120830F900F900F900F90CF91CC
:100C0000DF910895DF93CF9300D000D0CDB7DEB74A
:100C10008C8380E589831A828C818B83CE01019637
:100C200063E070E00E94D00B0F900F900F900F9038
:100C3000CF91DF9108950F931F93DF93CF93CDB79B
:100C4000DEB7CA54D0400FB6F894DEBF0FBECDBF9A
:100C50008BE190E00E942F0D0E94A00B0E94520297
:100C60008BE390E02BE330E0F90120812061FC016F
:100C7000208385E191E00E94FB140E940D080E94F0
:100C80002B0880E00E9486018CE261E00E9422092C
:100C900019820E948C071B821A8201C000000E94E8
:100CA000F8029C0100D000D08DB79EB701964EE5AA
:100CB00051E0FC0151834083FC01338322830E9475
:100CC000E9140F900F900F900F9080919D02882F44
:100CD00090E0817090708823E9F080919D028E7F72
:100CE00080939D02CE01889660E00E94230ACE0187
:100CF000CE969E01285D3F4F4BE0F90100802F5FAB
:100D00003F4FFC010082019641504423B1F781E03E
:100D1000898324C080919D02882F90E0827090701A
:100D20000097E1F080919D028D7F80939D02CE011E
:100D3000C39661E00E94230ACE01CE969E012D5CEF
:100D40003F4F4BE0F90100802F5F3F4FFC010082D5
:100D5000019641504423B1F781E08983898188233A
:100D600009F4AEC08EAD9FAD8A30910521F08B3075
:100D7000910589F0A3C01982CE018F5B9F4FFC01C2
:100D800080810E94BC07CE018E5B9F4FFC01808159
:100D90000E94960595C082E690E022E630E0F901D7
:100DA00020812D7FFC01208380E090E0A8E4B2E464
:100DB0008C839D83AE83BF836C817D818E819F8177
:100DC00020E030E04AE754E40E946C0FDC01CB01E4
:100DD00088879987AA87BB8711E0688579858A8586
:100DE0009B8520E030E040E85FE30E947411882397
:100DF0000CF010E0112329F081E090E09D878C87B2
:100E000046C011E0688579858A859B8520E03FEFA3
:100E10004FE757E40E94141118160CF010E011234C
:100E200061F16C817D818E819F8120E030E040E224
:100E300051E40E946C0FDC01CB01BC01CD010E948A
:100E4000980DDC01CB019D878C8712C084E690E071
:100E50009F878E878E859F858C01C8010197F1F74A
:100E60008C011F870E878C859D8501979D878C87B8
:100E70008C859D85009751F717C0688579858A858F
:100E80009B850E94980DDC01CB019D878C878C850A
:100E90009D85998B888B888999898C01F801319778
:100EA000F1F78F01198B088B82E690E022E630E0A3
:100EB000F90120812260FC01208302C01982000018
:100EC0008AE00E94AC009C01CE01875B9F4FFC0131
:100ED00031832083CE01875B9F4FFC01808191810C
:100EE0008A3091050CF0DACE20919402309195026F
:100EF00000D000D08DB79EB7019642E751E0FC01CB
:100F000051834083FC01338322830E94E9140F90B4
:100F10000F900F900F90C3CEDF93CF93CDB7DEB776
:100F200086E490E020EA38E2FC013183208388E403
:100F300090E020E033E0FC01318320838FE490E0F7
:100F40002FE430E0F90120812262FC0120838EE44D
:100F500090E02EE430E0F90120812A61FC01208339
:100F600087E390E027E330E0F90120812066FC016F
:100F70002083CF91DF910895DF93CF9300D00F921C
:100F8000CDB7DEB78B838B81882F90E0AA2797FDA2
:100F9000A095BA2FBC01CD010E94A411DC01CB01A8
:100FA000BC01CD012AE939E949E150E40E946C0F06
:100FB000DC01CB01BC01CD0120E030E846EE53E47A
:100FC0000E940E0FDC01CB01BC01CD010E94041276
:100FD000DC01CB019A83898389819A8121E08D3C50
:100FE000920724F48DEC91E09A83898389819A8118
:100FF000E4E084339E0724F083E394E09A838983BA
:1010000088E490E029813A81FC01318320830F90AC
:101010000F900F90CF91DF910895DF93CF93CDB7CD
:10102000DEB787E390E027E0FC01208388E390E0CF
:1010300028E330E0F90120812160FC0120838DE26A
:1010400090E02DE230E0F90120812165FC01208350
:10105000CF91DF9108950F931F93DF93CF93CDB777
:10106000DEB72E970FB6F894DEBF0FBECDBF88E374
:1010700090E028E330E0F90120812E7FFC012083FD
:101080008FE290E020ECFC0120838EE290E0FC01F6
:1010900080818823D4F788E390E028E330E0F901E9
:1010A00020812160FC01208380E090E0A0E2B1E497
:1010B00089839A83AB83BC8369817A818B819C818C
:1010C00020E030E04AE754E40E946C0FDC01CB01E1
:1010D0008D839E83AF83B88711E06D817E818F8180
:1010E000988520E030E040E85FE30E947411882397
:1010F0000CF010E0112329F081E090E09A878987B5
:1011000046C011E06D817E818F81988520E03FEFA0
:101110004FE757E40E94141118160CF010E0112349
:1011200061F169817A818B819C8120E030E040E22D
:1011300051E40E946C0FDC01CB01BC01CD010E9487
:10114000980DDC01CB019A87898712C084E690E074
:101150009C878B878B859C858C01C8010197F1F753
:101160008C011C870B8789859A8501979A878987C7
:1011700089859A85009751F717C06D817E818F818F
:1011800098850E94980DDC01CB019A878987898513
:101190009A859E878D878D859E858C01F801319774
:1011A000F1F78F011E870D872E960FB6F894DEBFDC
:1011B0000FBECDBFCF91DF911F910F910895DF93A7
:1011C000CF9300D0CDB7DEB78A8388E390E028E3E1
:1011D00030E0F90120812E7FFC0120838FE290E036
:1011E00023E0FC0120838EE290E0FC0180818823D3
:1011F000D4F78FE290E02A81FC0120838EE290E018
:10120000FC0180818823D4F78FE290E0FC011082FA
:101210008EE290E0FC0180818823D4F78FE290E099
:10122000FC018081898388E390E028E330E0F901C4
:1012300020812160FC01208389810F900F90CF9144
:10124000DF910895DF93CF9300D0CDB7DEB78983C8
:101250006A8388E390E028E330E0F90120812E7F63
:10126000FC0120838FE290E022E0FC0120838EE2EB
:1012700090E0FC0180818823D4F78FE290E02981FF
:10128000FC0120838EE290E0FC0180818823D4F76A
:101290008FE290E02A81FC0120838EE290E0FC0145
:1012A00080818823D4F788E390E028E330E0F901D7
:1012B00020812160FC0120830F900F90CF91DF915E
:1012C0000895DF93CF930F92CDB7DEB7898388E37C
:1012D00090E028E330E0F90120812E7FFC0120839B
:1012E0008981882F90E08130910559F082309105F5
:1012F00071F0009791F48FE290E021E8FC012083E7
:101300000CC08FE290E022E8FC01208306C08FE24F
:1013100090E024E8FC01208300008EE290E0FC01D4
:1013200080818823D4F788E390E028E330E0F90156
:1013300020812160FC0120830F90CF91DF910895DF
:10134000DF93CF9300D00F92CDB7DEB789836A8346
:101350004B8388E390E028E330E0F90120812E7F81
:10136000FC0120838FE290E025E0FC0120838EE2E7
:1013700090E0FC0180818823D4F78FE290E02981FE
:10138000FC0120838EE290E0FC0180818823D4F769
:101390008FE290E02A81FC0120838EE290E0FC0144
:1013A00080818823D4F78FE290E02B81FC01208399
:1013B0008EE290E0FC0180818823D4F788E390E0FE
:1013C00028E330E0F90120812160FC0120830F90A7
:1013D0000F900F90CF91DF910895DF93CF930F92ED
:1013E000CDB7DEB788E390E028E330E0F901208153
:1013F0002E7FFC0120838FE290E020EAFC01208315
:101400008EE290E0FC0180818823D4F78FE290E0A7
:10141000FC0110828EE290E0FC0180818823D4F7E9
:101420008FE290E0FC018081898388E390E028E3EB
:1014300030E0F90120812160FC01208389810F9037
:10144000CF91DF910895DF93CF93CDB7DEB72D977E
:101450000FB6F894DEBF0FBECDBFAC016D8788E339
:1014600090E028E330E0F90120812E7FFC01208309
:101470008D85882331F48FE290E020E9FC01208300
:1014800005C08FE290E024E9FC0120838EE290E029
:10149000FC0180818823D4F78FE290E0FC01108268
:1014A0008EE290E0FC0180818823D4F78FE290E007
:1014B000FC018081882F90E0880F991F880F991F69
:1014C000880F991F9B838A838FE290E0FC01108232
:1014D0008EE290E0FC0180818823D4F72A813B8151
:1014E0008FE290E0FC018081829586958770882F3D
:1014F00090E09070822B932B9B838A838FE290E005
:10150000FC0110828EE290E0FC0180818823D4F7F8
:101510008FE290E0FC0110828EE290E0FC0180817D
:101520008823D4F78FE290E0FC0110828EE290E0F5
:10153000FC0180818823D4F78FE290E0FC01808158
:101540008F708C8319821BC08FE290E0FC011082A7
:101550008EE290E0FC0180818823D4F78981882F76
:1015600090E02FE230E0F90160819E012B5F3F4F58
:10157000820F931FFC01608389818F5F89839C8127
:101580008981891708F388E390E028E330E0F901C6
:1015900020812160FC012083CA019E012E5F3F4F04
:1015A0006BE0F90100802F5F3F4FFC010082019644
:1015B00061506623B1F7CA012D960FB6F894DEBFCD
:1015C0000FBECDBFCF91DF910895CF92DF92EF9202
:1015D000FF920F931F93DF93CF93CDB7DEB72E9774
:1015E0000FB6F894DEBF0FBECDBF8B83CC82DD82F9
:1015F000EE82FF82088719872A873B874C875D87A1
:101600006E8788E390E028E330E0F90120812E7FA7
:10161000FC0120838B81882329F48FE290E020E471
:10162000FC0120838B81813031F48FE290E022E451
:10163000FC01208305C08FE290E024E4FC012083BC
:101640008EE290E0FC0180818823D4F78C819D811B
:101650009695879596958795969587958A838FE237
:1016600090E02A81FC0120838EE290E0FC018081E1
:101670008823D4F78C819D818295880F807E8A8310
:101680008FE290E02A81FC0120838EE290E0FC0151
:1016900080818823D4F78FE290E0FC0110828EE2F3
:1016A00090E0FC0180818823D4F78FE290E0FC0178
:1016B00010828EE290E0FC0180818823D4F78FE2D3
:1016C00090E02E812F70FC0120838EE290E0FC01DF
:1016D00080818823D4F7198217C08FE290E0298196
:1016E000222F30E0AE01495F5F4F240F351FF90113
:1016F0002081FC0120838EE290E0FC018081882320
:10170000D4F789818F5F89839E818981891728F326
:1017100088E390E028E330E0F90120812160FC01BA
:1017200020832E960FB6F894DEBF0FBECDBFCF91AB
:10173000DF911F910F91FF90EF90DF90CF90089570
:10174000DF93CF93CDB7DEB780E790E02CE0FC01CC
:10175000208383E790E02FEFFC01208384E790E073
:1017600024E0FC012083CF91DF910895DF93CF9394
:10177000CDB7DEB784E790E0FC0180818170CF9126
:10178000DF910895DF93CF93CDB7DEB700000E94BD
:10179000B60B8823E1F780918301CF91DF91089503
:1017A000DF93CF9300D000D0CDB7DEB79B838A8381
:1017B0006C8300000E94B60B8823E1F78C81809334
:1017C0009B028A819B81FC018081809397028A81A0
:1017D0009B81FC018081882F90E081709070009740
:1017E000D1F481E0898313C08981882F90E0298119
:1017F000222F30E04A815B81240F351FF9012081BF
:1018000089569D4FFC01208389818F5F898399814F
:101810008C81981748F31092960288EF8093830189
:1018200084E790E025EAFC0120830F900F900F9051
:101830000F90CF91DF910895DF93CF93CDB7DEB7AF
:1018400000000E94B60B8823E1F71092960288EF01
:101850008093830184E790E025EAFC012083CF9107
:10186000DF910895DF93CF9300D000D0CDB7DEB7DE
:101870009B838A836C8300000E94B60B8823E1F768
:101880008091960281708823C9F0198213C08981E2
:10189000882F90E02A813B81820F931F2981222F7C
:1018A00030E029563D4FF9012081FC0120838981D8
:1018B0008F5F898399818C81981748F38091960274
:1018C00081700F900F900F900F90CF91DF9108953E
:1018D0001F920F920FB60F9200905B000F9211248F
:1018E0002F933F934F938F939F93EF93FF93DF93A8
:1018F000CF93CDB7DEB781E790E0FC018081882FE0
:1019000090E08832910519F18932910554F48031C3
:101910009105D9F088319105D1F088309105A9F071
:1019200082C08034910509F449C0813491052CF4BA
:101930008833910509F471C076C08035910571F145
:101940008835910509F452C06EC010929C029091A6
:101950009C0280919B029817B0F483E790E040913D
:101960009C02242F30E029563D4FF9012081FC01D3
:101970002083842F8F5F80939C0284E790E025E88A
:10198000FC0120835BC08091960281608093960267
:1019900084E790E024E9FC01208350C040919C0240
:1019A000842F90E023E730E0F901208189569D4F94
:1019B000FC012083842F8F5F80939C0280919C0286
:1019C000282F30E080919B02882F90E00197281704
:1019D000390734F484E790E025ECFC0120832EC025
:1019E00084E790E025E8FC01208328C080919C02D8
:1019F000882F90E023E730E0F901208189569D4F40
:101A0000FC0120838091960281608093960284E796
:101A100090E024E9FC01208311C084E790E025EAEE
:101A2000FC0120830BC081E790E0FC018081809362
:101A3000830184E790E024E0FC012083CF91DF91D3
:101A4000FF91EF919F918F914F913F912F910F9027
:101A500000925B000F900FBE0F901F901895DF93C0
:101A6000CF9300D0CDB7DEB79A83898388E990E021
:101A700029813A81232F3327FC01208389E990E0D3
:101A80002981FC0120838AE990E028E1FC01208380
:101A90008DE990E026E8FC01208381E79DE029E5BF
:101AA0003DE0B9010E949E140F900F90CF91DF91FD
:101AB0000895DF93CF930F92CDB7DEB700008BE987
:101AC00090E0FC0180818823D4F78CE990E0FC0150
:101AD000808189838981882F90E00F90CF91DF9159
:101AE0000895DF93CF930F92CDB7DEB789830000BF
:101AF0008BE990E0FC018081882F90E080729070EB
:101B00000097B1F38CE990E02981FC01208300006B
:101B10008BE990E0FC018081882F90E080749070C8
:101B20000097B1F380E090E00F90CF91DF9108959E
:101B3000EF92FF920F931F937B018C0120E030E026
:101B400040E05FE40E94441187FD11C0C801B70165
:101B500020E030E040E05FE40E943B0F0E9404126E
:101B60009B01AC01205030404040504806C0C801A5
:101B7000B7010E9404129B01AC01B901CA011F9177
:101B80000F91FF90EF900895A0E0B0E0EAECFDE047
:101B90000C946B14FC01EA018081823008F438C196
:101BA000DB019C91923008F430C1843059F49430B8
:101BB00009F02EC1918111968C911197981709F017
:101BC00021C126C1943009F420C19230B1F4823091
:101BD00009F01EC1CA01AF0128E0DA010D90AD0184
:101BE000DC010D92CD012150C1F7DB0111968C91E2
:101BF00011979181892389830AC1823009F405C133
:101C0000C280D380DB0112966D907C901397248163
:101C10003581468157811496ED90FD900D911C9170
:101C20001797C601861997095C0197FF04C0AA247B
:101C3000BB24A81AB90AB0E2AB16B1040CF061C01B
:101C4000181619066CF5370148010A2C04C0969441
:101C50008794779467940A94D2F781E090E0A0E0AB
:101C6000B0E00A2C04C0880F991FAA1FBB1F0A945A
:101C7000D2F70197A109B1098E219F21A023B12399
:101C8000EE24FF248701E3940097A105B10519F420
:101C9000EE24FF248701E628F728082919293CC0EB
:101CA0000097D1F1CA0CDB1C39014A010A2C04C08F
:101CB00096948794779467940A94D2F781E090E0A1
:101CC000A0E0B0E00A2C04C0880F991FAA1FBB1F18
:101CD0000A94D2F70197A109B10982239323A4237F
:101CE000B52321E030E040E050E00097A105B105C8
:101CF00019F420E030E0A90126293729482959297B
:101D00000BC06C147D0424F4EE24FF24870104C06E
:101D1000630120E030E0A9018181FB0191818917F5
:101D200009F445C0882349F0D801C701821B930BF1
:101D3000A40BB50B9C01AD0104C02E193F09400B4B
:101D4000510B57FD04C01982DB82CA820BC081E0AF
:101D50008983DB82CA8250954095309521953F4F0B
:101D60004F4F5F4F2C833D834E835F830DC0880FA1
:101D7000991FAA1FBB1F8C839D83AE83BF838A815B
:101D80009B8101979B838A838C819D81AE81BF81DA
:101D90009C01AD0121503040404050402F3FEFEFBB
:101DA0003E07EFEF4E07EFE35E0708F30BC08983B2
:101DB000DB82CA822E0D3F1D401F511F2C833D83A5
:101DC0004E835F8383E088832C813D814E815F81D8
:101DD00057FF1DC0DA01C90181709070A070B0700A
:101DE0005695479537952795822B932BA42BB52B8A
:101DF0008C839D83AE83BF838A819B8101969B8365
:101E00008A8305C0E4E8F1E003C0FB0101C0FE01E4
:101E1000CF01CDB7DEB7EEE00C948714A0E2B0E0BE
:101E2000E4E1FFE00C94731469837A838B839C83D1
:101E30002D833E834F83588789E0E82EF12CEC0EEA
:101E4000FD1ECE010196B7010E947E138E010F5E2A
:101E50001F4FCE010596B8010E947E13C701B8013D
:101E6000AE01475E5F4F0E94C40D0E94B012A09663
:101E7000E6E00C948F14A0E2B0E0E1E4FFE00C9403
:101E8000731469837A838B839C832D833E834F8372
:101E900058878E01075F1F4FCE010196B8010E943F
:101EA0007E1391E1E92EF12CEC0EFD1ECE0105967C
:101EB000B7010E947E138A8991E089278A8BC80125
:101EC000B701AE01475E5F4F0E94C40D0E94B01281
:101ED000A096E6E00C948F14A0E2B0E0E2E7FFE009
:101EE0000C94671469837A838B839C832D833E8350
:101EF0004F835887CE010196BE01675F7F4F0E94D6
:101F00007E13CE010596BE016F5E7F4F0E947E1349
:101F10009985923078F089898230C0F0943019F434
:101F2000823041F4CBC0843019F4923079F4C6C0C9
:101F3000923051F481E02A859A89291709F480E0CA
:101F40008A87CE010996BCC0823051F481E02A858F
:101F50009A89291709F480E08A8BCE014196B0C096
:101F60006D847E848F849888ED88FE880F89188D13
:101F7000E0E2F0E080E090E0DC01AA24BB2465010F
:101F800020E030E0A901B301617070706115710546
:101F9000D1F02E0D3F1D401F511F15012601280EA7
:101FA000391E4A1E5B1E81E090E0A0E0B0E02E15D5
:101FB0003F054007510718F080E090E0DC01820DFA
:101FC000931DA41DB51DAA0CBB1CCC1CDD1C17FF4A
:101FD00009C061E0262E312C412C512CA228B328B7
:101FE000C428D528319749F0EE0CFF1C001F111FA3
:101FF0009694879477946794C6CF6B897C89EB8598
:10200000FC856E0F7F1F6E5F7F4F7C8F6B8F61E053
:10201000EA857A89E71709F460E06A8F6B8D7C8D19
:1020200010C0FC01E170F070309729F0569547958B
:10203000379527955068B695A795979587956F5FC3
:102040007F4FB7FDEECF0CC0880F991FAA1FBB1F93
:1020500057FD8160220F331F441F551F6150704090
:102060008030E0E09E07E0E0AE07E0E4BE0760F30A
:102070006B8F7C8F6FE7E62EF12C012D112DE8225E
:10208000F9220A231B2360E4E616F1040105110579
:1020900061F487FD0AC0211531054105510529F07C
:1020A000805C9F4FAF4FBF4F80788D8F9E8FAF8FDB
:1020B000B8A383E0898FCE01499602C084E891E0FD
:1020C0000E94B012A096E2E10C948314A8E1B0E063
:1020D000ECE6F0E10C946F1469837A838B839C8324
:1020E0002D833E834F8358878E01075F1F4FCE019C
:1020F0000196B8010E947E1381E1E82EF12CEC0ECE
:10210000FD1ECE010596B7010E947E13998592307F
:1021100008F483C08989823008F47BC02A853A8913
:1021200023272A87943011F0923021F4981709F070
:102130006CC071C0843039F41D861E861F86188AD3
:102140001C861B866AC0823019F484E0898765C0CA
:102150008B859C852B893C89821B930B9C878B8765
:102160002D853E854F855889ED88FE880F89188D0D
:102170002E153F054007510738F4220F331F441F27
:10218000551F01979C878B876FE170E0A12CB12CC4
:10219000C12CA0E4DA2E80E090E0DC012E153F0592
:1021A0004007510740F08A299B29AC29BD292E19E7
:1021B0003F09400B510BD694C794B794A794220FB4
:1021C000331F441F551F6150704041F76FE7E62EE3
:1021D000F12C012D112DE822F9220A231B2360E4A2
:1021E000E616F1040105110561F487FD0AC0211509
:1021F00031054105510529F0805C9F4FAF4FBF4F1E
:1022000080788D879E87AF87B88B8E01075F1F4FC1
:1022100004C0870102C004E811E0C8010E94B012A6
:102220006896EAE00C948B14A8E1B0E0EAE1F1E1F1
:102230000C94731469837A838B839C832D833E83F0
:102240004F8358878E01075F1F4FCE010196B8015B
:102250000E947E1381E1E82EF12CEC0EFD1ECE01D2
:102260000596B7010E947E138985823040F08989E6
:10227000823028F0C801B7010E94E71301C08FEF38
:102280006896E6E00C948F14A8E1B0E0EAE4F1E18E
:102290000C94731469837A838B839C832D833E8390
:1022A0004F8358878E01075F1F4FCE010196B801FB
:1022B0000E947E1381E1E82EF12CEC0EFD1ECE0172
:1022C0000596B7010E947E138985823040F0898986
:1022D000823028F0C801B7010E94E71301C08FEFD8
:1022E0006896E6E00C948F14A8E1B0E0EAE7F1E12B
:1022F0000C94731469837A838B839C832D833E8330
:102300004F8358878E01075F1F4FCE010196B8019A
:102310000E947E1381E1E82EF12CEC0EFD1ECE0111
:102320000596B7010E947E138985823040F0898925
:10233000823028F0C801B7010E94E71301C081E094
:102340006896E6E00C948F14A8E0B0E0EAEAF1E1C8
:102350000C9473147B018C0183E08983D801C7013D
:102360008827B7FD83959927AA27BB27282F8A831B
:10237000E114F1040105110519F482E0898337C0E5
:102380008EE190E09C838B83222389F080E0E81625
:1023900080E0F80680E0080780E8180769F11095EA
:1023A0000095F094E094E11CF11C011D111DED82DB
:1023B000FE820F831887C801B7010E9456129C0144
:1023C000215030401216130694F4022E04C0EE0C75
:1023D000FF1C001F111F0A94D2F7ED82FE820F83AB
:1023E00018878EE190E0821B930B9C838B83CE0138
:1023F00001960E94B01204C060E070E080E09FECA3
:102400002896E6E00C948F14ACE0B0E0EAE0F2E14C
:102410000C94771469837A838B839C83CE01019615
:10242000BE016B5F7F4F0E947E138D81823081F1F0
:10243000823070F1843021F48E81882369F10AC0E2
:102440002F81388537FD24C06E812F3131053CF056
:10245000662311F120E030E040E050E821C08EE139
:1024600090E0821B930B29853A854B855C8504C0DF
:1024700056954795379527958A95D2F7662381F02B
:1024800050954095309521953F4F4F4F5F4F08C075
:1024900020E030E0A90104C02FEF3FEF4FEF5FE7EE
:1024A000B901CA012C96E2E00C949314AF92BF924A
:1024B000CF92DF92EF92FF920F931F937B018C01DB
:1024C00080E0E81680E0F80681E0080780E0180761
:1024D00058F4EFEFEE16F1040105110509F090F440
:1024E00080E090E0DC0117C0F0E0EF16F0E0FF06BE
:1024F000F0E00F07F1E01F0750F480E190E0A0E06A
:10250000B0E009C088E090E0A0E0B0E004C088E15D
:1025100090E0A0E0B0E020E230E040E050E0281B96
:10252000390B4A0B5B0B5701680104C0D694C79462
:10253000B794A7948A95D2F7D601C50184579E4FC8
:10254000FC018081281B310941095109C9011F91F2
:102550000F91FF90EF90DF90CF90BF90AF900895D4
:10256000EF92FF920F931F93CF93DF93FC0124818F
:1025700035814681578161818081823020F44061BC
:10258000EFEFF0E0A3C0843009F49BC0823009F47F
:1025900092C0211531054105510509F48FC0028013
:1025A000F381E02D8FEFE238F8070CF05AC0C2E853
:1025B000DFEFCE1BDF0BCA31D1056CF579018A0143
:1025C0000C2E04C016950795F794E7940A94D2F759
:1025D00081E090E0A0E0B0E00C2E04C0880F991FCD
:1025E000AA1FBB1F0A94D2F70197A109B109822340
:1025F0009323A423B52321E030E040E050E000978E
:10260000A105B10519F420E030E0A9012E293F29E8
:10261000402B512B03C020E030E0A901DA01C901B1
:102620008F779070A070B07080349105A105B105CE
:1026300039F427FF09C0205C3F4F4F4F5F4F04C064
:10264000215C3F4F4F4F5F4FE1E0F0E0203080E0F2
:10265000380780E0480780E4580728F5E0E0F0E01C
:1026600022C0E038F1056CF5E158FF4FDA01C901ED
:102670008F779070A070B07080349105A105B1057E
:1026800039F427FF09C0205C3F4F4F4F5F4F04C014
:10269000215C3F4F4F4F5F4F57FF05C05695479501
:1026A00037952795319687E0569547953795279525
:1026B0008A95D1F70BC0E0E0F0E005C0E0E0F0E083
:1026C00005C0EFEFF0E020E030E0A9018E2F879504
:1026D00088278795942F9F77679566276795E69556
:1026E000E22EA92FA82BFE2FF62B622F732F8A2FF5
:1026F0009F2FCDB7DEB7E6E00C948F14DC01FB0111
:102700002C9111963C91119712968C911297482F0B
:102710004F7750E0982F991F9927991F13966C9126
:102720001397862F880F892B90E0661F6627661FF8
:102730006183009739F5211531054105510511F4E3
:1027400082E029C082E89FEF9383828367E0220FB3
:10275000331F441F551F6A95D1F783E0808309C05A
:10276000220F331F441F551F82819381019793834A
:102770008283203080E0380780E0480780E45807F3
:1027800078F320C08F3F910579F42115310541057B
:10279000510519F484E08083089544FF03C081E06B
:1027A000808310C010820EC08F5790409383828325
:1027B00083E0808387E0220F331F441F551F8A95D3
:1027C000D1F7506424833583468357830895FC01F1
:1027D000DB019081923008F449C08C91823008F47A
:1027E00045C0943051F461818430B1F511962C913B
:1027F000119730E0261B310941C0843021F092301E
:1028000041F48230B1F111968C9111978823A1F196
:102810002DC06181823001F111968C91119768175A
:10282000D9F42281338112968D919C91139782174E
:10283000930794F028173907BCF02481358146812D
:10284000578114968D919D910D90BC91A02D82176A
:102850009307A407B50718F4662341F00DC02817A5
:1028600039074A075B0728F4662331F021E030E09E
:1028700005C020E030E002C02FEF3FEFC90108950E
:1028800097FB092E07260AD077FD04D00CD006D07E
:1028900000201AF4709561957F4F0895F6F7909592
:1028A00081959F4F0895AA1BBB1B51E107C0AA1F2A
:1028B000BB1FA617B70710F0A61BB70B881F991FE1
:1028C0005A95A9F780959095BC01CD0108952F9256
:1028D0003F924F925F926F927F928F929F92AF92B0
:1028E000BF92CF92DF92EF92FF920F931F93CF93FD
:1028F000DF93CDB7DEB7CA1BDB0B0FB6F894DEBF94
:102900000FBECDBF09942A88398848885F846E84B9
:102910007D848C849B84AA84B984C884DF80EE8003
:10292000FD800C811B81AA81B981CE0FD11D0FB60C
:10293000F894DEBF0FBECDBFED0108950F931F9336
:10294000CF93DF938C01EB01009711F42097C9F12D
:1029500081E090E06EE070E00E944217FC019C0173
:10296000009789F180E88383209771F0D387C2872D
:1029700081E8838380919E0290919F02009721F4C9
:10298000F0939F02E0939E0201151105E1F011877B
:1029900000878381826083838091A0029091A1024D
:1029A000009789F4F093A102E093A0028091A20223
:1029B0009091A302009739F4F093A302E093A2024E
:1029C00002C020E030E0C901DF91CF911F910F914B
:1029D0000895DF93CF93CDB7DEB7FE0135966191B1
:1029E00071918091A0029091A102AF010E943215D5
:1029F000CF91DF910895EF92FF920F931F93CF93A2
:102A0000DF938C01E091A002F091A102838181FF0C
:102A10001FC0C0E0D0E00AC0DB011896ED91FC9128
:102A200019970995009711F0CFEFDFEFF801819129
:102A30008F016091A0027091A102882369F7DB01E8
:102A40001896ED91FC9119978AE00995009711F07D
:102A5000CFEFDFEFCE01DF91CF911F910F91FF906C
:102A6000EF9008952F923F924F925F926F927F92D4
:102A70008F929F92AF92BF92CF92DF92EF92FF928E
:102A80000F931F93DF93CF93CDB7DEB72C970FB67D
:102A9000F894DEBF0FBECDBF6C011B018A01FC01A3
:102AA00017821682838181FFD1C12E010894411CB7
:102AB000511CF6019381F10193FD859193FF819162
:102AC0001F01882309F4BEC1853239F493FD859135
:102AD00093FF81911F01853229F490E0B6010E9495
:102AE000B718E7CFEE24FF2420E02032B0F48B3279
:102AF00069F08C3228F4803251F0833271F40BC0CB
:102B00008D3239F0803349F421602CC0226024607A
:102B100029C0286027C0206125C027FD2CC0382F80
:102B200030533A3098F426FF08C08E2D880FE82ED7
:102B3000EE0CEE0CE80EE30E15C08F2D880FF82E6C
:102B4000FF0CFF0CF80EF30E20620CC08E3221F445
:102B500026FD78C1206406C08C3611F4206802C0BE
:102B6000883649F4F10193FD859193FF81911F010E
:102B7000882309F0BACF982F9554933018F09052CB
:102B8000933028F40C5F1F4FFFE3F9830DC08336A9
:102B900031F0833771F0833509F060C022C0F8014D
:102BA000808189830E5F1F4F420171E0A72EB12CF7
:102BB00016C062E0662E712C600E711EF8018080D6
:102BC000918026FF03C06E2D70E002C06FEF7FEF93
:102BD000C4012C870E94AC185C0183012C852F77DF
:102BE00017C052E0652E712C600E711EF8018080B6
:102BF000918026FF03C06E2D70E002C06FEF7FEF63
:102C0000C4012C870E949A185C012C8520688301DE
:102C100023FD20C008C080E290E0B6012C870E940E
:102C2000B718FA942C858F2D90E0A816B90698F362
:102C300011C0F40127FD859127FF81914F0190E09C
:102C4000B6012C870E94B7182C85F110FA940894CD
:102C5000A108B108A114B10461F7F1C0843611F0E4
:102C6000893649F527FF08C0F801608171818281AA
:102C700093810C5F1F4F09C0F80160817181882723
:102C800077FD8095982F0E5F1F4F4FE6B42EB2222E
:102C900097FF09C090958095709561957F4F8F4FF4
:102CA0009F4FF0E8BF2AA2012AE030E00E94E3181B
:102CB000782E741845C0853731F43FEEB32EB2221A
:102CC0002AE030E025C099EFB92EB2228F36C1F04C
:102CD000803720F4883509F0B5C00DC0803721F069
:102CE000883709F0AFC002C020E1B22AB4FE0BC0A1
:102CF00084E0B82A08C0B4FE09C0E6E0BE2A06C0D7
:102D000028E030E005C020E130E002C020E132E000
:102D1000B7FE08C0F80160817181828193810C5FE8
:102D20001F4F07C0F8016081718180E090E00E5F65
:102D30001F4FA2010E94E318782E7418FFE7BF22EC
:102D4000B6FE0BC02EEFB2227E1438F4B4FE07C0DC
:102D5000B2FC05C08FEEB82202C0A72C01C0AE2C79
:102D60008B2D90E0B4FE0DC0FE01E70DF11D20811A
:102D7000203319F4E9EEBE2209C0A394B2FE06C0C6
:102D800004C086789070009709F0A3948B2C992446
:102D9000B3FC14C0B0FE0FC0AF1428F4E72CEF0C46
:102DA000EA18AF2C08C0E72C06C080E290E0B6011C
:102DB0000E94B718A394AF14C0F304C0AF1410F46A
:102DC000FA1801C0FF2484FE0FC080E390E0B60132
:102DD0000E94B71882FE1FC081FE03C088E590E004
:102DE00010C088E790E00DC0C4018678907000970D
:102DF00091F081FC02C080E201C08BE2B7FC8DE261
:102E000090E0B6010E94B71806C080E390E0B601DA
:102E10000E94B718EA947E14C0F37A94F201E70D89
:102E2000F11D808190E0B6010E94B7187720A9F7C4
:102E300006C080E290E0B6010E94B718FA94FF2025
:102E4000C1F737CEF6012681378102C02FEF3FEF61
:102E5000C9012C960FB6F894DEBF0FBECDBFCF913F
:102E6000DF911F910F91FF90EF90DF90CF90BF9077
:102E7000AF909F908F907F906F905F904F903F901A
:102E80002F900895EF92FF920F931F93CF93DF93AC
:102E9000689F8001699F100D789F100D1124C80153
:102EA0000E946717E82EE7017E01F92EE7012097BF
:102EB00031F08E2D60E070E0A8010E94A518CE01CF
:102EC000DF91CF911F910F91FF90EF900895CF93D5
:102ED000DF938230910510F482E090E0E091A60249
:102EE000F091A70240E050E020E030E026C0608191
:102EF000718168177907E0F06817790781F482819A
:102F000093812115310531F0D90113969C938E934D
:102F100012972BC09093A7028093A60226C041155A
:102F2000510519F06417750718F4AB01E901DF01C9
:102F30009F0172816381E72FF62F3097C1F641150B
:102F4000510501F1481B590B4430510580F412968C
:102F50008D919C911397209719F09B838A8304C0CD
:102F60009093A7028093A602FD01329646C0FD0110
:102F7000E40FF51F819391934250504011965C935A
:102F80004E933BC02091A4023091A502211531053A
:102F900041F420918E0230918F023093A50220934C
:102FA000A40220919002309191022115310541F443
:102FB0002DB73EB740918C0250918D02241B350BEA
:102FC000E091A402F091A502E217F307A0F42E1BF2
:102FD0003F0B2817390778F0AC014E5F5F4F24177D
:102FE000350748F04E0F5F1F5093A5024093A4028F
:102FF0008193919302C0E0E0F0E0CF01DF91CF91A7
:103000000895CF93DF93009709F491C0FC013297A4
:10301000138212826091A6027091A7026115710558
:1030200081F420813181280F391F8091A402909171
:10303000A5028217930799F5F093A502E093A402E5
:1030400076C0DB0180E090E002C0CD01D901AE176F
:10305000BF0748F412962D913C9113972115310525
:10306000A1F7CD0121C0B383A283EF01499159910A
:103070009E01240F351FA217B30779F42D913C91BF
:103080001197240F351F2E5F3F4F318320831296F7
:103090002D913C91139733832283009729F4F09369
:1030A000A702E093A60243C0DC011396FC93EE93C3
:1030B00012974D915D91A40FB51FEA17FB0769F4B4
:1030C00020813181240F351F2E5F3F4FEC01398362
:1030D0002883228133813B832A83E0E0F0E002C031
:1030E000FB01BC01DB0112968D919C911397009717
:1030F000B9F79B012E5F3F4F8D919C911197820FE5
:10310000931F4091A4025091A5024817590779F4E2
:10311000309729F41092A7021092A60202C01382DF
:103120001282225030403093A5022093A402DF91F6
:10313000CF910895FC010590615070400110D8F7BF
:10314000809590958E0F9F1F0895DC0101C06D93AF
:1031500041505040E0F70895FC01615070400190EB
:103160000110D8F7809590958E0F9F1F08950F93AB
:103170001F93CF93DF938C01EB018B8181FF1BC0E9
:1031800082FF0DC02E813F818C819D8128173907D8
:1031900064F4E881F9810193F983E88306C0E88546
:1031A000F985802F0995009731F48E819F810196D2
:1031B0009F838E8302C00FEF1FEFC801DF91CF9175
:1031C0001F910F910895FA01AA27283051F120315B
:1031D00081F1E8946F936E7F6E5F7F4F8F4F9F4FAB
:1031E000AF4FB1E03ED0B4E03CD0670F781F891FED
:1031F0009A1FA11D680F791F8A1F911DA11D6A0FBB
:10320000711D811D911DA11D20D009F468943F916D
:103210002AE0269F11243019305D3193DEF6CF016C
:103220000895462F4770405D4193B3E00FD0C9F732
:10323000F6CF462F4F70405D4A3318F0495D31FD9F
:103240004052419302D0A9F7EACFB4E0A6959795F2
:10325000879577956795BA95C9F7009761057105C8
:1032600008959B01AC010A2E069457954795379512
:103270002795BA95C9F7620F731F841F951FA01D6C
:063280000895F894FFCF51
:10328600464F5257415244200D004241434B57414D
:103296005244200D000D0A200D0A2048692C2049B1
:1032A60020616D204E4F4445203220616E642074AB
:1032B600686973206973204E4F54206A61636B619D
:1032C60073732C20627574207765206172652067A0
:1032D600657474696E672074686572650D00526561
:1032E600616420456E636F6465723A202564200D23
:1032F6000A00474F41414141414C733A2025642021
:103306000D0A00F8000000000000000000010202A3
:103316000303030304040404040404040505050567
:103326000505050505050505050505050606060643
:103336000606060606060606060606060606060627
:103346000606060606060606060606060707070713
:1033560007070707070707070707070707070707F7
:1033660007070707070707070707070707070707E7
:1033760007070707070707070707070707070707D7
:1033860007070707070707070707070708080808C3
:1033960008080808080808080808080808080808A7
:1033A6000808080808080808080808080808080897
:1033B6000808080808080808080808080808080887
:1033C6000808080808080808080808080808080877
:1033D6000808080808080808080808080808080867
:1033E6000808080808080808080808080808080857
:1033F6000808080808080808080808080808080847
:103406000808080808080808080808082000A8028C
:023416000000B4
:00000001FF
