:100000000C9446000C9465000C9465000C946500FB
:100010000C9465000C94AA000C9465000C94650087
:100020000C9465000C9465000C9465000C946500BC
:100030000C9465000C9465000C9465000C946500AC
:100040000C9465000C9465000C9465000C9465009C
:100050000C9465000C9465000C9465000C9465008C
:100060000C9465000C9465000C9465000C9465007C
:100070000C9465000C9465000C9465000C9465006C
:100080000C9465000C9465000C94650011241FBE4F
:10009000CFEFD0E1DEBFCDBF13E0A0E0B1E0ECE5F3
:1000A000F4E200E00BBF02C007900D92A034B1074C
:1000B000D9F713E0A0E4B3E001C01D92AB34B1075F
:1000C000E1F70E949C010C942C120C940000DF9329
:1000D000CF9300D0CDB7DEB78A838A81882F90E096
:1000E00082309105A9F08330910534F4009759F0DE
:1000F0008130910551F015C08330910561F0843055
:10010000910561F00EC019820CC080E2898309C09C
:1001100080E4898306C080E6898303C080E8898300
:1001200000008FE069810E942B0580E660E60E9456
:100130002B0580E760E60E942B058CE260E00E94C0
:100140002B058BE26FE10E942B050F900F90CF9152
:10015000DF9108951F920F920FB60F9200905B00EF
:100160000F9211242F933F934F935F936F937F933D
:100170008F939F93AF93BF93EF93FF93DF93CF93AF
:100180000F92CDB7DEB78CE20E94E80489838CE23F
:1001900060E00E942B0580E091E00E94E60D8981DD
:1001A000882F90E081709070882349F084E291E07C
:1001B0000E94E60D80914003816080934003898115
:1001C000882F90E082709070009749F088E491E069
:1001D0000E94E60D809140038260809340038981F4
:1001E000882F90E084709070009749F08CE691E041
:1001F0000E94E60D809140038460809340038981D2
:10020000882F90E088709070009749F080E991E025
:100210000E94E60D809140038860809340038981AD
:10022000882F90E080719070009749F084EB91E006
:100230000E94E60D80914003806180934003898194
:10024000882F90E0807290700097C1F08DE20E943C
:10025000E804282F30E000D000D08DB79EB701967B
:1002600048ED51E0FC0151834083FC01338322833C
:100270000E94D40D0F900F900F900F908981882FBE
:1002800090E080749070009721F082E192E00E94EB
:10029000E60D8981882324F48BE292E00E94E60D2A
:1002A0000F90CF91DF91FF91EF91BF91AF919F910F
:1002B0008F917F916F915F914F913F912F910F900F
:1002C00000925B000F900FBE0F901F901895DF9368
:1002D000CF93CDB7DEB782E290E022E230E0F901C1
:1002E00020812F7EFC01208382E390E022E330E036
:1002F000F90120812061FC0120838AE590E02AE554
:1003000030E0F90120812260FC0120838AE590E041
:100310002AE530E0F90120812E7FFC01208389E568
:1003200090E029E530E0F90120812061FC01208383
:100330007894CF91DF9108950F931F93DF93CF931C
:10034000CDB7DEB7CF55D0400FB6F894DEBF0FBEA5
:10035000CDBF8BE190E00E94A9070E9467010E9437
:10036000160484E492E00E94E60D0E94340480E0CA
:100370000E9467008CE261E00E942B05198280E0F8
:1003800090E0A0EAB0E48A839B83AC83BD836A815A
:100390007B818C819D8120E030E04AE754E40E941B
:1003A000E609DC01CB018E839F83A887B98711E022
:1003B0006E817F818885998520E030E040E85FE3A9
:1003C0000E94400B88230CF010E0112329F081E0FB
:1003D00090E09B878A8746C011E06E817F81888587
:1003E000998520E03FEF4FE757E40E94E00A181696
:1003F0000CF010E0112361F16A817B818C819D8179
:1004000020E030E040E251E40E94E609DC01CB014B
:10041000BC01CD010E941208DC01CB019B878A87B9
:1004200012C084E690E09D878C878C859D858C0129
:10043000C8010197F1F78C011D870C878A859B8580
:1004400001979B878A878A859B85009751F717C0FC
:100450006E817F81888599850E941208DC01CB011D
:100460009B878A878A859B859F878E878E859F85B8
:100470008C01D8011197F1F78D011F870E878091AC
:100480004003882F90E081709070882309F45EC04B
:10049000809140038E7F80934003CE018B5A9F4F03
:1004A00060E00E942C069E012B5A3F4FCE01C4965D
:1004B0004BE0F90100802F5F3F4FDC010C92019669
:1004C00041504423B1F7CE01865B9F4F9E012C5CC7
:1004D0003F4F4BE0F90100802F5F3F4FDC010C9252
:1004E000019641504423B1F74CA95DA98EA9282F4C
:1004F00030E0EDB7FEB738970FB6F894FEBF0FBEE9
:10050000EDBF8DB79EB701966DE872E0DC016D938B
:100510007C93FC0153834283DC0115963C932E931C
:1005200014979E012C5C3F4F2D5F3F4FFC0137839A
:1005300026830E94D40D8DB79EB708960FB6F89407
:100540009EBF0FBE8DBF81E089836DC08091400347
:10055000882F90E082709070009709F464C08091B9
:1005600040038D7F80934003CE018B5A9F4F61E003
:100570000E942C069E012B5A3F4FCE01CF964BE096
:10058000D9010C902F5F3F4FFC0100820196415032
:100590004423B1F7CE01865B9F4F9E01215C3F4F04
:1005A0004BE0D9010C902F5F3F4FFC010082019678
:1005B00041504423B1F7CE01CF96DC014D915C91BF
:1005C000CE018F5B9F4FFC018081282F30E08DB7DB
:1005D0009EB708970FB6F8949EBF0FBE8DBF8DB71C
:1005E0009EB7019664EB72E0DC016D937C93FC0195
:1005F00053834283DC0115963C932E9314979E01FE
:10060000215C3F4F2D5F3F4FFC01378326830E94C3
:10061000D40D8DB79EB708960FB6F8949EBF0FBE47
:100620008DBF81E089838981882309F47EC0CE0152
:10063000865B9F4FDC018D919C9111978A309105CB
:10064000E9F5CE01865B9F4FFC018381682F70E046
:10065000CE01865B9F4FDC0114968C91482F50E0B1
:10066000CE01865B9F4FFC018581282F30E08DB73E
:100670009EB708970FB6F8949EBF0FBE8DBF8DB77B
:100680009EB70196EBEDF2E0DC01ED93FC93FC01EB
:1006900073836283DC0115965C934E931497FC017F
:1006A000378326830E94D40D8DB79EB708960FB668
:1006B000F8949EBF0FBE8DBF198237C01982CE013C
:1006C000CF96DC014D915C91CE018F5B9F4FFC0179
:1006D0008081282F30E08DB79EB708970FB6F89429
:1006E0009EBF0FBE8DBF8DB79EB7019660E073E0D1
:1006F000DC016D937C93FC0153834283DC011596EE
:100700003C932E9314979E01215C3F4F2D5F3F4FEA
:10071000FC01378326830E94D40D8DB79EB70896BF
:100720000FB6F8949EBF0FBE8DBF80E090E0A8E4A6
:10073000B2E4888B998BAA8BBB8B688979898A896B
:100740009B8920E030E04AE754E40E94E609DC019E
:10075000CB018C8B9D8BAE8BBF8B11E06C897D891F
:100760008E899F8920E030E040E85FE30E94400BE3
:1007700088230CF010E0112329F081E090E0998F9C
:10078000888F46C011E06C897D898E899F8920E021
:100790003FEF4FE757E40E94E00A18160CF010E014
:1007A000112361F1688979898A899B8920E030E089
:1007B00040E251E40E94E609DC01CB01BC01CD011D
:1007C0000E941208DC01CB01998F888F12C084E649
:1007D00090E09B8F8A8F8A8D9B8D8C01D801119719
:1007E000F1F78D011B8F0A8F888D998D0197998F55
:1007F000888F888D998D009751F741CE6C897D89BE
:100800008E899F890E941208DC01CB01998F888F05
:10081000888D998D9D8F8C8F8C8D9D8D8C01F8018D
:100820003197F1F78F011D8F0C8F29CEDF93CF9376
:10083000CDB7DEB787E390E027E0FC01208388E3B3
:1008400090E028E330E0F90120812160FC01208361
:100850008DE290E02DE230E0F90120812165FC017C
:100860002083CF91DF9108950F931F93DF93CF9350
:10087000CDB7DEB72E970FB6F894DEBF0FBECDBF53
:1008800088E390E028E330E0F90120812E7FFC012D
:1008900020838FE290E020ECFC0120838EE290E048
:1008A000FC0180818823D4F788E390E028E330E0DE
:1008B000F90120812160FC01208380E090E0A0E22A
:1008C000B1E489839A83AB83BC8369817A818B810C
:1008D0009C8120E030E04AE754E40E94E609DC0114
:1008E000CB018D839E83AF83B88711E06D817E81BC
:1008F0008F81988520E030E040E85FE30E94400B64
:1009000088230CF010E0112329F081E090E09A8711
:10091000898746C011E06D817E818F81988520E0B6
:100920003FEF4FE757E40E94E00A18160CF010E082
:10093000112361F169817A818B819C8120E030E013
:1009400040E251E40E94E609DC01CB01BC01CD018B
:100950000E941208DC01CB019A87898712C084E6C5
:1009600090E09C878B878B859C858C01C8010197C3
:10097000F1F78C011C870B8789859A8501979A87E7
:10098000898789859A85009751F717C06D817E8187
:100990008F8198850E941208DC01CB019A87898794
:1009A00089859A859E878D878D859E858C01F80126
:1009B0003197F1F78F011E870D872E960FB6F894A9
:1009C000DEBF0FBECDBFCF91DF911F910F91089574
:1009D000DF93CF9300D0CDB7DEB78A8388E390E072
:1009E00028E330E0F90120812E7FFC0120838FE293
:1009F00090E023E0FC0120838EE290E0FC01808106
:100A00008823D4F78FE290E02A81FC0120838EE2D4
:100A100090E0FC0180818823D4F78FE290E0FC0114
:100A200010828EE290E0FC0180818823D4F78FE26F
:100A300090E0FC018081898388E390E028E330E046
:100A4000F90120812160FC01208389810F900F90A2
:100A5000CF91DF910895DF93CF9300D0CDB7DEB76C
:100A600089836A8388E390E028E330E0F9012081FC
:100A70002E7FFC0120838FE290E022E0FC012083A6
:100A80008EE290E0FC0180818823D4F78FE290E031
:100A90002981FC0120838EE290E0FC018081882383
:100AA000D4F78FE290E02A81FC0120838EE290E06F
:100AB000FC0180818823D4F788E390E028E330E0CC
:100AC000F90120812160FC0120830F900F90CF91CC
:100AD000DF910895DF93CF930F92CDB7DEB789836F
:100AE00088E390E028E330E0F90120812E7FFC01CB
:100AF00020838981882F90E08130910559F08230E0
:100B0000910571F0009791F48FE290E021E8FC01EB
:100B100020830CC08FE290E022E8FC01208306C015
:100B20008FE290E024E8FC01208300008EE290E058
:100B3000FC0180818823D4F788E390E028E330E04B
:100B4000F90120812160FC0120830F90CF91DF917A
:100B50000895DF93CF9300D00F92CDB7DEB789838E
:100B60006A834B8388E390E028E330E0F901208139
:100B70002E7FFC0120838FE290E025E0FC012083A2
:100B80008EE290E0FC0180818823D4F78FE290E030
:100B90002981FC0120838EE290E0FC018081882382
:100BA000D4F78FE290E02A81FC0120838EE290E06E
:100BB000FC0180818823D4F78FE290E02B81FC0137
:100BC00020838EE290E0FC0180818823D4F788E3C3
:100BD00090E028E330E0F90120812160FC012083CE
:100BE0000F900F900F90CF91DF910895DF93CF93E7
:100BF0000F92CDB7DEB788E390E028E330E0F9014B
:100C000020812E7FFC0120838FE290E020EAFC010E
:100C100020838EE290E0FC0180818823D4F78FE26C
:100C200090E0FC0110828EE290E0FC01808188233C
:100C3000D4F78FE290E0FC018081898388E390E023
:100C400028E330E0F90120812160FC0120838981C3
:100C50000F90CF91DF910895DF93CF93CDB7DEB79B
:100C60002D970FB6F894DEBF0FBECDBFAC016D87D8
:100C700088E390E028E330E0F90120812E7FFC0139
:100C800020838D85882331F48FE290E020E9FC01F8
:100C9000208305C08FE290E024E9FC0120838EE2EE
:100CA00090E0FC0180818823D4F78FE290E0FC0182
:100CB00010828EE290E0FC0180818823D4F78FE2DD
:100CC00090E0FC018081882F90E0880F991F880FA9
:100CD000991F880F991F9B838A838FE290E0FC0104
:100CE00010828EE290E0FC0180818823D4F72A8173
:100CF0003B818FE290E0FC01808182958695877030
:100D0000882F90E09070822B932B9B838A838FE2B5
:100D100090E0FC0110828EE290E0FC01808188234B
:100D2000D4F78FE290E0FC0110828EE290E0FC01AB
:100D300080818823D4F78FE290E0FC0110828EE25C
:100D400090E0FC0180818823D4F78FE290E0FC01E1
:100D500080818F708C8319821BC08FE290E0FC0130
:100D600010828EE290E0FC0180818823D4F7898193
:100D7000882F90E02FE230E0F90160819E012B5F27
:100D80003F4F820F931FFC01608389818F5F8983AE
:100D90009C818981891708F388E390E028E330E09B
:100DA000F90120812160FC012083CA019E012E5F90
:100DB0003F4F6BE0F90100802F5F3F4FFC01008245
:100DC000019661506623B1F7CA012D960FB6F894CB
:100DD000DEBF0FBECDBFCF91DF910895CF92DF92DE
:100DE000EF92FF920F931F93DF93CF93CDB7DEB7B0
:100DF0002E970FB6F894DEBF0FBECDBF8B83CC828B
:100E0000DD82EE82FF82088719872A873B874C871D
:100E10005D876E8788E390E028E330E0F901208168
:100E20002E7FFC0120838B81882329F48FE290E0C0
:100E300020E4FC0120838B81813031F48FE290E04B
:100E400022E4FC01208305C08FE290E024E4FC0151
:100E500020838EE290E0FC0180818823D4F78C818E
:100E60009D819695879596958795969587958A8382
:100E70008FE290E02A81FC0120838EE290E0FC0169
:100E800080818823D4F78C819D818295880F807E14
:100E90008A838FE290E02A81FC0120838EE290E039
:100EA000FC0180818823D4F78FE290E0FC0110825E
:100EB0008EE290E0FC0180818823D4F78FE290E0FD
:100EC000FC0110828EE290E0FC0180818823D4F73F
:100ED0008FE290E02E812F70FC0120838EE290E063
:100EE000FC0180818823D4F7198217C08FE290E03B
:100EF0002981222F30E0AE01495F5F4F240F351F5B
:100F0000F9012081FC0120838EE290E0FC018081C8
:100F10008823D4F789818F5F89839E81898189178E
:100F200028F388E390E028E330E0F9012081216094
:100F3000FC0120832E960FB6F894DEBF0FBECDBF06
:100F4000CF91DF911F910F91FF90EF90DF90CF90A5
:100F50000895DF93CF9300D0CDB7DEB79A8389830E
:100F600088E990E029813A81232F3327FC012083EF
:100F700089E990E02981FC0120838AE990E028E159
:100F8000FC0120838DE990E026E8FC0120838BEEB4
:100F900097E023ED37E0B9010E94890D0F900F9083
:100FA000CF91DF910895DF93CF930F92CDB7DEB746
:100FB00000008BE990E0FC0180818823D4F78CE964
:100FC00090E0FC01808189838981882F90E00F90D7
:100FD000CF91DF910895DF93CF930F92CDB7DEB716
:100FE000898300008BE990E0FC018081882F90E0EC
:100FF000807290700097B1F38CE990E02981FC0138
:10100000208300008BE990E0FC018081882F90E034
:10101000807490700097B1F380E090E00F90CF91D2
:10102000DF910895EF92FF920F931F937B018C0144
:1010300020E030E040E05FE40E94100B87FD11C02B
:10104000C801B70120E030E040E05FE40E94B5094C
:101050000E94700B9B01AC01205030404040504832
:1010600006C0C801B7010E94700B9B01AC01B90119
:10107000CA011F910F91FF90EF900895A0E0B0E09A
:10108000E4E4F8E00C94560DFC01EA018081823022
:1010900008F438C1DB019C91923008F430C18430EF
:1010A00059F4943009F02EC1918111968C911197C9
:1010B000981709F021C126C1943009F420C192305B
:1010C000B1F4823009F01EC1CA01AF0128E0DA0193
:1010D0000D90AD01DC010D92CD012150C1F7DB0176
:1010E00011968C9111979181892389830AC182304D
:1010F00009F405C1C280D380DB0112966D907C900B
:10110000139724813581468157811496ED90FD9087
:101110000D911C911797C601861997095C0197FFDD
:1011200004C0AA24BB24A81AB90AB0E2AB16B104C1
:101130000CF061C0181619066CF5370148010A2C2D
:1011400004C096948794779467940A94D2F781E0C8
:1011500090E0A0E0B0E00A2C04C0880F991FAA1FFD
:10116000BB1F0A94D2F70197A109B1098E219F21D3
:10117000A023B123EE24FF248701E3940097A10567
:10118000B10519F4EE24FF248701E628F728082981
:1011900019293CC00097D1F1CA0CDB1C39014A0166
:1011A0000A2C04C096948794779467940A94D2F793
:1011B00081E090E0A0E0B0E00A2C04C0880F991F05
:1011C000AA1FBB1F0A94D2F70197A109B109822374
:1011D0009323A423B52321E030E040E050E00097C2
:1011E000A105B10519F420E030E0A901262937292D
:1011F000482959290BC06C147D0424F4EE24FF24E3
:10120000870104C0630120E030E0A9018181FB0176
:101210009181891709F445C0882349F0D801C70195
:10122000821B930BA40BB50B9C01AD0104C02E19BE
:101230003F09400B510B57FD04C01982DB82CA8263
:101240000BC081E08983DB82CA825095409530953E
:1012500021953F4F4F4F5F4F2C833D834E835F83DC
:101260000DC0880F991FAA1FBB1F8C839D83AE835F
:10127000BF838A819B8101979B838A838C819D8117
:10128000AE81BF819C01AD012150304040405040B3
:101290002F3FEFEF3E07EFEF4E07EFE35E0708F358
:1012A0000BC08983DB82CA822E0D3F1D401F511F58
:1012B0002C833D834E835F8383E088832C813D8133
:1012C0004E815F8157FF1DC0DA01C90181709070A6
:1012D000A070B0705695479537952795822B932B24
:1012E000A42BB52B8C839D83AE83BF838A819B8186
:1012F00001969B838A8305C0E2E3F3E003C0FB0110
:1013000001C0FE01CF01CDB7DEB7EEE00C94720D47
:10131000A0E2B0E0EEE8F9E00C945E0D69837A8318
:101320008B839C832D833E834F83588789E0E82EEF
:10133000F12CEC0EFD1ECE010196B7010E94900C1F
:101340008E010F5E1F4FCE010596B8010E94900CD2
:10135000C701B801AE01475E5F4F0E943E080E9480
:10136000C20BA096E6E00C947A0DA0E2B0E0EBEBA5
:10137000F9E00C945E0D69837A838B839C832D83C3
:101380003E834F8358878E01075F1F4FCE01019622
:10139000B8010E94900C91E1E92EF12CEC0EFD1E9B
:1013A000CE010596B7010E94900C8A8991E08927A9
:1013B0008A8BC801B701AE01475E5F4F0E943E08AD
:1013C0000E94C20BA096E6E00C947A0DA0E2B0E079
:1013D000ECEEF9E00C94520D69837A838B839C8345
:1013E0002D833E834F835887CE010196BE01675FF0
:1013F0007F4F0E94900CCE010596BE016F5E7F4F1D
:101400000E94900C9985923078F089898230C0F0E2
:10141000943019F4823041F4CBC0843019F4923006
:1014200079F4C6C0923051F481E02A859A8929174F
:1014300009F480E08A87CE010996BCC0823051F45D
:1014400081E02A859A89291709F480E08A8BCE01E8
:101450004196B0C06D847E848F849888ED88FE8824
:101460000F89188DE0E2F0E080E090E0DC01AA2432
:10147000BB24650120E030E0A901B3016170707008
:1014800061157105D1F02E0D3F1D401F511F150133
:101490002601280E391E4A1E5B1E81E090E0A0E066
:1014A000B0E02E153F054007510718F080E090E0AE
:1014B000DC01820D931DA41DB51DAA0CBB1CCC1C08
:1014C000DD1C17FF09C061E0262E312C412C512C68
:1014D000A228B328C428D528319749F0EE0CFF1C68
:1014E000001F111F9694879477946794C6CF6B89D9
:1014F0007C89EB85FC856E0F7F1F6E5F7F4F7C8F35
:101500006B8F61E0EA857A89E71709F460E06A8FFA
:101510006B8D7C8D10C0FC01E170F070309729F06C
:1015200056954795379527955068B695A795979501
:1015300087956F5F7F4FB7FDEECF0CC0880F991F67
:10154000AA1FBB1F57FD8160220F331F441F551F69
:10155000615070408030E0E09E07E0E0AE07E0E4DC
:10156000BE0760F36B8F7C8F6FE7E62EF12C012DA9
:10157000112DE822F9220A231B2360E4E616F10468
:101580000105110561F487FD0AC0211531054105EA
:10159000510529F0805C9F4FAF4FBF4F80788D8FF2
:1015A0009E8FAF8FB8A383E0898FCE01499602C08A
:1015B00082E393E00E94C20BA096E2E10C946E0DD0
:1015C000A8E1B0E0E6EEFAE00C945E0D69837A8360
:1015D0008B839C832D833E834F8358878E01075FC7
:1015E0001F4FCE010196B8010E94900C81E1E82EB8
:1015F000F12CEC0EFD1ECE010596B7010E94900C59
:101600008985823040F08989823028F0C801B7018D
:101610000E94F90C01C08FEF6896E6E00C947A0DF9
:10162000A8E1B0E0E6E1FBE00C945E0D69837A830B
:101630008B839C832D833E834F8358878E01075F66
:101640001F4FCE010196B8010E94900C81E1E82E57
:10165000F12CEC0EFD1ECE010596B7010E94900CF8
:101660008985823040F08989823028F0C801B7012D
:101670000E94F90C01C08FEF6896E6E00C947A0D99
:10168000A8E1B0E0E6E4FBE00C945E0D69837A83A8
:101690008B839C832D833E834F8358878E01075F06
:1016A0001F4FCE010196B8010E94900C81E1E82EF7
:1016B000F12CEC0EFD1ECE010596B7010E94900C98
:1016C0008985823040F08989823028F0C801B701CD
:1016D0000E94F90C01C081E06896E6E00C947A0D56
:1016E000ACE0B0E0E6E7FBE00C94620D69837A833E
:1016F0008B839C83CE010196BE016B5F7F4F0E945E
:10170000900C8D81823081F1823070F1843021F42F
:101710008E81882369F10AC02F81388537FD24C066
:101720006E812F3131053CF0662311F120E030E06D
:1017300040E050E821C08EE190E0821B930B2985A8
:101740003A854B855C8504C0569547953795279516
:101750008A95D2F7662381F0509540953095219572
:101760003F4F4F4F5F4F08C020E030E0A90104C059
:101770002FEF3FEF4FEF5FE7B901CA012C96E2E090
:101780000C947E0DEF92FF920F931F93CF93DF93F4
:10179000FC012481358146815781618180818230BD
:1017A00020F44061EFEFF0E0A3C0843009F49BC067
:1017B000823009F492C0211531054105510509F423
:1017C0008FC00280F381E02D8FEFE238F8070CF034
:1017D0005AC0C2E8DFEFCE1BDF0BCA31D1056CF572
:1017E00079018A010C2E04C016950795F794E794A9
:1017F0000A94D2F781E090E0A0E0B0E00C2E04C0A3
:10180000880F991FAA1FBB1F0A94D2F70197A1093D
:10181000B10982239323A423B52321E030E040E0E3
:1018200050E00097A105B10519F420E030E0A901CE
:101830002E293F29402B512B03C020E030E0A90185
:10184000DA01C9018F779070A070B0708034910573
:10185000A105B10539F427FF09C0205C3F4F4F4F68
:101860005F4F04C0215C3F4F4F4F5F4FE1E0F0E01E
:10187000203080E0380780E0480780E4580728F5EA
:10188000E0E0F0E022C0E038F1056CF5E158FF4FF0
:10189000DA01C9018F779070A070B0708034910523
:1018A000A105B10539F427FF09C0205C3F4F4F4F18
:1018B0005F4F04C0215C3F4F4F4F5F4F57FF05C044
:1018C0005695479537952795319687E056954795D4
:1018D000379527958A95D1F70BC0E0E0F0E005C079
:1018E000E0E0F0E005C0EFEFF0E020E030E0A9013B
:1018F0008E2F879588278795942F9F7767956627E2
:101900006795E695E22EA92FA82BFE2FF62B622FC6
:10191000732F8A2F9F2FCDB7DEB7E6E00C947A0D98
:10192000DC01FB012C9111963C91119712968C9140
:101930001297482F4F7750E0982F991F9927991F9A
:1019400013966C911397862F880F892B90E0661F52
:101950006627661F6183009739F52115310541051A
:10196000510511F482E029C082E89FEF93838283BE
:1019700067E0220F331F441F551F6A95D1F783E09C
:10198000808309C0220F331F441F551F828193811A
:10199000019793838283203080E0380780E04807F6
:1019A00080E4580778F320C08F3F910579F4211522
:1019B00031054105510519F484E08083089544FF01
:1019C00003C081E0808310C010820EC08F5790400A
:1019D0009383828383E0808387E0220F331F441F39
:1019E000551F8A95D1F750642483358346835783E6
:1019F0000895FC01DB019081923008F449C08C917C
:101A0000823008F445C0943051F461818430B1F5DE
:101A100011962C91119730E0261B310941C084307A
:101A200021F0923041F48230B1F111968C911197EE
:101A30008823A1F12DC06181823001F111968C9132
:101A400011976817D9F42281338112968D919C9158
:101A500013978217930794F028173907BCF0248155
:101A600035814681578114968D919D910D90BC9141
:101A7000A02D82179307A407B50718F4662341F039
:101A80000DC0281739074A075B0728F4662331F091
:101A900021E030E005C020E030E002C02FEF3FEF52
:101AA000C90108952F923F924F925F926F927F9259
:101AB0008F929F92AF92BF92CF92DF92EF92FF925E
:101AC0000F931F93CF93DF93CDB7DEB7CA1BDB0B0A
:101AD0000FB6F894DEBF0FBECDBF09942A883988AF
:101AE00048885F846E847D848C849B84AA84B984B6
:101AF000C884DF80EE80FD800C811B81AA81B981C2
:101B0000CE0FD11D0FB6F894DEBF0FBECDBFED01D5
:101B100008950F931F93CF93DF938C01EB010097F0
:101B200011F42097C9F181E090E06EE070E00E942E
:101B30002D10FC019C01009789F180E88383209798
:101B400071F0D387C28781E88383809141039091AC
:101B50004203009721F4F0934203E09341030115FF
:101B60001105E1F011870087838182608383809172
:101B7000430390914403009789F4F0934403E09366
:101B800043038091450390914603009739F4F09305
:101B90004603E093450302C020E030E0C901DF9135
:101BA000CF911F910F910895DF93CF93CDB7DEB7FB
:101BB000FE013596619171918091430390914403A8
:101BC000AF010E941D0ECF91DF910895EF92FF9219
:101BD0000F931F93CF93DF938C01E0914303F09118
:101BE0004403838181FF1FC0C0E0D0E00AC0DB0155
:101BF0001896ED91FC9119970995009711F0CFEF88
:101C0000DFEFF80181918F016091430370914403EC
:101C1000882369F7DB011896ED91FC9119978AE00A
:101C20000995009711F0CFEFDFEFCE01DF91CF9153
:101C30001F910F91FF90EF9008952F923F924F9236
:101C40005F926F927F928F929F92AF92BF92CF924C
:101C5000DF92EF92FF920F931F93DF93CF93CDB755
:101C6000DEB72C970FB6F894DEBF0FBECDBF6C0168
:101C70001B018A01FC0117821682838181FFD1C179
:101C80002E010894411C511CF6019381F10193FD32
:101C9000859193FF81911F01882309F4BEC185328C
:101CA00039F493FD859193FF81911F01853229F4C9
:101CB00090E0B6010E94A211E7CFEE24FF2420E0BD
:101CC0002032B0F48B3269F08C3228F4803251F03B
:101CD000833271F40BC08D3239F0803349F42160C6
:101CE0002CC02260246029C0286027C0206125C044
:101CF00027FD2CC0382F30533A3098F426FF08C007
:101D00008E2D880FE82EEE0CEE0CE80EE30E15C0BB
:101D10008F2D880FF82EFF0CFF0CF80EF30E2062AB
:101D20000CC08E3221F426FD78C1206406C08C36AA
:101D300011F4206802C0883649F4F10193FD8591C1
:101D400093FF81911F01882309F0BACF982F9554F2
:101D5000933018F09052933028F40C5F1F4FFFE33C
:101D6000F9830DC0833631F0833771F0833509F084
:101D700060C022C0F801808189830E5F1F4F42013D
:101D800071E0A72EB12C16C062E0662E712C600E99
:101D9000711EF8018080918026FF03C06E2D70E0D7
:101DA00002C06FEF7FEFC4012C870E9497115C0186
:101DB00083012C852F7717C052E0652E712C600EA1
:101DC000711EF8018080918026FF03C06E2D70E0A7
:101DD00002C06FEF7FEFC4012C870E9485115C0168
:101DE0002C852068830123FD20C008C080E290E09C
:101DF000B6012C870E94A211FA942C858F2D90E0B9
:101E0000A816B90698F311C0F40127FD859127FFA4
:101E100081914F0190E0B6012C870E94A2112C8580
:101E2000F110FA940894A108B108A114B10461F763
:101E3000F1C0843611F0893649F527FF08C0F80152
:101E400060817181828193810C5F1F4F09C0F8010D
:101E500060817181882777FD8095982F0E5F1F4FD5
:101E60004FE6B42EB22297FF09C0909580957095E9
:101E700061957F4F8F4F9F4FF0E8BF2AA2012AE064
:101E800030E00E94CE11782E741845C0853731F4A9
:101E90003FEEB32EB2222AE030E025C099EFB92EF2
:101EA000B2228F36C1F0803720F4883509F0B5C0F2
:101EB0000DC0803721F0883709F0AFC002C020E1A3
:101EC000B22AB4FE0BC084E0B82A08C0B4FE09C030
:101ED000E6E0BE2A06C028E030E005C020E130E0A0
:101EE00002C020E132E0B7FE08C0F80160817181D4
:101EF000828193810C5F1F4F07C0F801608171815F
:101F000080E090E00E5F1F4FA2010E94CE11782E5C
:101F10007418FFE7BF22B6FE0BC02EEFB2227E146C
:101F200038F4B4FE07C0B2FC05C08FEEB82202C080
:101F3000A72C01C0AE2C8B2D90E0B4FE0DC0FE018D
:101F4000E70DF11D2081203319F4E9EEBE2209C00E
:101F5000A394B2FE06C004C086789070009709F082
:101F6000A3948B2C9924B3FC14C0B0FE0FC0AF1403
:101F700028F4E72CEF0CEA18AF2C08C0E72C06C0B9
:101F800080E290E0B6010E94A211A394AF14C0F3C6
:101F900004C0AF1410F4FA1801C0FF2484FE0FC06F
:101FA00080E390E0B6010E94A21182FE1FC081FE74
:101FB00003C088E590E010C088E790E00DC0C40140
:101FC00086789070009791F081FC02C080E201C099
:101FD0008BE2B7FC8DE290E0B6010E94A21106C030
:101FE00080E390E0B6010E94A211EA947E14C0F34F
:101FF0007A94F201E70DF11D808190E0B6010E9414
:10200000A2117720A9F706C080E290E0B6010E94F5
:10201000A211FA94FF20C1F737CEF601268137814D
:1020200002C02FEF3FEFC9012C960FB6F894DEBF28
:102030000FBECDBFCF91DF911F910F91FF90EF9019
:10204000DF90CF90BF90AF909F908F907F906F90D8
:102050005F904F903F902F900895EF92FF920F93D3
:102060001F93CF93DF93689F8001699F100D789F26
:10207000100D1124C8010E945210E82EE7017E01C4
:10208000F92EE701209731F08E2D60E070E0A80175
:102090000E949011CE01DF91CF911F910F91FF907F
:1020A000EF900895CF93DF938230910510F482E092
:1020B00090E0E0914903F0914A0340E050E020E0D5
:1020C00030E026C06081718168177907E0F06817F9
:1020D000790781F4828193812115310531F0D9018D
:1020E00013969C938E9312972BC090934A038093E0
:1020F000490326C04115510519F06417750718F4F6
:10210000AB01E901DF019F0172816381E72FF62FA7
:102110003097C1F64115510501F1481B590B443068
:10212000510580F412968D919C911397209719F088
:102130009B838A8304C090934A0380934903FD01E3
:10214000329646C0FD01E40FF51F819391934250F2
:10215000504011965C934E933BC0209147033091C1
:1021600048032115310541F420913C0330913D0392
:10217000309348032093470320913E0330913F035F
:102180002115310541F42DB73EB740913A035091E6
:102190003B03241B350BE0914703F0914803E21702
:1021A000F307A0F42E1B3F0B2817390778F0AC017A
:1021B0004E5F5F4F2417350748F04E0F5F1F509357
:1021C0004803409347038193919302C0E0E0F0E01D
:1021D000CF01DF91CF910895CF93DF93009709F45A
:1021E00091C0FC0132971382128260914903709171
:1021F0004A036115710581F420813181280F391F4F
:1022000080914703909148038217930799F5F093C3
:102210004803E093470376C0DB0180E090E002C012
:10222000CD01D901AE17BF0748F412962D913C910C
:10223000139721153105A1F7CD0121C0B383A283E6
:10224000EF01499159919E01240F351FA217B30741
:1022500079F42D913C911197240F351F2E5F3F4F3C
:102260003183208312962D913C91139733832283DF
:10227000009729F4F0934A03E093490343C0DC013B
:102280001396FC93EE9312974D915D91A40FB51F99
:10229000EA17FB0769F420813181240F351F2E5F77
:1022A0003F4FEC0139832883228133813B832A838A
:1022B000E0E0F0E002C0FB01BC01DB0112968D9171
:1022C0009C9113970097B9F79B012E5F3F4F8D911B
:1022D0009C911197820F931F40914703509148039F
:1022E0004817590779F4309729F410924A0310924D
:1022F000490302C0138212822250304030934803B7
:1023000020934703DF91CF910895FC010590615020
:1023100070400110D8F7809590958E0F9F1F0895FB
:10232000DC0101C06D9341505040E0F70895FC017D
:102330006150704001900110D8F7809590958E0FF4
:102340009F1F08950F931F93CF93DF938C01EB0191
:102350008B8181FF1BC082FF0DC02E813F818C814C
:102360009D812817390764F4E881F9810193F98385
:10237000E88306C0E885F985802F0995009731F438
:102380008E819F8101969F838E8302C00FEF1FEF86
:10239000C801DF91CF911F910F910895FA01AA27EB
:1023A000283051F1203181F1E8946F936E7F6E5F98
:1023B0007F4F8F4F9F4FAF4FB1E03ED0B4E03CD046
:1023C000670F781F891F9A1FA11D680F791F8A1F29
:1023D000911DA11D6A0F711D811D911DA11D20D090
:1023E00009F468943F912AE0269F11243019305D4A
:1023F0003193DEF6CF010895462F4770405D41933B
:10240000B3E00FD0C9F7F6CF462F4F70405D4A3387
:1024100018F0495D31FD4052419302D0A9F7EACF4F
:10242000B4E0A6959795879577956795BA95C9F77E
:1024300000976105710508959B01AC010A2E069471
:102440005795479537952795BA95C9F7620F731F2A
:0C245000841F951FA01D0895F894FFCF75
:10245C0043414E204D43502047656E6572616C20A0
:10246C00696E746572727570742068616E646C65E7
:10247C0072200D0043414E204D435020496E74652F
:10248C0072727570742052583049462054726967C4
:10249C006765726564200D0043414E204D4350200A
:1024AC00496E7465727275707420525831494620A9
:1024BC00547269676765726564200D0043414E2054
:1024CC004D435020496E7465727275707420545867
:1024DC0030494620547269676765726564200D0047
:1024EC0043414E204D435020496E74657272757095
:1024FC007420545831494620547269676765726577
:10250C0064200D0043414E204D435020496E7465AC
:10251C00727275707420545832494620547269672F
:10252C006765726564200D0043414E204D43502079
:10253C00496E74657272757074204552524946200A
:10254C0054726967676572656420207769746820C6
:10255C006572726F7220636F646520307825780D18
:10256C000A0043414E204D435020496E74657272EF
:10257C007570742057414B49460D0043414E204D18
:10258C00435020496E74657272757074204D4552BB
:10259C0052460D000D0A200D0A2048692C204920B6
:1025AC00616D204E4F4445203220616E642074686A
:1025BC006973206973204E4F54206A61636B617399
:1025CC00732C2062757420776520617265206765B5
:1025DC007474696E672074686572650D0042756667
:1025EC0066657220302049443A2025642C205369BA
:1025FC007A653A2025642C20446174613A20257355
:10260C00200D0A0042756666657220312049443AF5
:10261C002025642C2053697A653A2025642C2044AB
:10262C006174613A202573200D0A004A6F79737426
:10263C0069636B20583A20256420202020593A20C9
:10264C0025642020204449523A202564200D0A009C
:10265C0043757272656E742043414E206D657373C1
:10266C006167652049443A2025642C2053697A65BA
:10267C003A2025642C20446174613A202573200D86
:10268C000A00000000000000000020004B030000C6
:00000001FF
